{
	"src/contracts/bet_contract.sol": {
		"FootballBet": {
			"abi": [
				{
					"inputs": [
						{
							"internalType": "address",
							"name": "creator",
							"type": "address"
						}
					],
					"stateMutability": "nonpayable",
					"type": "constructor"
				},
				{
					"inputs": [],
					"name": "awayTeamBetAmount",
					"outputs": [
						{
							"internalType": "uint256",
							"name": "",
							"type": "uint256"
						}
					],
					"stateMutability": "view",
					"type": "function"
				},
				{
					"inputs": [
						{
							"internalType": "enum FootballBet.MatchResult",
							"name": "result",
							"type": "uint8"
						}
					],
					"name": "betForResult",
					"outputs": [],
					"stateMutability": "payable",
					"type": "function"
				},
				{
					"inputs": [],
					"name": "completed",
					"outputs": [
						{
							"internalType": "bool",
							"name": "",
							"type": "bool"
						}
					],
					"stateMutability": "view",
					"type": "function"
				},
				{
					"inputs": [],
					"name": "drawBetAmount",
					"outputs": [
						{
							"internalType": "uint256",
							"name": "",
							"type": "uint256"
						}
					],
					"stateMutability": "view",
					"type": "function"
				},
				{
					"inputs": [
						{
							"internalType": "enum FootballBet.MatchResult",
							"name": "result",
							"type": "uint8"
						}
					],
					"name": "finalizeTheBet",
					"outputs": [],
					"stateMutability": "nonpayable",
					"type": "function"
				},
				{
					"inputs": [],
					"name": "homeTeamBetAmount",
					"outputs": [
						{
							"internalType": "uint256",
							"name": "",
							"type": "uint256"
						}
					],
					"stateMutability": "view",
					"type": "function"
				},
				{
					"inputs": [],
					"name": "manager",
					"outputs": [
						{
							"internalType": "address",
							"name": "",
							"type": "address"
						}
					],
					"stateMutability": "view",
					"type": "function"
				}
			],
			"devdoc": {
				"kind": "dev",
				"methods": {},
				"version": 1
			},
			"evm": {
				"assembly": "    /* \"src/contracts/bet_contract.sol\":436:3859  contract FootballBet {... */\n  mstore(0x40, 0x80)\n    /* \"src/contracts/bet_contract.sol\":875:938  constructor(address creator) {... */\n  callvalue\n  dup1\n  iszero\n  tag_1\n  jumpi\n  0x00\n  dup1\n  revert\ntag_1:\n  pop\n  mload(0x40)\n  sub(codesize, bytecodeSize)\n  dup1\n  bytecodeSize\n  dup4\n  codecopy\n  dup2\n  dup2\n  add\n  0x40\n  mstore\n  dup2\n  add\n  swap1\n  tag_2\n  swap2\n  swap1\n  tag_3\n  jump\t// in\ntag_2:\n    /* \"src/contracts/bet_contract.sol\":924:931  creator */\n  dup1\n    /* \"src/contracts/bet_contract.sol\":914:921  manager */\n  0x00\n  dup1\n    /* \"src/contracts/bet_contract.sol\":914:931  manager = creator */\n  0x0100\n  exp\n  dup2\n  sload\n  dup2\n  0xffffffffffffffffffffffffffffffffffffffff\n  mul\n  not\n  and\n  swap1\n  dup4\n  0xffffffffffffffffffffffffffffffffffffffff\n  and\n  mul\n  or\n  swap1\n  sstore\n  pop\n    /* \"src/contracts/bet_contract.sol\":875:938  constructor(address creator) {... */\n  pop\n    /* \"src/contracts/bet_contract.sol\":436:3859  contract FootballBet {... */\n  jump(tag_6)\n    /* \"#utility.yul\":88:205   */\ntag_8:\n    /* \"#utility.yul\":197:198   */\n  0x00\n    /* \"#utility.yul\":194:195   */\n  dup1\n    /* \"#utility.yul\":187:199   */\n  revert\n    /* \"#utility.yul\":334:460   */\ntag_10:\n    /* \"#utility.yul\":371:378   */\n  0x00\n    /* \"#utility.yul\":411:453   */\n  0xffffffffffffffffffffffffffffffffffffffff\n    /* \"#utility.yul\":404:409   */\n  dup3\n    /* \"#utility.yul\":400:454   */\n  and\n    /* \"#utility.yul\":389:454   */\n  swap1\n  pop\n    /* \"#utility.yul\":334:460   */\n  swap2\n  swap1\n  pop\n  jump\t// out\n    /* \"#utility.yul\":466:562   */\ntag_11:\n    /* \"#utility.yul\":503:510   */\n  0x00\n    /* \"#utility.yul\":532:556   */\n  tag_20\n    /* \"#utility.yul\":550:555   */\n  dup3\n    /* \"#utility.yul\":532:556   */\n  tag_10\n  jump\t// in\ntag_20:\n    /* \"#utility.yul\":521:556   */\n  swap1\n  pop\n    /* \"#utility.yul\":466:562   */\n  swap2\n  swap1\n  pop\n  jump\t// out\n    /* \"#utility.yul\":568:690   */\ntag_12:\n    /* \"#utility.yul\":641:665   */\n  tag_22\n    /* \"#utility.yul\":659:664   */\n  dup2\n    /* \"#utility.yul\":641:665   */\n  tag_11\n  jump\t// in\ntag_22:\n    /* \"#utility.yul\":634:639   */\n  dup2\n    /* \"#utility.yul\":631:666   */\n  eq\n    /* \"#utility.yul\":621:684   */\n  tag_23\n  jumpi\n    /* \"#utility.yul\":680:681   */\n  0x00\n    /* \"#utility.yul\":677:678   */\n  dup1\n    /* \"#utility.yul\":670:682   */\n  revert\n    /* \"#utility.yul\":621:684   */\ntag_23:\n    /* \"#utility.yul\":568:690   */\n  pop\n  jump\t// out\n    /* \"#utility.yul\":696:839   */\ntag_13:\n    /* \"#utility.yul\":753:758   */\n  0x00\n    /* \"#utility.yul\":784:790   */\n  dup2\n    /* \"#utility.yul\":778:791   */\n  mload\n    /* \"#utility.yul\":769:791   */\n  swap1\n  pop\n    /* \"#utility.yul\":800:833   */\n  tag_25\n    /* \"#utility.yul\":827:832   */\n  dup2\n    /* \"#utility.yul\":800:833   */\n  tag_12\n  jump\t// in\ntag_25:\n    /* \"#utility.yul\":696:839   */\n  swap3\n  swap2\n  pop\n  pop\n  jump\t// out\n    /* \"#utility.yul\":845:1196   */\ntag_3:\n    /* \"#utility.yul\":915:921   */\n  0x00\n    /* \"#utility.yul\":964:966   */\n  0x20\n    /* \"#utility.yul\":952:961   */\n  dup3\n    /* \"#utility.yul\":943:950   */\n  dup5\n    /* \"#utility.yul\":939:962   */\n  sub\n    /* \"#utility.yul\":935:967   */\n  slt\n    /* \"#utility.yul\":932:1051   */\n  iszero\n  tag_27\n  jumpi\n    /* \"#utility.yul\":970:1049   */\n  tag_28\n  tag_8\n  jump\t// in\ntag_28:\n    /* \"#utility.yul\":932:1051   */\ntag_27:\n    /* \"#utility.yul\":1090:1091   */\n  0x00\n    /* \"#utility.yul\":1115:1179   */\n  tag_29\n    /* \"#utility.yul\":1171:1178   */\n  dup5\n    /* \"#utility.yul\":1162:1168   */\n  dup3\n    /* \"#utility.yul\":1151:1160   */\n  dup6\n    /* \"#utility.yul\":1147:1169   */\n  add\n    /* \"#utility.yul\":1115:1179   */\n  tag_13\n  jump\t// in\ntag_29:\n    /* \"#utility.yul\":1105:1179   */\n  swap2\n  pop\n    /* \"#utility.yul\":1061:1189   */\n  pop\n    /* \"#utility.yul\":845:1196   */\n  swap3\n  swap2\n  pop\n  pop\n  jump\t// out\n    /* \"src/contracts/bet_contract.sol\":436:3859  contract FootballBet {... */\ntag_6:\n  dataSize(sub_0)\n  dup1\n  dataOffset(sub_0)\n  0x00\n  codecopy\n  0x00\n  return\nstop\n\nsub_0: assembly {\n        /* \"src/contracts/bet_contract.sol\":436:3859  contract FootballBet {... */\n      mstore(0x40, 0x80)\n      jumpi(tag_1, lt(calldatasize, 0x04))\n      shr(0xe0, calldataload(0x00))\n      dup1\n      0x707f00d3\n      gt\n      tag_9\n      jumpi\n      dup1\n      0x707f00d3\n      eq\n      tag_5\n      jumpi\n      dup1\n      0x9d9a7fe9\n      eq\n      tag_6\n      jumpi\n      dup1\n      0xd13abf62\n      eq\n      tag_7\n      jumpi\n      dup1\n      0xf32750ce\n      eq\n      tag_8\n      jumpi\n      jump(tag_1)\n    tag_9:\n      dup1\n      0x481c6a75\n      eq\n      tag_2\n      jumpi\n      dup1\n      0x5e42cf62\n      eq\n      tag_3\n      jumpi\n      dup1\n      0x6af7a16e\n      eq\n      tag_4\n      jumpi\n    tag_1:\n      0x00\n      dup1\n      revert\n        /* \"src/contracts/bet_contract.sol\":513:535  address public manager */\n    tag_2:\n      callvalue\n      dup1\n      iszero\n      tag_10\n      jumpi\n      0x00\n      dup1\n      revert\n    tag_10:\n      pop\n      tag_11\n      tag_12\n      jump\t// in\n    tag_11:\n      mload(0x40)\n      tag_13\n      swap2\n      swap1\n      tag_14\n      jump\t// in\n    tag_13:\n      mload(0x40)\n      dup1\n      swap2\n      sub\n      swap1\n      return\n        /* \"src/contracts/bet_contract.sol\":944:1473  function betForResult(MatchResult result) public payable {... */\n    tag_3:\n      tag_15\n      0x04\n      dup1\n      calldatasize\n      sub\n      dup2\n      add\n      swap1\n      tag_16\n      swap2\n      swap1\n      tag_17\n      jump\t// in\n    tag_16:\n      tag_18\n      jump\t// in\n    tag_15:\n      stop\n        /* \"src/contracts/bet_contract.sol\":1479:3259  function finalizeTheBet(MatchResult result) public restricted {... */\n    tag_4:\n      callvalue\n      dup1\n      iszero\n      tag_19\n      jumpi\n      0x00\n      dup1\n      revert\n    tag_19:\n      pop\n      tag_20\n      0x04\n      dup1\n      calldatasize\n      sub\n      dup2\n      add\n      swap1\n      tag_21\n      swap2\n      swap1\n      tag_17\n      jump\t// in\n    tag_21:\n      tag_22\n      jump\t// in\n    tag_20:\n      stop\n        /* \"src/contracts/bet_contract.sol\":576:605  uint public awayTeamBetAmount */\n    tag_5:\n      callvalue\n      dup1\n      iszero\n      tag_23\n      jumpi\n      0x00\n      dup1\n      revert\n    tag_23:\n      pop\n      tag_24\n      tag_25\n      jump\t// in\n    tag_24:\n      mload(0x40)\n      tag_26\n      swap2\n      swap1\n      tag_27\n      jump\t// in\n    tag_26:\n      mload(0x40)\n      dup1\n      swap2\n      sub\n      swap1\n      return\n        /* \"src/contracts/bet_contract.sol\":761:782  bool public completed */\n    tag_6:\n      callvalue\n      dup1\n      iszero\n      tag_28\n      jumpi\n      0x00\n      dup1\n      revert\n    tag_28:\n      pop\n      tag_29\n      tag_30\n      jump\t// in\n    tag_29:\n      mload(0x40)\n      tag_31\n      swap2\n      swap1\n      tag_32\n      jump\t// in\n    tag_31:\n      mload(0x40)\n      dup1\n      swap2\n      sub\n      swap1\n      return\n        /* \"src/contracts/bet_contract.sol\":541:570  uint public homeTeamBetAmount */\n    tag_7:\n      callvalue\n      dup1\n      iszero\n      tag_33\n      jumpi\n      0x00\n      dup1\n      revert\n    tag_33:\n      pop\n      tag_34\n      tag_35\n      jump\t// in\n    tag_34:\n      mload(0x40)\n      tag_36\n      swap2\n      swap1\n      tag_27\n      jump\t// in\n    tag_36:\n      mload(0x40)\n      dup1\n      swap2\n      sub\n      swap1\n      return\n        /* \"src/contracts/bet_contract.sol\":611:636  uint public drawBetAmount */\n    tag_8:\n      callvalue\n      dup1\n      iszero\n      tag_37\n      jumpi\n      0x00\n      dup1\n      revert\n    tag_37:\n      pop\n      tag_38\n      tag_39\n      jump\t// in\n    tag_38:\n      mload(0x40)\n      tag_40\n      swap2\n      swap1\n      tag_27\n      jump\t// in\n    tag_40:\n      mload(0x40)\n      dup1\n      swap2\n      sub\n      swap1\n      return\n        /* \"src/contracts/bet_contract.sol\":513:535  address public manager */\n    tag_12:\n      0x00\n      dup1\n      sload\n      swap1\n      0x0100\n      exp\n      swap1\n      div\n      0xffffffffffffffffffffffffffffffffffffffff\n      and\n      dup2\n      jump\t// out\n        /* \"src/contracts/bet_contract.sol\":944:1473  function betForResult(MatchResult result) public payable {... */\n    tag_18:\n        /* \"src/contracts/bet_contract.sol\":1031:1032  0 */\n      0x00\n        /* \"src/contracts/bet_contract.sol\":1019:1028  msg.value */\n      callvalue\n        /* \"src/contracts/bet_contract.sol\":1019:1032  msg.value > 0 */\n      gt\n        /* \"src/contracts/bet_contract.sol\":1011:1072  require(msg.value > 0, \"Bet value must be greater than zero\") */\n      tag_42\n      jumpi\n      mload(0x40)\n      0x08c379a000000000000000000000000000000000000000000000000000000000\n      dup2\n      mstore\n      0x04\n      add\n      tag_43\n      swap1\n      tag_44\n      jump\t// in\n    tag_43:\n      mload(0x40)\n      dup1\n      swap2\n      sub\n      swap1\n      revert\n    tag_42:\n        /* \"src/contracts/bet_contract.sol\":1096:1116  MatchResult.HOME_WIN */\n      0x00\n        /* \"src/contracts/bet_contract.sol\":1086:1116  result == MatchResult.HOME_WIN */\n      0x02\n      dup2\n      gt\n      iszero\n      tag_45\n      jumpi\n      tag_46\n      tag_47\n      jump\t// in\n    tag_46:\n    tag_45:\n        /* \"src/contracts/bet_contract.sol\":1086:1092  result */\n      dup2\n        /* \"src/contracts/bet_contract.sol\":1086:1116  result == MatchResult.HOME_WIN */\n      0x02\n      dup2\n      gt\n      iszero\n      tag_48\n      jumpi\n      tag_49\n      tag_47\n      jump\t// in\n    tag_49:\n    tag_48:\n      sub\n        /* \"src/contracts/bet_contract.sol\":1082:1467  if (result == MatchResult.HOME_WIN) {... */\n      tag_50\n      jumpi\n        /* \"src/contracts/bet_contract.sol\":1153:1162  msg.value */\n      callvalue\n        /* \"src/contracts/bet_contract.sol\":1132:1149  homeTeamBetAmount */\n      0x01\n      0x00\n        /* \"src/contracts/bet_contract.sol\":1132:1162  homeTeamBetAmount += msg.value */\n      dup3\n      dup3\n      sload\n      tag_51\n      swap2\n      swap1\n      tag_52\n      jump\t// in\n    tag_51:\n      swap3\n      pop\n      pop\n      dup2\n      swap1\n      sstore\n      pop\n        /* \"src/contracts/bet_contract.sol\":1176:1194  homeTeamWinBettors */\n      0x04\n        /* \"src/contracts/bet_contract.sol\":1200:1210  msg.sender */\n      caller\n        /* \"src/contracts/bet_contract.sol\":1176:1211  homeTeamWinBettors.push(msg.sender) */\n      swap1\n      dup1\n      0x01\n      dup2\n      sload\n      add\n      dup1\n      dup3\n      sstore\n      dup1\n      swap2\n      pop\n      pop\n      0x01\n      swap1\n      sub\n      swap1\n      0x00\n      mstore\n      keccak256(0x00, 0x20)\n      add\n      0x00\n      swap1\n      swap2\n      swap1\n      swap2\n      swap1\n      swap2\n      0x0100\n      exp\n      dup2\n      sload\n      dup2\n      0xffffffffffffffffffffffffffffffffffffffff\n      mul\n      not\n      and\n      swap1\n      dup4\n      0xffffffffffffffffffffffffffffffffffffffff\n      and\n      mul\n      or\n      swap1\n      sstore\n      pop\n        /* \"src/contracts/bet_contract.sol\":1082:1467  if (result == MatchResult.HOME_WIN) {... */\n      jump(tag_54)\n    tag_50:\n        /* \"src/contracts/bet_contract.sol\":1242:1262  MatchResult.AWAY_WIN */\n      0x01\n        /* \"src/contracts/bet_contract.sol\":1232:1262  result == MatchResult.AWAY_WIN */\n      0x02\n      dup2\n      gt\n      iszero\n      tag_55\n      jumpi\n      tag_56\n      tag_47\n      jump\t// in\n    tag_56:\n    tag_55:\n        /* \"src/contracts/bet_contract.sol\":1232:1238  result */\n      dup2\n        /* \"src/contracts/bet_contract.sol\":1232:1262  result == MatchResult.AWAY_WIN */\n      0x02\n      dup2\n      gt\n      iszero\n      tag_57\n      jumpi\n      tag_58\n      tag_47\n      jump\t// in\n    tag_58:\n    tag_57:\n      sub\n        /* \"src/contracts/bet_contract.sol\":1228:1467  if (result == MatchResult.AWAY_WIN) {... */\n      tag_59\n      jumpi\n        /* \"src/contracts/bet_contract.sol\":1299:1308  msg.value */\n      callvalue\n        /* \"src/contracts/bet_contract.sol\":1278:1295  awayTeamBetAmount */\n      0x02\n      0x00\n        /* \"src/contracts/bet_contract.sol\":1278:1308  awayTeamBetAmount += msg.value */\n      dup3\n      dup3\n      sload\n      tag_60\n      swap2\n      swap1\n      tag_52\n      jump\t// in\n    tag_60:\n      swap3\n      pop\n      pop\n      dup2\n      swap1\n      sstore\n      pop\n        /* \"src/contracts/bet_contract.sol\":1322:1340  homeTeamWinBettors */\n      0x04\n        /* \"src/contracts/bet_contract.sol\":1346:1356  msg.sender */\n      caller\n        /* \"src/contracts/bet_contract.sol\":1322:1357  homeTeamWinBettors.push(msg.sender) */\n      swap1\n      dup1\n      0x01\n      dup2\n      sload\n      add\n      dup1\n      dup3\n      sstore\n      dup1\n      swap2\n      pop\n      pop\n      0x01\n      swap1\n      sub\n      swap1\n      0x00\n      mstore\n      keccak256(0x00, 0x20)\n      add\n      0x00\n      swap1\n      swap2\n      swap1\n      swap2\n      swap1\n      swap2\n      0x0100\n      exp\n      dup2\n      sload\n      dup2\n      0xffffffffffffffffffffffffffffffffffffffff\n      mul\n      not\n      and\n      swap1\n      dup4\n      0xffffffffffffffffffffffffffffffffffffffff\n      and\n      mul\n      or\n      swap1\n      sstore\n      pop\n        /* \"src/contracts/bet_contract.sol\":1228:1467  if (result == MatchResult.AWAY_WIN) {... */\n      jump(tag_62)\n    tag_59:\n        /* \"src/contracts/bet_contract.sol\":1405:1414  msg.value */\n      callvalue\n        /* \"src/contracts/bet_contract.sol\":1388:1401  drawBetAmount */\n      0x03\n      0x00\n        /* \"src/contracts/bet_contract.sol\":1388:1414  drawBetAmount += msg.value */\n      dup3\n      dup3\n      sload\n      tag_63\n      swap2\n      swap1\n      tag_52\n      jump\t// in\n    tag_63:\n      swap3\n      pop\n      pop\n      dup2\n      swap1\n      sstore\n      pop\n        /* \"src/contracts/bet_contract.sol\":1428:1439  drawBettors */\n      0x06\n        /* \"src/contracts/bet_contract.sol\":1445:1455  msg.sender */\n      caller\n        /* \"src/contracts/bet_contract.sol\":1428:1456  drawBettors.push(msg.sender) */\n      swap1\n      dup1\n      0x01\n      dup2\n      sload\n      add\n      dup1\n      dup3\n      sstore\n      dup1\n      swap2\n      pop\n      pop\n      0x01\n      swap1\n      sub\n      swap1\n      0x00\n      mstore\n      keccak256(0x00, 0x20)\n      add\n      0x00\n      swap1\n      swap2\n      swap1\n      swap2\n      swap1\n      swap2\n      0x0100\n      exp\n      dup2\n      sload\n      dup2\n      0xffffffffffffffffffffffffffffffffffffffff\n      mul\n      not\n      and\n      swap1\n      dup4\n      0xffffffffffffffffffffffffffffffffffffffff\n      and\n      mul\n      or\n      swap1\n      sstore\n      pop\n        /* \"src/contracts/bet_contract.sol\":1228:1467  if (result == MatchResult.AWAY_WIN) {... */\n    tag_62:\n        /* \"src/contracts/bet_contract.sol\":1082:1467  if (result == MatchResult.HOME_WIN) {... */\n    tag_54:\n        /* \"src/contracts/bet_contract.sol\":944:1473  function betForResult(MatchResult result) public payable {... */\n      pop\n      jump\t// out\n        /* \"src/contracts/bet_contract.sol\":1479:3259  function finalizeTheBet(MatchResult result) public restricted {... */\n    tag_22:\n        /* \"src/contracts/bet_contract.sol\":843:850  manager */\n      0x00\n      dup1\n      sload\n      swap1\n      0x0100\n      exp\n      swap1\n      div\n      0xffffffffffffffffffffffffffffffffffffffff\n      and\n        /* \"src/contracts/bet_contract.sol\":829:850  msg.sender == manager */\n      0xffffffffffffffffffffffffffffffffffffffff\n      and\n        /* \"src/contracts/bet_contract.sol\":829:839  msg.sender */\n      caller\n        /* \"src/contracts/bet_contract.sol\":829:850  msg.sender == manager */\n      0xffffffffffffffffffffffffffffffffffffffff\n      and\n      eq\n        /* \"src/contracts/bet_contract.sol\":821:851  require(msg.sender == manager) */\n      tag_66\n      jumpi\n      0x00\n      dup1\n      revert\n    tag_66:\n        /* \"src/contracts/bet_contract.sol\":1551:1570  uint willSendAmount */\n      0x00\n        /* \"src/contracts/bet_contract.sol\":1584:1611  address[] storage receivers */\n      dup1\n        /* \"src/contracts/bet_contract.sol\":1750:1770  MatchResult.HOME_WIN */\n      dup1\n        /* \"src/contracts/bet_contract.sol\":1740:1770  result == MatchResult.HOME_WIN */\n      0x02\n      dup2\n      gt\n      iszero\n      tag_68\n      jumpi\n      tag_69\n      tag_47\n      jump\t// in\n    tag_69:\n    tag_68:\n        /* \"src/contracts/bet_contract.sol\":1740:1746  result */\n      dup4\n        /* \"src/contracts/bet_contract.sol\":1740:1770  result == MatchResult.HOME_WIN */\n      0x02\n      dup2\n      gt\n      iszero\n      tag_70\n      jumpi\n      tag_71\n      tag_47\n      jump\t// in\n    tag_71:\n    tag_70:\n      sub\n        /* \"src/contracts/bet_contract.sol\":1736:3170  if (result == MatchResult.HOME_WIN) {... */\n      tag_72\n      jumpi\n        /* \"src/contracts/bet_contract.sol\":1818:1819  0 */\n      0x00\n        /* \"src/contracts/bet_contract.sol\":1790:1808  homeTeamWinBettors */\n      0x04\n        /* \"src/contracts/bet_contract.sol\":1790:1815  homeTeamWinBettors.length */\n      dup1\n      sload\n      swap1\n      pop\n        /* \"src/contracts/bet_contract.sol\":1790:1819  homeTeamWinBettors.length > 0 */\n      gt\n        /* \"src/contracts/bet_contract.sol\":1786:2206  if (homeTeamWinBettors.length > 0) {... */\n      iszero\n      tag_73\n      jumpi\n        /* \"src/contracts/bet_contract.sol\":1894:1912  homeTeamWinBettors */\n      0x04\n        /* \"src/contracts/bet_contract.sol\":1894:1919  homeTeamWinBettors.length */\n      dup1\n      sload\n      swap1\n      pop\n        /* \"src/contracts/bet_contract.sol\":1877:1890  drawBetAmount */\n      sload(0x03)\n        /* \"src/contracts/bet_contract.sol\":1857:1874  awayTeamBetAmount */\n      sload(0x02)\n        /* \"src/contracts/bet_contract.sol\":1857:1890  awayTeamBetAmount + drawBetAmount */\n      tag_74\n      swap2\n      swap1\n      tag_52\n      jump\t// in\n    tag_74:\n        /* \"src/contracts/bet_contract.sol\":1856:1919  (awayTeamBetAmount + drawBetAmount) / homeTeamWinBettors.length */\n      tag_75\n      swap2\n      swap1\n      tag_76\n      jump\t// in\n    tag_75:\n        /* \"src/contracts/bet_contract.sol\":1839:1919  willSendAmount = (awayTeamBetAmount + drawBetAmount) / homeTeamWinBettors.length */\n      swap2\n      pop\n        /* \"src/contracts/bet_contract.sol\":1949:1967  homeTeamWinBettors */\n      0x04\n        /* \"src/contracts/bet_contract.sol\":1937:1967  receivers = homeTeamWinBettors */\n      swap1\n      pop\n        /* \"src/contracts/bet_contract.sol\":1786:2206  if (homeTeamWinBettors.length > 0) {... */\n      jump(tag_77)\n    tag_73:\n        /* \"src/contracts/bet_contract.sol\":2006:2133  refundMoney(awayTeamWinBettors, awayTeamBetAmount / awayTeamWinBettors.length, drawBettors, drawBetAmount / drawBettors.length) */\n      tag_78\n        /* \"src/contracts/bet_contract.sol\":2018:2036  awayTeamWinBettors */\n      0x05\n        /* \"src/contracts/bet_contract.sol\":2058:2076  awayTeamWinBettors */\n      dup1\n        /* \"src/contracts/bet_contract.sol\":2058:2083  awayTeamWinBettors.length */\n      dup1\n      sload\n      swap1\n      pop\n        /* \"src/contracts/bet_contract.sol\":2038:2055  awayTeamBetAmount */\n      sload(0x02)\n        /* \"src/contracts/bet_contract.sol\":2038:2083  awayTeamBetAmount / awayTeamWinBettors.length */\n      tag_79\n      swap2\n      swap1\n      tag_76\n      jump\t// in\n    tag_79:\n        /* \"src/contracts/bet_contract.sol\":2085:2096  drawBettors */\n      0x06\n        /* \"src/contracts/bet_contract.sol\":2114:2125  drawBettors */\n      dup1\n        /* \"src/contracts/bet_contract.sol\":2114:2132  drawBettors.length */\n      dup1\n      sload\n      swap1\n      pop\n        /* \"src/contracts/bet_contract.sol\":2098:2111  drawBetAmount */\n      sload(0x03)\n        /* \"src/contracts/bet_contract.sol\":2098:2132  drawBetAmount / drawBettors.length */\n      tag_80\n      swap2\n      swap1\n      tag_76\n      jump\t// in\n    tag_80:\n        /* \"src/contracts/bet_contract.sol\":2006:2017  refundMoney */\n      tag_81\n        /* \"src/contracts/bet_contract.sol\":2006:2133  refundMoney(awayTeamWinBettors, awayTeamBetAmount / awayTeamWinBettors.length, drawBettors, drawBetAmount / drawBettors.length) */\n      jump\t// in\n    tag_78:\n        /* \"src/contracts/bet_contract.sol\":2163:2167  true */\n      0x01\n        /* \"src/contracts/bet_contract.sol\":2151:2160  completed */\n      0x07\n      0x00\n        /* \"src/contracts/bet_contract.sol\":2151:2167  completed = true */\n      0x0100\n      exp\n      dup2\n      sload\n      dup2\n      0xff\n      mul\n      not\n      and\n      swap1\n      dup4\n      iszero\n      iszero\n      mul\n      or\n      swap1\n      sstore\n      pop\n        /* \"src/contracts/bet_contract.sol\":2185:2192  return; */\n      pop\n      pop\n      jump(tag_67)\n        /* \"src/contracts/bet_contract.sol\":1786:2206  if (homeTeamWinBettors.length > 0) {... */\n    tag_77:\n        /* \"src/contracts/bet_contract.sol\":1736:3170  if (result == MatchResult.HOME_WIN) {... */\n      jump(tag_82)\n    tag_72:\n        /* \"src/contracts/bet_contract.sol\":2237:2257  MatchResult.AWAY_WIN */\n      0x01\n        /* \"src/contracts/bet_contract.sol\":2227:2257  result == MatchResult.AWAY_WIN */\n      0x02\n      dup2\n      gt\n      iszero\n      tag_83\n      jumpi\n      tag_84\n      tag_47\n      jump\t// in\n    tag_84:\n    tag_83:\n        /* \"src/contracts/bet_contract.sol\":2227:2233  result */\n      dup4\n        /* \"src/contracts/bet_contract.sol\":2227:2257  result == MatchResult.AWAY_WIN */\n      0x02\n      dup2\n      gt\n      iszero\n      tag_85\n      jumpi\n      tag_86\n      tag_47\n      jump\t// in\n    tag_86:\n    tag_85:\n      sub\n        /* \"src/contracts/bet_contract.sol\":2223:3170  if (result == MatchResult.AWAY_WIN) {... */\n      tag_87\n      jumpi\n        /* \"src/contracts/bet_contract.sol\":2305:2306  0 */\n      0x00\n        /* \"src/contracts/bet_contract.sol\":2277:2295  awayTeamWinBettors */\n      0x05\n        /* \"src/contracts/bet_contract.sol\":2277:2302  awayTeamWinBettors.length */\n      dup1\n      sload\n      swap1\n      pop\n        /* \"src/contracts/bet_contract.sol\":2277:2306  awayTeamWinBettors.length > 0 */\n      gt\n        /* \"src/contracts/bet_contract.sol\":2273:2709  if (awayTeamWinBettors.length > 0) {... */\n      iszero\n      tag_88\n      jumpi\n        /* \"src/contracts/bet_contract.sol\":2381:2399  awayTeamWinBettors */\n      0x05\n        /* \"src/contracts/bet_contract.sol\":2381:2406  awayTeamWinBettors.length */\n      dup1\n      sload\n      swap1\n      pop\n        /* \"src/contracts/bet_contract.sol\":2364:2377  drawBetAmount */\n      sload(0x03)\n        /* \"src/contracts/bet_contract.sol\":2344:2361  homeTeamBetAmount */\n      sload(0x01)\n        /* \"src/contracts/bet_contract.sol\":2344:2377  homeTeamBetAmount + drawBetAmount */\n      tag_89\n      swap2\n      swap1\n      tag_52\n      jump\t// in\n    tag_89:\n        /* \"src/contracts/bet_contract.sol\":2343:2406  (homeTeamBetAmount + drawBetAmount) / awayTeamWinBettors.length */\n      tag_90\n      swap2\n      swap1\n      tag_76\n      jump\t// in\n    tag_90:\n        /* \"src/contracts/bet_contract.sol\":2326:2406  willSendAmount = (homeTeamBetAmount + drawBetAmount) / awayTeamWinBettors.length */\n      swap2\n      pop\n        /* \"src/contracts/bet_contract.sol\":2436:2454  awayTeamWinBettors */\n      0x05\n        /* \"src/contracts/bet_contract.sol\":2424:2454  receivers = awayTeamWinBettors */\n      swap1\n      pop\n        /* \"src/contracts/bet_contract.sol\":2273:2709  if (awayTeamWinBettors.length > 0) {... */\n      jump(tag_91)\n    tag_88:\n        /* \"src/contracts/bet_contract.sol\":2493:2620  refundMoney(homeTeamWinBettors, homeTeamBetAmount / homeTeamWinBettors.length, drawBettors, drawBetAmount / drawBettors.length) */\n      tag_92\n        /* \"src/contracts/bet_contract.sol\":2505:2523  homeTeamWinBettors */\n      0x04\n        /* \"src/contracts/bet_contract.sol\":2545:2563  homeTeamWinBettors */\n      dup1\n        /* \"src/contracts/bet_contract.sol\":2545:2570  homeTeamWinBettors.length */\n      dup1\n      sload\n      swap1\n      pop\n        /* \"src/contracts/bet_contract.sol\":2525:2542  homeTeamBetAmount */\n      sload(0x01)\n        /* \"src/contracts/bet_contract.sol\":2525:2570  homeTeamBetAmount / homeTeamWinBettors.length */\n      tag_93\n      swap2\n      swap1\n      tag_76\n      jump\t// in\n    tag_93:\n        /* \"src/contracts/bet_contract.sol\":2572:2583  drawBettors */\n      0x06\n        /* \"src/contracts/bet_contract.sol\":2601:2612  drawBettors */\n      dup1\n        /* \"src/contracts/bet_contract.sol\":2601:2619  drawBettors.length */\n      dup1\n      sload\n      swap1\n      pop\n        /* \"src/contracts/bet_contract.sol\":2585:2598  drawBetAmount */\n      sload(0x03)\n        /* \"src/contracts/bet_contract.sol\":2585:2619  drawBetAmount / drawBettors.length */\n      tag_94\n      swap2\n      swap1\n      tag_76\n      jump\t// in\n    tag_94:\n        /* \"src/contracts/bet_contract.sol\":2493:2504  refundMoney */\n      tag_81\n        /* \"src/contracts/bet_contract.sol\":2493:2620  refundMoney(homeTeamWinBettors, homeTeamBetAmount / homeTeamWinBettors.length, drawBettors, drawBetAmount / drawBettors.length) */\n      jump\t// in\n    tag_92:\n        /* \"src/contracts/bet_contract.sol\":2666:2670  true */\n      0x01\n        /* \"src/contracts/bet_contract.sol\":2654:2663  completed */\n      0x07\n      0x00\n        /* \"src/contracts/bet_contract.sol\":2654:2670  completed = true */\n      0x0100\n      exp\n      dup2\n      sload\n      dup2\n      0xff\n      mul\n      not\n      and\n      swap1\n      dup4\n      iszero\n      iszero\n      mul\n      or\n      swap1\n      sstore\n      pop\n        /* \"src/contracts/bet_contract.sol\":2688:2695  return; */\n      pop\n      pop\n      jump(tag_67)\n        /* \"src/contracts/bet_contract.sol\":2273:2709  if (awayTeamWinBettors.length > 0) {... */\n    tag_91:\n        /* \"src/contracts/bet_contract.sol\":2223:3170  if (result == MatchResult.AWAY_WIN) {... */\n      jump(tag_95)\n    tag_87:\n        /* \"src/contracts/bet_contract.sol\":2764:2765  0 */\n      0x00\n        /* \"src/contracts/bet_contract.sol\":2743:2754  drawBettors */\n      0x06\n        /* \"src/contracts/bet_contract.sol\":2743:2761  drawBettors.length */\n      dup1\n      sload\n      swap1\n      pop\n        /* \"src/contracts/bet_contract.sol\":2743:2765  drawBettors.length > 0 */\n      gt\n        /* \"src/contracts/bet_contract.sol\":2739:3160  if (drawBettors.length > 0) {... */\n      iszero\n      tag_96\n      jumpi\n        /* \"src/contracts/bet_contract.sol\":2844:2855  drawBettors */\n      0x06\n        /* \"src/contracts/bet_contract.sol\":2844:2862  drawBettors.length */\n      dup1\n      sload\n      swap1\n      pop\n        /* \"src/contracts/bet_contract.sol\":2823:2840  awayTeamBetAmount */\n      sload(0x02)\n        /* \"src/contracts/bet_contract.sol\":2803:2820  homeTeamBetAmount */\n      sload(0x01)\n        /* \"src/contracts/bet_contract.sol\":2803:2840  homeTeamBetAmount + awayTeamBetAmount */\n      tag_97\n      swap2\n      swap1\n      tag_52\n      jump\t// in\n    tag_97:\n        /* \"src/contracts/bet_contract.sol\":2802:2862  (homeTeamBetAmount + awayTeamBetAmount) / drawBettors.length */\n      tag_98\n      swap2\n      swap1\n      tag_76\n      jump\t// in\n    tag_98:\n        /* \"src/contracts/bet_contract.sol\":2785:2862  willSendAmount = (homeTeamBetAmount + awayTeamBetAmount) / drawBettors.length */\n      swap2\n      pop\n        /* \"src/contracts/bet_contract.sol\":2892:2903  drawBettors */\n      0x06\n        /* \"src/contracts/bet_contract.sol\":2880:2903  receivers = drawBettors */\n      swap1\n      pop\n        /* \"src/contracts/bet_contract.sol\":2739:3160  if (drawBettors.length > 0) {... */\n      jump(tag_99)\n    tag_96:\n        /* \"src/contracts/bet_contract.sol\":2942:3087  refundMoney(homeTeamWinBettors, homeTeamBetAmount / homeTeamWinBettors.length, awayTeamWinBettors, awayTeamBetAmount / awayTeamWinBettors.length) */\n      tag_100\n        /* \"src/contracts/bet_contract.sol\":2954:2972  homeTeamWinBettors */\n      0x04\n        /* \"src/contracts/bet_contract.sol\":2994:3012  homeTeamWinBettors */\n      dup1\n        /* \"src/contracts/bet_contract.sol\":2994:3019  homeTeamWinBettors.length */\n      dup1\n      sload\n      swap1\n      pop\n        /* \"src/contracts/bet_contract.sol\":2974:2991  homeTeamBetAmount */\n      sload(0x01)\n        /* \"src/contracts/bet_contract.sol\":2974:3019  homeTeamBetAmount / homeTeamWinBettors.length */\n      tag_101\n      swap2\n      swap1\n      tag_76\n      jump\t// in\n    tag_101:\n        /* \"src/contracts/bet_contract.sol\":3021:3039  awayTeamWinBettors */\n      0x05\n        /* \"src/contracts/bet_contract.sol\":3061:3079  awayTeamWinBettors */\n      dup1\n        /* \"src/contracts/bet_contract.sol\":3061:3086  awayTeamWinBettors.length */\n      dup1\n      sload\n      swap1\n      pop\n        /* \"src/contracts/bet_contract.sol\":3041:3058  awayTeamBetAmount */\n      sload(0x02)\n        /* \"src/contracts/bet_contract.sol\":3041:3086  awayTeamBetAmount / awayTeamWinBettors.length */\n      tag_102\n      swap2\n      swap1\n      tag_76\n      jump\t// in\n    tag_102:\n        /* \"src/contracts/bet_contract.sol\":2942:2953  refundMoney */\n      tag_81\n        /* \"src/contracts/bet_contract.sol\":2942:3087  refundMoney(homeTeamWinBettors, homeTeamBetAmount / homeTeamWinBettors.length, awayTeamWinBettors, awayTeamBetAmount / awayTeamWinBettors.length) */\n      jump\t// in\n    tag_100:\n        /* \"src/contracts/bet_contract.sol\":3117:3121  true */\n      0x01\n        /* \"src/contracts/bet_contract.sol\":3105:3114  completed */\n      0x07\n      0x00\n        /* \"src/contracts/bet_contract.sol\":3105:3121  completed = true */\n      0x0100\n      exp\n      dup2\n      sload\n      dup2\n      0xff\n      mul\n      not\n      and\n      swap1\n      dup4\n      iszero\n      iszero\n      mul\n      or\n      swap1\n      sstore\n      pop\n        /* \"src/contracts/bet_contract.sol\":3139:3146  return; */\n      pop\n      pop\n      jump(tag_67)\n        /* \"src/contracts/bet_contract.sol\":2739:3160  if (drawBettors.length > 0) {... */\n    tag_99:\n        /* \"src/contracts/bet_contract.sol\":2223:3170  if (result == MatchResult.AWAY_WIN) {... */\n    tag_95:\n        /* \"src/contracts/bet_contract.sol\":1736:3170  if (result == MatchResult.HOME_WIN) {... */\n    tag_82:\n        /* \"src/contracts/bet_contract.sol\":3179:3226  sendMoneyToReceivers(receivers, willSendAmount) */\n      tag_103\n        /* \"src/contracts/bet_contract.sol\":3200:3209  receivers */\n      dup2\n        /* \"src/contracts/bet_contract.sol\":3211:3225  willSendAmount */\n      dup4\n        /* \"src/contracts/bet_contract.sol\":3179:3199  sendMoneyToReceivers */\n      tag_104\n        /* \"src/contracts/bet_contract.sol\":3179:3226  sendMoneyToReceivers(receivers, willSendAmount) */\n      jump\t// in\n    tag_103:\n        /* \"src/contracts/bet_contract.sol\":3248:3252  true */\n      0x01\n        /* \"src/contracts/bet_contract.sol\":3236:3245  completed */\n      0x07\n      0x00\n        /* \"src/contracts/bet_contract.sol\":3236:3252  completed = true */\n      0x0100\n      exp\n      dup2\n      sload\n      dup2\n      0xff\n      mul\n      not\n      and\n      swap1\n      dup4\n      iszero\n      iszero\n      mul\n      or\n      swap1\n      sstore\n      pop\n        /* \"src/contracts/bet_contract.sol\":1541:3259  {... */\n      pop\n      pop\n        /* \"src/contracts/bet_contract.sol\":861:862  _ */\n    tag_67:\n        /* \"src/contracts/bet_contract.sol\":1479:3259  function finalizeTheBet(MatchResult result) public restricted {... */\n      pop\n      jump\t// out\n        /* \"src/contracts/bet_contract.sol\":576:605  uint public awayTeamBetAmount */\n    tag_25:\n      sload(0x02)\n      dup2\n      jump\t// out\n        /* \"src/contracts/bet_contract.sol\":761:782  bool public completed */\n    tag_30:\n      0x07\n      0x00\n      swap1\n      sload\n      swap1\n      0x0100\n      exp\n      swap1\n      div\n      0xff\n      and\n      dup2\n      jump\t// out\n        /* \"src/contracts/bet_contract.sol\":541:570  uint public homeTeamBetAmount */\n    tag_35:\n      sload(0x01)\n      dup2\n      jump\t// out\n        /* \"src/contracts/bet_contract.sol\":611:636  uint public drawBetAmount */\n    tag_39:\n      sload(0x03)\n      dup2\n      jump\t// out\n        /* \"src/contracts/bet_contract.sol\":3595:3857  function refundMoney(address[] storage firstReceivers, uint firstAmount, address[] storage secondReceivers, uint secondAmount) private {... */\n    tag_81:\n        /* \"src/contracts/bet_contract.sol\":3740:3789  sendMoneyToReceivers(firstReceivers, firstAmount) */\n      tag_106\n        /* \"src/contracts/bet_contract.sol\":3761:3775  firstReceivers */\n      dup5\n        /* \"src/contracts/bet_contract.sol\":3777:3788  firstAmount */\n      dup5\n        /* \"src/contracts/bet_contract.sol\":3740:3760  sendMoneyToReceivers */\n      tag_104\n        /* \"src/contracts/bet_contract.sol\":3740:3789  sendMoneyToReceivers(firstReceivers, firstAmount) */\n      jump\t// in\n    tag_106:\n        /* \"src/contracts/bet_contract.sol\":3799:3850  sendMoneyToReceivers(secondReceivers, secondAmount) */\n      tag_107\n        /* \"src/contracts/bet_contract.sol\":3820:3835  secondReceivers */\n      dup3\n        /* \"src/contracts/bet_contract.sol\":3837:3849  secondAmount */\n      dup3\n        /* \"src/contracts/bet_contract.sol\":3799:3819  sendMoneyToReceivers */\n      tag_104\n        /* \"src/contracts/bet_contract.sol\":3799:3850  sendMoneyToReceivers(secondReceivers, secondAmount) */\n      jump\t// in\n    tag_107:\n        /* \"src/contracts/bet_contract.sol\":3595:3857  function refundMoney(address[] storage firstReceivers, uint firstAmount, address[] storage secondReceivers, uint secondAmount) private {... */\n      pop\n      pop\n      pop\n      pop\n      jump\t// out\n        /* \"src/contracts/bet_contract.sol\":3265:3589  function sendMoneyToReceivers(address[] storage receivers, uint amount) private {... */\n    tag_104:\n        /* \"src/contracts/bet_contract.sol\":3360:3370  uint index */\n      0x00\n        /* \"src/contracts/bet_contract.sol\":3355:3583  for (uint index = 0; index < receivers.length; index++) {... */\n    tag_109:\n        /* \"src/contracts/bet_contract.sol\":3384:3393  receivers */\n      dup3\n        /* \"src/contracts/bet_contract.sol\":3384:3400  receivers.length */\n      dup1\n      sload\n      swap1\n      pop\n        /* \"src/contracts/bet_contract.sol\":3376:3381  index */\n      dup2\n        /* \"src/contracts/bet_contract.sol\":3376:3400  index < receivers.length */\n      lt\n        /* \"src/contracts/bet_contract.sol\":3355:3583  for (uint index = 0; index < receivers.length; index++) {... */\n      iszero\n      tag_110\n      jumpi\n        /* \"src/contracts/bet_contract.sol\":3425:3441  address receiver */\n      0x00\n        /* \"src/contracts/bet_contract.sol\":3444:3453  receivers */\n      dup4\n        /* \"src/contracts/bet_contract.sol\":3454:3459  index */\n      dup3\n        /* \"src/contracts/bet_contract.sol\":3444:3460  receivers[index] */\n      dup2\n      sload\n      dup2\n      lt\n      tag_112\n      jumpi\n      tag_113\n      tag_114\n      jump\t// in\n    tag_113:\n    tag_112:\n      swap1\n      0x00\n      mstore\n      keccak256(0x00, 0x20)\n      add\n      0x00\n      swap1\n      sload\n      swap1\n      0x0100\n      exp\n      swap1\n      div\n      0xffffffffffffffffffffffffffffffffffffffff\n      and\n        /* \"src/contracts/bet_contract.sol\":3425:3460  address receiver = receivers[index] */\n      swap1\n      pop\n        /* \"src/contracts/bet_contract.sol\":3475:3484  bool sent */\n      0x00\n        /* \"src/contracts/bet_contract.sol\":3489:3497  receiver */\n      dup2\n        /* \"src/contracts/bet_contract.sol\":3489:3502  receiver.call */\n      0xffffffffffffffffffffffffffffffffffffffff\n      and\n        /* \"src/contracts/bet_contract.sol\":3510:3516  amount */\n      dup5\n        /* \"src/contracts/bet_contract.sol\":3489:3521  receiver.call{value: amount}(\"\") */\n      mload(0x40)\n      tag_116\n      swap1\n      tag_117\n      jump\t// in\n    tag_116:\n      0x00\n      mload(0x40)\n      dup1\n      dup4\n      sub\n      dup2\n      dup6\n      dup8\n      gas\n      call\n      swap3\n      pop\n      pop\n      pop\n      returndatasize\n      dup1\n      0x00\n      dup2\n      eq\n      tag_120\n      jumpi\n      mload(0x40)\n      swap2\n      pop\n      and(add(returndatasize, 0x3f), not(0x1f))\n      dup3\n      add\n      0x40\n      mstore\n      returndatasize\n      dup3\n      mstore\n      returndatasize\n      0x00\n      0x20\n      dup5\n      add\n      returndatacopy\n      jump(tag_119)\n    tag_120:\n      0x60\n      swap2\n      pop\n    tag_119:\n      pop\n        /* \"src/contracts/bet_contract.sol\":3474:3521  (bool sent,) = receiver.call{value: amount}(\"\") */\n      pop\n      swap1\n      pop\n        /* \"src/contracts/bet_contract.sol\":3543:3547  sent */\n      dup1\n        /* \"src/contracts/bet_contract.sol\":3535:3572  require(sent, \"Failed to send Ether\") */\n      tag_121\n      jumpi\n      mload(0x40)\n      0x08c379a000000000000000000000000000000000000000000000000000000000\n      dup2\n      mstore\n      0x04\n      add\n      tag_122\n      swap1\n      tag_123\n      jump\t// in\n    tag_122:\n      mload(0x40)\n      dup1\n      swap2\n      sub\n      swap1\n      revert\n    tag_121:\n        /* \"src/contracts/bet_contract.sol\":3411:3583  {... */\n      pop\n      pop\n        /* \"src/contracts/bet_contract.sol\":3402:3409  index++ */\n      dup1\n      dup1\n      tag_124\n      swap1\n      tag_125\n      jump\t// in\n    tag_124:\n      swap2\n      pop\n      pop\n        /* \"src/contracts/bet_contract.sol\":3355:3583  for (uint index = 0; index < receivers.length; index++) {... */\n      jump(tag_109)\n    tag_110:\n      pop\n        /* \"src/contracts/bet_contract.sol\":3265:3589  function sendMoneyToReceivers(address[] storage receivers, uint amount) private {... */\n      pop\n      pop\n      jump\t// out\n        /* \"#utility.yul\":7:133   */\n    tag_126:\n        /* \"#utility.yul\":44:51   */\n      0x00\n        /* \"#utility.yul\":84:126   */\n      0xffffffffffffffffffffffffffffffffffffffff\n        /* \"#utility.yul\":77:82   */\n      dup3\n        /* \"#utility.yul\":73:127   */\n      and\n        /* \"#utility.yul\":62:127   */\n      swap1\n      pop\n        /* \"#utility.yul\":7:133   */\n      swap2\n      swap1\n      pop\n      jump\t// out\n        /* \"#utility.yul\":139:235   */\n    tag_127:\n        /* \"#utility.yul\":176:183   */\n      0x00\n        /* \"#utility.yul\":205:229   */\n      tag_151\n        /* \"#utility.yul\":223:228   */\n      dup3\n        /* \"#utility.yul\":205:229   */\n      tag_126\n      jump\t// in\n    tag_151:\n        /* \"#utility.yul\":194:229   */\n      swap1\n      pop\n        /* \"#utility.yul\":139:235   */\n      swap2\n      swap1\n      pop\n      jump\t// out\n        /* \"#utility.yul\":241:359   */\n    tag_128:\n        /* \"#utility.yul\":328:352   */\n      tag_153\n        /* \"#utility.yul\":346:351   */\n      dup2\n        /* \"#utility.yul\":328:352   */\n      tag_127\n      jump\t// in\n    tag_153:\n        /* \"#utility.yul\":323:326   */\n      dup3\n        /* \"#utility.yul\":316:353   */\n      mstore\n        /* \"#utility.yul\":241:359   */\n      pop\n      pop\n      jump\t// out\n        /* \"#utility.yul\":365:587   */\n    tag_14:\n        /* \"#utility.yul\":458:462   */\n      0x00\n        /* \"#utility.yul\":496:498   */\n      0x20\n        /* \"#utility.yul\":485:494   */\n      dup3\n        /* \"#utility.yul\":481:499   */\n      add\n        /* \"#utility.yul\":473:499   */\n      swap1\n      pop\n        /* \"#utility.yul\":509:580   */\n      tag_155\n        /* \"#utility.yul\":577:578   */\n      0x00\n        /* \"#utility.yul\":566:575   */\n      dup4\n        /* \"#utility.yul\":562:579   */\n      add\n        /* \"#utility.yul\":553:559   */\n      dup5\n        /* \"#utility.yul\":509:580   */\n      tag_128\n      jump\t// in\n    tag_155:\n        /* \"#utility.yul\":365:587   */\n      swap3\n      swap2\n      pop\n      pop\n      jump\t// out\n        /* \"#utility.yul\":674:791   */\n    tag_130:\n        /* \"#utility.yul\":783:784   */\n      0x00\n        /* \"#utility.yul\":780:781   */\n      dup1\n        /* \"#utility.yul\":773:785   */\n      revert\n        /* \"#utility.yul\":920:1033   */\n    tag_132:\n        /* \"#utility.yul\":1007:1008   */\n      0x03\n        /* \"#utility.yul\":1000:1005   */\n      dup2\n        /* \"#utility.yul\":997:1009   */\n      lt\n        /* \"#utility.yul\":987:1027   */\n      tag_160\n      jumpi\n        /* \"#utility.yul\":1023:1024   */\n      0x00\n        /* \"#utility.yul\":1020:1021   */\n      dup1\n        /* \"#utility.yul\":1013:1025   */\n      revert\n        /* \"#utility.yul\":987:1027   */\n    tag_160:\n        /* \"#utility.yul\":920:1033   */\n      pop\n      jump\t// out\n        /* \"#utility.yul\":1039:1206   */\n    tag_133:\n        /* \"#utility.yul\":1099:1104   */\n      0x00\n        /* \"#utility.yul\":1137:1143   */\n      dup2\n        /* \"#utility.yul\":1124:1144   */\n      calldataload\n        /* \"#utility.yul\":1115:1144   */\n      swap1\n      pop\n        /* \"#utility.yul\":1153:1200   */\n      tag_162\n        /* \"#utility.yul\":1194:1199   */\n      dup2\n        /* \"#utility.yul\":1153:1200   */\n      tag_132\n      jump\t// in\n    tag_162:\n        /* \"#utility.yul\":1039:1206   */\n      swap3\n      swap2\n      pop\n      pop\n      jump\t// out\n        /* \"#utility.yul\":1212:1569   */\n    tag_17:\n        /* \"#utility.yul\":1285:1291   */\n      0x00\n        /* \"#utility.yul\":1334:1336   */\n      0x20\n        /* \"#utility.yul\":1322:1331   */\n      dup3\n        /* \"#utility.yul\":1313:1320   */\n      dup5\n        /* \"#utility.yul\":1309:1332   */\n      sub\n        /* \"#utility.yul\":1305:1337   */\n      slt\n        /* \"#utility.yul\":1302:1421   */\n      iszero\n      tag_164\n      jumpi\n        /* \"#utility.yul\":1340:1419   */\n      tag_165\n      tag_130\n      jump\t// in\n    tag_165:\n        /* \"#utility.yul\":1302:1421   */\n    tag_164:\n        /* \"#utility.yul\":1460:1461   */\n      0x00\n        /* \"#utility.yul\":1485:1552   */\n      tag_166\n        /* \"#utility.yul\":1544:1551   */\n      dup5\n        /* \"#utility.yul\":1535:1541   */\n      dup3\n        /* \"#utility.yul\":1524:1533   */\n      dup6\n        /* \"#utility.yul\":1520:1542   */\n      add\n        /* \"#utility.yul\":1485:1552   */\n      tag_133\n      jump\t// in\n    tag_166:\n        /* \"#utility.yul\":1475:1552   */\n      swap2\n      pop\n        /* \"#utility.yul\":1431:1562   */\n      pop\n        /* \"#utility.yul\":1212:1569   */\n      swap3\n      swap2\n      pop\n      pop\n      jump\t// out\n        /* \"#utility.yul\":1575:1652   */\n    tag_134:\n        /* \"#utility.yul\":1612:1619   */\n      0x00\n        /* \"#utility.yul\":1641:1646   */\n      dup2\n        /* \"#utility.yul\":1630:1646   */\n      swap1\n      pop\n        /* \"#utility.yul\":1575:1652   */\n      swap2\n      swap1\n      pop\n      jump\t// out\n        /* \"#utility.yul\":1658:1776   */\n    tag_135:\n        /* \"#utility.yul\":1745:1769   */\n      tag_169\n        /* \"#utility.yul\":1763:1768   */\n      dup2\n        /* \"#utility.yul\":1745:1769   */\n      tag_134\n      jump\t// in\n    tag_169:\n        /* \"#utility.yul\":1740:1743   */\n      dup3\n        /* \"#utility.yul\":1733:1770   */\n      mstore\n        /* \"#utility.yul\":1658:1776   */\n      pop\n      pop\n      jump\t// out\n        /* \"#utility.yul\":1782:2004   */\n    tag_27:\n        /* \"#utility.yul\":1875:1879   */\n      0x00\n        /* \"#utility.yul\":1913:1915   */\n      0x20\n        /* \"#utility.yul\":1902:1911   */\n      dup3\n        /* \"#utility.yul\":1898:1916   */\n      add\n        /* \"#utility.yul\":1890:1916   */\n      swap1\n      pop\n        /* \"#utility.yul\":1926:1997   */\n      tag_171\n        /* \"#utility.yul\":1994:1995   */\n      0x00\n        /* \"#utility.yul\":1983:1992   */\n      dup4\n        /* \"#utility.yul\":1979:1996   */\n      add\n        /* \"#utility.yul\":1970:1976   */\n      dup5\n        /* \"#utility.yul\":1926:1997   */\n      tag_135\n      jump\t// in\n    tag_171:\n        /* \"#utility.yul\":1782:2004   */\n      swap3\n      swap2\n      pop\n      pop\n      jump\t// out\n        /* \"#utility.yul\":2010:2100   */\n    tag_136:\n        /* \"#utility.yul\":2044:2051   */\n      0x00\n        /* \"#utility.yul\":2087:2092   */\n      dup2\n        /* \"#utility.yul\":2080:2093   */\n      iszero\n        /* \"#utility.yul\":2073:2094   */\n      iszero\n        /* \"#utility.yul\":2062:2094   */\n      swap1\n      pop\n        /* \"#utility.yul\":2010:2100   */\n      swap2\n      swap1\n      pop\n      jump\t// out\n        /* \"#utility.yul\":2106:2215   */\n    tag_137:\n        /* \"#utility.yul\":2187:2208   */\n      tag_174\n        /* \"#utility.yul\":2202:2207   */\n      dup2\n        /* \"#utility.yul\":2187:2208   */\n      tag_136\n      jump\t// in\n    tag_174:\n        /* \"#utility.yul\":2182:2185   */\n      dup3\n        /* \"#utility.yul\":2175:2209   */\n      mstore\n        /* \"#utility.yul\":2106:2215   */\n      pop\n      pop\n      jump\t// out\n        /* \"#utility.yul\":2221:2431   */\n    tag_32:\n        /* \"#utility.yul\":2308:2312   */\n      0x00\n        /* \"#utility.yul\":2346:2348   */\n      0x20\n        /* \"#utility.yul\":2335:2344   */\n      dup3\n        /* \"#utility.yul\":2331:2349   */\n      add\n        /* \"#utility.yul\":2323:2349   */\n      swap1\n      pop\n        /* \"#utility.yul\":2359:2424   */\n      tag_176\n        /* \"#utility.yul\":2421:2422   */\n      0x00\n        /* \"#utility.yul\":2410:2419   */\n      dup4\n        /* \"#utility.yul\":2406:2423   */\n      add\n        /* \"#utility.yul\":2397:2403   */\n      dup5\n        /* \"#utility.yul\":2359:2424   */\n      tag_137\n      jump\t// in\n    tag_176:\n        /* \"#utility.yul\":2221:2431   */\n      swap3\n      swap2\n      pop\n      pop\n      jump\t// out\n        /* \"#utility.yul\":2437:2606   */\n    tag_138:\n        /* \"#utility.yul\":2521:2532   */\n      0x00\n        /* \"#utility.yul\":2555:2561   */\n      dup3\n        /* \"#utility.yul\":2550:2553   */\n      dup3\n        /* \"#utility.yul\":2543:2562   */\n      mstore\n        /* \"#utility.yul\":2595:2599   */\n      0x20\n        /* \"#utility.yul\":2590:2593   */\n      dup3\n        /* \"#utility.yul\":2586:2600   */\n      add\n        /* \"#utility.yul\":2571:2600   */\n      swap1\n      pop\n        /* \"#utility.yul\":2437:2606   */\n      swap3\n      swap2\n      pop\n      pop\n      jump\t// out\n        /* \"#utility.yul\":2612:2834   */\n    tag_139:\n        /* \"#utility.yul\":2752:2786   */\n      0x4265742076616c7565206d7573742062652067726561746572207468616e207a\n        /* \"#utility.yul\":2748:2749   */\n      0x00\n        /* \"#utility.yul\":2740:2746   */\n      dup3\n        /* \"#utility.yul\":2736:2750   */\n      add\n        /* \"#utility.yul\":2729:2787   */\n      mstore\n        /* \"#utility.yul\":2821:2826   */\n      0x65726f0000000000000000000000000000000000000000000000000000000000\n        /* \"#utility.yul\":2816:2818   */\n      0x20\n        /* \"#utility.yul\":2808:2814   */\n      dup3\n        /* \"#utility.yul\":2804:2819   */\n      add\n        /* \"#utility.yul\":2797:2827   */\n      mstore\n        /* \"#utility.yul\":2612:2834   */\n      pop\n      jump\t// out\n        /* \"#utility.yul\":2840:3206   */\n    tag_140:\n        /* \"#utility.yul\":2982:2985   */\n      0x00\n        /* \"#utility.yul\":3003:3070   */\n      tag_180\n        /* \"#utility.yul\":3067:3069   */\n      0x23\n        /* \"#utility.yul\":3062:3065   */\n      dup4\n        /* \"#utility.yul\":3003:3070   */\n      tag_138\n      jump\t// in\n    tag_180:\n        /* \"#utility.yul\":2996:3070   */\n      swap2\n      pop\n        /* \"#utility.yul\":3079:3172   */\n      tag_181\n        /* \"#utility.yul\":3168:3171   */\n      dup3\n        /* \"#utility.yul\":3079:3172   */\n      tag_139\n      jump\t// in\n    tag_181:\n        /* \"#utility.yul\":3197:3199   */\n      0x40\n        /* \"#utility.yul\":3192:3195   */\n      dup3\n        /* \"#utility.yul\":3188:3200   */\n      add\n        /* \"#utility.yul\":3181:3200   */\n      swap1\n      pop\n        /* \"#utility.yul\":2840:3206   */\n      swap2\n      swap1\n      pop\n      jump\t// out\n        /* \"#utility.yul\":3212:3631   */\n    tag_44:\n        /* \"#utility.yul\":3378:3382   */\n      0x00\n        /* \"#utility.yul\":3416:3418   */\n      0x20\n        /* \"#utility.yul\":3405:3414   */\n      dup3\n        /* \"#utility.yul\":3401:3419   */\n      add\n        /* \"#utility.yul\":3393:3419   */\n      swap1\n      pop\n        /* \"#utility.yul\":3465:3474   */\n      dup2\n        /* \"#utility.yul\":3459:3463   */\n      dup2\n        /* \"#utility.yul\":3455:3475   */\n      sub\n        /* \"#utility.yul\":3451:3452   */\n      0x00\n        /* \"#utility.yul\":3440:3449   */\n      dup4\n        /* \"#utility.yul\":3436:3453   */\n      add\n        /* \"#utility.yul\":3429:3476   */\n      mstore\n        /* \"#utility.yul\":3493:3624   */\n      tag_183\n        /* \"#utility.yul\":3619:3623   */\n      dup2\n        /* \"#utility.yul\":3493:3624   */\n      tag_140\n      jump\t// in\n    tag_183:\n        /* \"#utility.yul\":3485:3624   */\n      swap1\n      pop\n        /* \"#utility.yul\":3212:3631   */\n      swap2\n      swap1\n      pop\n      jump\t// out\n        /* \"#utility.yul\":3637:3817   */\n    tag_47:\n        /* \"#utility.yul\":3685:3762   */\n      0x4e487b7100000000000000000000000000000000000000000000000000000000\n        /* \"#utility.yul\":3682:3683   */\n      0x00\n        /* \"#utility.yul\":3675:3763   */\n      mstore\n        /* \"#utility.yul\":3782:3786   */\n      0x21\n        /* \"#utility.yul\":3779:3780   */\n      0x04\n        /* \"#utility.yul\":3772:3787   */\n      mstore\n        /* \"#utility.yul\":3806:3810   */\n      0x24\n        /* \"#utility.yul\":3803:3804   */\n      0x00\n        /* \"#utility.yul\":3796:3811   */\n      revert\n        /* \"#utility.yul\":3823:4003   */\n    tag_141:\n        /* \"#utility.yul\":3871:3948   */\n      0x4e487b7100000000000000000000000000000000000000000000000000000000\n        /* \"#utility.yul\":3868:3869   */\n      0x00\n        /* \"#utility.yul\":3861:3949   */\n      mstore\n        /* \"#utility.yul\":3968:3972   */\n      0x11\n        /* \"#utility.yul\":3965:3966   */\n      0x04\n        /* \"#utility.yul\":3958:3973   */\n      mstore\n        /* \"#utility.yul\":3992:3996   */\n      0x24\n        /* \"#utility.yul\":3989:3990   */\n      0x00\n        /* \"#utility.yul\":3982:3997   */\n      revert\n        /* \"#utility.yul\":4009:4200   */\n    tag_52:\n        /* \"#utility.yul\":4049:4052   */\n      0x00\n        /* \"#utility.yul\":4068:4088   */\n      tag_187\n        /* \"#utility.yul\":4086:4087   */\n      dup3\n        /* \"#utility.yul\":4068:4088   */\n      tag_134\n      jump\t// in\n    tag_187:\n        /* \"#utility.yul\":4063:4088   */\n      swap2\n      pop\n        /* \"#utility.yul\":4102:4122   */\n      tag_188\n        /* \"#utility.yul\":4120:4121   */\n      dup4\n        /* \"#utility.yul\":4102:4122   */\n      tag_134\n      jump\t// in\n    tag_188:\n        /* \"#utility.yul\":4097:4122   */\n      swap3\n      pop\n        /* \"#utility.yul\":4145:4146   */\n      dup3\n        /* \"#utility.yul\":4142:4143   */\n      dup3\n        /* \"#utility.yul\":4138:4147   */\n      add\n        /* \"#utility.yul\":4131:4147   */\n      swap1\n      pop\n        /* \"#utility.yul\":4166:4169   */\n      dup1\n        /* \"#utility.yul\":4163:4164   */\n      dup3\n        /* \"#utility.yul\":4160:4170   */\n      gt\n        /* \"#utility.yul\":4157:4193   */\n      iszero\n      tag_189\n      jumpi\n        /* \"#utility.yul\":4173:4191   */\n      tag_190\n      tag_141\n      jump\t// in\n    tag_190:\n        /* \"#utility.yul\":4157:4193   */\n    tag_189:\n        /* \"#utility.yul\":4009:4200   */\n      swap3\n      swap2\n      pop\n      pop\n      jump\t// out\n        /* \"#utility.yul\":4206:4386   */\n    tag_142:\n        /* \"#utility.yul\":4254:4331   */\n      0x4e487b7100000000000000000000000000000000000000000000000000000000\n        /* \"#utility.yul\":4251:4252   */\n      0x00\n        /* \"#utility.yul\":4244:4332   */\n      mstore\n        /* \"#utility.yul\":4351:4355   */\n      0x12\n        /* \"#utility.yul\":4348:4349   */\n      0x04\n        /* \"#utility.yul\":4341:4356   */\n      mstore\n        /* \"#utility.yul\":4375:4379   */\n      0x24\n        /* \"#utility.yul\":4372:4373   */\n      0x00\n        /* \"#utility.yul\":4365:4380   */\n      revert\n        /* \"#utility.yul\":4392:4577   */\n    tag_76:\n        /* \"#utility.yul\":4432:4433   */\n      0x00\n        /* \"#utility.yul\":4449:4469   */\n      tag_193\n        /* \"#utility.yul\":4467:4468   */\n      dup3\n        /* \"#utility.yul\":4449:4469   */\n      tag_134\n      jump\t// in\n    tag_193:\n        /* \"#utility.yul\":4444:4469   */\n      swap2\n      pop\n        /* \"#utility.yul\":4483:4503   */\n      tag_194\n        /* \"#utility.yul\":4501:4502   */\n      dup4\n        /* \"#utility.yul\":4483:4503   */\n      tag_134\n      jump\t// in\n    tag_194:\n        /* \"#utility.yul\":4478:4503   */\n      swap3\n      pop\n        /* \"#utility.yul\":4522:4523   */\n      dup3\n        /* \"#utility.yul\":4512:4547   */\n      tag_195\n      jumpi\n        /* \"#utility.yul\":4527:4545   */\n      tag_196\n      tag_142\n      jump\t// in\n    tag_196:\n        /* \"#utility.yul\":4512:4547   */\n    tag_195:\n        /* \"#utility.yul\":4569:4570   */\n      dup3\n        /* \"#utility.yul\":4566:4567   */\n      dup3\n        /* \"#utility.yul\":4562:4571   */\n      div\n        /* \"#utility.yul\":4557:4571   */\n      swap1\n      pop\n        /* \"#utility.yul\":4392:4577   */\n      swap3\n      swap2\n      pop\n      pop\n      jump\t// out\n        /* \"#utility.yul\":4583:4763   */\n    tag_114:\n        /* \"#utility.yul\":4631:4708   */\n      0x4e487b7100000000000000000000000000000000000000000000000000000000\n        /* \"#utility.yul\":4628:4629   */\n      0x00\n        /* \"#utility.yul\":4621:4709   */\n      mstore\n        /* \"#utility.yul\":4728:4732   */\n      0x32\n        /* \"#utility.yul\":4725:4726   */\n      0x04\n        /* \"#utility.yul\":4718:4733   */\n      mstore\n        /* \"#utility.yul\":4752:4756   */\n      0x24\n        /* \"#utility.yul\":4749:4750   */\n      0x00\n        /* \"#utility.yul\":4742:4757   */\n      revert\n        /* \"#utility.yul\":4769:4916   */\n    tag_143:\n        /* \"#utility.yul\":4870:4881   */\n      0x00\n        /* \"#utility.yul\":4907:4910   */\n      dup2\n        /* \"#utility.yul\":4892:4910   */\n      swap1\n      pop\n        /* \"#utility.yul\":4769:4916   */\n      swap3\n      swap2\n      pop\n      pop\n      jump\t// out\n        /* \"#utility.yul\":4922:5036   */\n    tag_144:\n      pop\n      jump\t// out\n        /* \"#utility.yul\":5042:5440   */\n    tag_145:\n        /* \"#utility.yul\":5201:5204   */\n      0x00\n        /* \"#utility.yul\":5222:5305   */\n      tag_201\n        /* \"#utility.yul\":5303:5304   */\n      0x00\n        /* \"#utility.yul\":5298:5301   */\n      dup4\n        /* \"#utility.yul\":5222:5305   */\n      tag_143\n      jump\t// in\n    tag_201:\n        /* \"#utility.yul\":5215:5305   */\n      swap2\n      pop\n        /* \"#utility.yul\":5314:5407   */\n      tag_202\n        /* \"#utility.yul\":5403:5406   */\n      dup3\n        /* \"#utility.yul\":5314:5407   */\n      tag_144\n      jump\t// in\n    tag_202:\n        /* \"#utility.yul\":5432:5433   */\n      0x00\n        /* \"#utility.yul\":5427:5430   */\n      dup3\n        /* \"#utility.yul\":5423:5434   */\n      add\n        /* \"#utility.yul\":5416:5434   */\n      swap1\n      pop\n        /* \"#utility.yul\":5042:5440   */\n      swap2\n      swap1\n      pop\n      jump\t// out\n        /* \"#utility.yul\":5446:5825   */\n    tag_117:\n        /* \"#utility.yul\":5630:5633   */\n      0x00\n        /* \"#utility.yul\":5652:5799   */\n      tag_204\n        /* \"#utility.yul\":5795:5798   */\n      dup3\n        /* \"#utility.yul\":5652:5799   */\n      tag_145\n      jump\t// in\n    tag_204:\n        /* \"#utility.yul\":5645:5799   */\n      swap2\n      pop\n        /* \"#utility.yul\":5816:5819   */\n      dup2\n        /* \"#utility.yul\":5809:5819   */\n      swap1\n      pop\n        /* \"#utility.yul\":5446:5825   */\n      swap2\n      swap1\n      pop\n      jump\t// out\n        /* \"#utility.yul\":5831:6001   */\n    tag_146:\n        /* \"#utility.yul\":5971:5993   */\n      0x4661696c656420746f2073656e64204574686572000000000000000000000000\n        /* \"#utility.yul\":5967:5968   */\n      0x00\n        /* \"#utility.yul\":5959:5965   */\n      dup3\n        /* \"#utility.yul\":5955:5969   */\n      add\n        /* \"#utility.yul\":5948:5994   */\n      mstore\n        /* \"#utility.yul\":5831:6001   */\n      pop\n      jump\t// out\n        /* \"#utility.yul\":6007:6373   */\n    tag_147:\n        /* \"#utility.yul\":6149:6152   */\n      0x00\n        /* \"#utility.yul\":6170:6237   */\n      tag_207\n        /* \"#utility.yul\":6234:6236   */\n      0x14\n        /* \"#utility.yul\":6229:6232   */\n      dup4\n        /* \"#utility.yul\":6170:6237   */\n      tag_138\n      jump\t// in\n    tag_207:\n        /* \"#utility.yul\":6163:6237   */\n      swap2\n      pop\n        /* \"#utility.yul\":6246:6339   */\n      tag_208\n        /* \"#utility.yul\":6335:6338   */\n      dup3\n        /* \"#utility.yul\":6246:6339   */\n      tag_146\n      jump\t// in\n    tag_208:\n        /* \"#utility.yul\":6364:6366   */\n      0x20\n        /* \"#utility.yul\":6359:6362   */\n      dup3\n        /* \"#utility.yul\":6355:6367   */\n      add\n        /* \"#utility.yul\":6348:6367   */\n      swap1\n      pop\n        /* \"#utility.yul\":6007:6373   */\n      swap2\n      swap1\n      pop\n      jump\t// out\n        /* \"#utility.yul\":6379:6798   */\n    tag_123:\n        /* \"#utility.yul\":6545:6549   */\n      0x00\n        /* \"#utility.yul\":6583:6585   */\n      0x20\n        /* \"#utility.yul\":6572:6581   */\n      dup3\n        /* \"#utility.yul\":6568:6586   */\n      add\n        /* \"#utility.yul\":6560:6586   */\n      swap1\n      pop\n        /* \"#utility.yul\":6632:6641   */\n      dup2\n        /* \"#utility.yul\":6626:6630   */\n      dup2\n        /* \"#utility.yul\":6622:6642   */\n      sub\n        /* \"#utility.yul\":6618:6619   */\n      0x00\n        /* \"#utility.yul\":6607:6616   */\n      dup4\n        /* \"#utility.yul\":6603:6620   */\n      add\n        /* \"#utility.yul\":6596:6643   */\n      mstore\n        /* \"#utility.yul\":6660:6791   */\n      tag_210\n        /* \"#utility.yul\":6786:6790   */\n      dup2\n        /* \"#utility.yul\":6660:6791   */\n      tag_147\n      jump\t// in\n    tag_210:\n        /* \"#utility.yul\":6652:6791   */\n      swap1\n      pop\n        /* \"#utility.yul\":6379:6798   */\n      swap2\n      swap1\n      pop\n      jump\t// out\n        /* \"#utility.yul\":6804:7037   */\n    tag_125:\n        /* \"#utility.yul\":6843:6846   */\n      0x00\n        /* \"#utility.yul\":6866:6890   */\n      tag_212\n        /* \"#utility.yul\":6884:6889   */\n      dup3\n        /* \"#utility.yul\":6866:6890   */\n      tag_134\n      jump\t// in\n    tag_212:\n        /* \"#utility.yul\":6857:6890   */\n      swap2\n      pop\n        /* \"#utility.yul\":6912:6978   */\n      0xffffffffffffffffffffffffffffffffffffffffffffffffffffffffffffffff\n        /* \"#utility.yul\":6905:6910   */\n      dup3\n        /* \"#utility.yul\":6902:6979   */\n      sub\n        /* \"#utility.yul\":6899:7002   */\n      tag_213\n      jumpi\n        /* \"#utility.yul\":6982:7000   */\n      tag_214\n      tag_141\n      jump\t// in\n    tag_214:\n        /* \"#utility.yul\":6899:7002   */\n    tag_213:\n        /* \"#utility.yul\":7029:7030   */\n      0x01\n        /* \"#utility.yul\":7022:7027   */\n      dup3\n        /* \"#utility.yul\":7018:7031   */\n      add\n        /* \"#utility.yul\":7011:7031   */\n      swap1\n      pop\n        /* \"#utility.yul\":6804:7037   */\n      swap2\n      swap1\n      pop\n      jump\t// out\n\n    auxdata: 0xa2646970667358221220c8ad69a029d99c70e14bc0cd1efacd12fe0613f25a608eb7d0ef3adbc898014664736f6c63430008110033\n}\n",
				"bytecode": {
					"linkReferences": {},
					"object": "608060405234801561001057600080fd5b50604051610cdb380380610cdb833981810160405281019061003291906100db565b806000806101000a81548173ffffffffffffffffffffffffffffffffffffffff021916908373ffffffffffffffffffffffffffffffffffffffff16021790555050610108565b600080fd5b600073ffffffffffffffffffffffffffffffffffffffff82169050919050565b60006100a88261007d565b9050919050565b6100b88161009d565b81146100c357600080fd5b50565b6000815190506100d5816100af565b92915050565b6000602082840312156100f1576100f0610078565b5b60006100ff848285016100c6565b91505092915050565b610bc4806101176000396000f3fe6080604052600436106100705760003560e01c8063707f00d31161004e578063707f00d3146100e55780639d9a7fe914610110578063d13abf621461013b578063f32750ce1461016657610070565b8063481c6a75146100755780635e42cf62146100a05780636af7a16e146100bc575b600080fd5b34801561008157600080fd5b5061008a610191565b60405161009791906107f4565b60405180910390f35b6100ba60048036038101906100b59190610839565b6101b5565b005b3480156100c857600080fd5b506100e360048036038101906100de9190610839565b6103d3565b005b3480156100f157600080fd5b506100fa61065d565b604051610107919061087f565b60405180910390f35b34801561011c57600080fd5b50610125610663565b60405161013291906108b5565b60405180910390f35b34801561014757600080fd5b50610150610676565b60405161015d919061087f565b60405180910390f35b34801561017257600080fd5b5061017b61067c565b604051610188919061087f565b60405180910390f35b60008054906101000a900473ffffffffffffffffffffffffffffffffffffffff1681565b600034116101f8576040517f08c379a00000000000000000000000000000000000000000000000000000000081526004016101ef90610953565b60405180910390fd5b6000600281111561020c5761020b610973565b5b81600281111561021f5761021e610973565b5b036102a557346001600082825461023691906109d1565b925050819055506004339080600181540180825580915050600190039060005260206000200160009091909190916101000a81548173ffffffffffffffffffffffffffffffffffffffff021916908373ffffffffffffffffffffffffffffffffffffffff1602179055506103d0565b600160028111156102b9576102b8610973565b5b8160028111156102cc576102cb610973565b5b036103525734600260008282546102e391906109d1565b925050819055506004339080600181540180825580915050600190039060005260206000200160009091909190916101000a81548173ffffffffffffffffffffffffffffffffffffffff021916908373ffffffffffffffffffffffffffffffffffffffff1602179055506103cf565b346003600082825461036491906109d1565b925050819055506006339080600181540180825580915050600190039060005260206000200160009091909190916101000a81548173ffffffffffffffffffffffffffffffffffffffff021916908373ffffffffffffffffffffffffffffffffffffffff1602179055505b5b50565b60008054906101000a900473ffffffffffffffffffffffffffffffffffffffff1673ffffffffffffffffffffffffffffffffffffffff163373ffffffffffffffffffffffffffffffffffffffff161461042b57600080fd5b60008080600281111561044157610440610973565b5b83600281111561045457610453610973565b5b036104e957600060048054905011156104925760048054905060035460025461047d91906109d1565b6104879190610a34565b9150600490506104e4565b6104c2600580805490506002546104a99190610a34565b600680805490506003546104bd9190610a34565b610682565b6001600760006101000a81548160ff021916908315150217905550505061065a565b610632565b600160028111156104fd576104fc610973565b5b8360028111156105105761050f610973565b5b036105a5576000600580549050111561054e5760058054905060035460015461053991906109d1565b6105439190610a34565b9150600590506105a0565b61057e600480805490506001546105659190610a34565b600680805490506003546105799190610a34565b610682565b6001600760006101000a81548160ff021916908315150217905550505061065a565b610631565b600060068054905011156105de576006805490506002546001546105c991906109d1565b6105d39190610a34565b915060069050610630565b61060e600480805490506001546105f59190610a34565b600580805490506002546106099190610a34565b610682565b6001600760006101000a81548160ff021916908315150217905550505061065a565b5b5b61063c818361069c565b6001600760006101000a81548160ff02191690831515021790555050505b50565b60025481565b600760009054906101000a900460ff1681565b60015481565b60035481565b61068c848461069c565b610696828261069c565b50505050565b60005b82805490508110156107ae5760008382815481106106c0576106bf610a65565b5b9060005260206000200160009054906101000a900473ffffffffffffffffffffffffffffffffffffffff16905060008173ffffffffffffffffffffffffffffffffffffffff168460405161071390610ac5565b60006040518083038185875af1925050503d8060008114610750576040519150601f19603f3d011682016040523d82523d6000602084013e610755565b606091505b5050905080610799576040517f08c379a000000000000000000000000000000000000000000000000000000000815260040161079090610b26565b60405180910390fd5b505080806107a690610b46565b91505061069f565b505050565b600073ffffffffffffffffffffffffffffffffffffffff82169050919050565b60006107de826107b3565b9050919050565b6107ee816107d3565b82525050565b600060208201905061080960008301846107e5565b92915050565b600080fd5b6003811061082157600080fd5b50565b60008135905061083381610814565b92915050565b60006020828403121561084f5761084e61080f565b5b600061085d84828501610824565b91505092915050565b6000819050919050565b61087981610866565b82525050565b60006020820190506108946000830184610870565b92915050565b60008115159050919050565b6108af8161089a565b82525050565b60006020820190506108ca60008301846108a6565b92915050565b600082825260208201905092915050565b7f4265742076616c7565206d7573742062652067726561746572207468616e207a60008201527f65726f0000000000000000000000000000000000000000000000000000000000602082015250565b600061093d6023836108d0565b9150610948826108e1565b604082019050919050565b6000602082019050818103600083015261096c81610930565b9050919050565b7f4e487b7100000000000000000000000000000000000000000000000000000000600052602160045260246000fd5b7f4e487b7100000000000000000000000000000000000000000000000000000000600052601160045260246000fd5b60006109dc82610866565b91506109e783610866565b92508282019050808211156109ff576109fe6109a2565b5b92915050565b7f4e487b7100000000000000000000000000000000000000000000000000000000600052601260045260246000fd5b6000610a3f82610866565b9150610a4a83610866565b925082610a5a57610a59610a05565b5b828204905092915050565b7f4e487b7100000000000000000000000000000000000000000000000000000000600052603260045260246000fd5b600081905092915050565b50565b6000610aaf600083610a94565b9150610aba82610a9f565b600082019050919050565b6000610ad082610aa2565b9150819050919050565b7f4661696c656420746f2073656e64204574686572000000000000000000000000600082015250565b6000610b106014836108d0565b9150610b1b82610ada565b602082019050919050565b60006020820190508181036000830152610b3f81610b03565b9050919050565b6000610b5182610866565b91507fffffffffffffffffffffffffffffffffffffffffffffffffffffffffffffffff8203610b8357610b826109a2565b5b60018201905091905056fea2646970667358221220c8ad69a029d99c70e14bc0cd1efacd12fe0613f25a608eb7d0ef3adbc898014664736f6c63430008110033",
					"opcodes": "PUSH1 0x80 PUSH1 0x40 MSTORE CALLVALUE DUP1 ISZERO PUSH2 0x10 JUMPI PUSH1 0x0 DUP1 REVERT JUMPDEST POP PUSH1 0x40 MLOAD PUSH2 0xCDB CODESIZE SUB DUP1 PUSH2 0xCDB DUP4 CODECOPY DUP2 DUP2 ADD PUSH1 0x40 MSTORE DUP2 ADD SWAP1 PUSH2 0x32 SWAP2 SWAP1 PUSH2 0xDB JUMP JUMPDEST DUP1 PUSH1 0x0 DUP1 PUSH2 0x100 EXP DUP2 SLOAD DUP2 PUSH20 0xFFFFFFFFFFFFFFFFFFFFFFFFFFFFFFFFFFFFFFFF MUL NOT AND SWAP1 DUP4 PUSH20 0xFFFFFFFFFFFFFFFFFFFFFFFFFFFFFFFFFFFFFFFF AND MUL OR SWAP1 SSTORE POP POP PUSH2 0x108 JUMP JUMPDEST PUSH1 0x0 DUP1 REVERT JUMPDEST PUSH1 0x0 PUSH20 0xFFFFFFFFFFFFFFFFFFFFFFFFFFFFFFFFFFFFFFFF DUP3 AND SWAP1 POP SWAP2 SWAP1 POP JUMP JUMPDEST PUSH1 0x0 PUSH2 0xA8 DUP3 PUSH2 0x7D JUMP JUMPDEST SWAP1 POP SWAP2 SWAP1 POP JUMP JUMPDEST PUSH2 0xB8 DUP2 PUSH2 0x9D JUMP JUMPDEST DUP2 EQ PUSH2 0xC3 JUMPI PUSH1 0x0 DUP1 REVERT JUMPDEST POP JUMP JUMPDEST PUSH1 0x0 DUP2 MLOAD SWAP1 POP PUSH2 0xD5 DUP2 PUSH2 0xAF JUMP JUMPDEST SWAP3 SWAP2 POP POP JUMP JUMPDEST PUSH1 0x0 PUSH1 0x20 DUP3 DUP5 SUB SLT ISZERO PUSH2 0xF1 JUMPI PUSH2 0xF0 PUSH2 0x78 JUMP JUMPDEST JUMPDEST PUSH1 0x0 PUSH2 0xFF DUP5 DUP3 DUP6 ADD PUSH2 0xC6 JUMP JUMPDEST SWAP2 POP POP SWAP3 SWAP2 POP POP JUMP JUMPDEST PUSH2 0xBC4 DUP1 PUSH2 0x117 PUSH1 0x0 CODECOPY PUSH1 0x0 RETURN INVALID PUSH1 0x80 PUSH1 0x40 MSTORE PUSH1 0x4 CALLDATASIZE LT PUSH2 0x70 JUMPI PUSH1 0x0 CALLDATALOAD PUSH1 0xE0 SHR DUP1 PUSH4 0x707F00D3 GT PUSH2 0x4E JUMPI DUP1 PUSH4 0x707F00D3 EQ PUSH2 0xE5 JUMPI DUP1 PUSH4 0x9D9A7FE9 EQ PUSH2 0x110 JUMPI DUP1 PUSH4 0xD13ABF62 EQ PUSH2 0x13B JUMPI DUP1 PUSH4 0xF32750CE EQ PUSH2 0x166 JUMPI PUSH2 0x70 JUMP JUMPDEST DUP1 PUSH4 0x481C6A75 EQ PUSH2 0x75 JUMPI DUP1 PUSH4 0x5E42CF62 EQ PUSH2 0xA0 JUMPI DUP1 PUSH4 0x6AF7A16E EQ PUSH2 0xBC JUMPI JUMPDEST PUSH1 0x0 DUP1 REVERT JUMPDEST CALLVALUE DUP1 ISZERO PUSH2 0x81 JUMPI PUSH1 0x0 DUP1 REVERT JUMPDEST POP PUSH2 0x8A PUSH2 0x191 JUMP JUMPDEST PUSH1 0x40 MLOAD PUSH2 0x97 SWAP2 SWAP1 PUSH2 0x7F4 JUMP JUMPDEST PUSH1 0x40 MLOAD DUP1 SWAP2 SUB SWAP1 RETURN JUMPDEST PUSH2 0xBA PUSH1 0x4 DUP1 CALLDATASIZE SUB DUP2 ADD SWAP1 PUSH2 0xB5 SWAP2 SWAP1 PUSH2 0x839 JUMP JUMPDEST PUSH2 0x1B5 JUMP JUMPDEST STOP JUMPDEST CALLVALUE DUP1 ISZERO PUSH2 0xC8 JUMPI PUSH1 0x0 DUP1 REVERT JUMPDEST POP PUSH2 0xE3 PUSH1 0x4 DUP1 CALLDATASIZE SUB DUP2 ADD SWAP1 PUSH2 0xDE SWAP2 SWAP1 PUSH2 0x839 JUMP JUMPDEST PUSH2 0x3D3 JUMP JUMPDEST STOP JUMPDEST CALLVALUE DUP1 ISZERO PUSH2 0xF1 JUMPI PUSH1 0x0 DUP1 REVERT JUMPDEST POP PUSH2 0xFA PUSH2 0x65D JUMP JUMPDEST PUSH1 0x40 MLOAD PUSH2 0x107 SWAP2 SWAP1 PUSH2 0x87F JUMP JUMPDEST PUSH1 0x40 MLOAD DUP1 SWAP2 SUB SWAP1 RETURN JUMPDEST CALLVALUE DUP1 ISZERO PUSH2 0x11C JUMPI PUSH1 0x0 DUP1 REVERT JUMPDEST POP PUSH2 0x125 PUSH2 0x663 JUMP JUMPDEST PUSH1 0x40 MLOAD PUSH2 0x132 SWAP2 SWAP1 PUSH2 0x8B5 JUMP JUMPDEST PUSH1 0x40 MLOAD DUP1 SWAP2 SUB SWAP1 RETURN JUMPDEST CALLVALUE DUP1 ISZERO PUSH2 0x147 JUMPI PUSH1 0x0 DUP1 REVERT JUMPDEST POP PUSH2 0x150 PUSH2 0x676 JUMP JUMPDEST PUSH1 0x40 MLOAD PUSH2 0x15D SWAP2 SWAP1 PUSH2 0x87F JUMP JUMPDEST PUSH1 0x40 MLOAD DUP1 SWAP2 SUB SWAP1 RETURN JUMPDEST CALLVALUE DUP1 ISZERO PUSH2 0x172 JUMPI PUSH1 0x0 DUP1 REVERT JUMPDEST POP PUSH2 0x17B PUSH2 0x67C JUMP JUMPDEST PUSH1 0x40 MLOAD PUSH2 0x188 SWAP2 SWAP1 PUSH2 0x87F JUMP JUMPDEST PUSH1 0x40 MLOAD DUP1 SWAP2 SUB SWAP1 RETURN JUMPDEST PUSH1 0x0 DUP1 SLOAD SWAP1 PUSH2 0x100 EXP SWAP1 DIV PUSH20 0xFFFFFFFFFFFFFFFFFFFFFFFFFFFFFFFFFFFFFFFF AND DUP2 JUMP JUMPDEST PUSH1 0x0 CALLVALUE GT PUSH2 0x1F8 JUMPI PUSH1 0x40 MLOAD PUSH32 0x8C379A000000000000000000000000000000000000000000000000000000000 DUP2 MSTORE PUSH1 0x4 ADD PUSH2 0x1EF SWAP1 PUSH2 0x953 JUMP JUMPDEST PUSH1 0x40 MLOAD DUP1 SWAP2 SUB SWAP1 REVERT JUMPDEST PUSH1 0x0 PUSH1 0x2 DUP2 GT ISZERO PUSH2 0x20C JUMPI PUSH2 0x20B PUSH2 0x973 JUMP JUMPDEST JUMPDEST DUP2 PUSH1 0x2 DUP2 GT ISZERO PUSH2 0x21F JUMPI PUSH2 0x21E PUSH2 0x973 JUMP JUMPDEST JUMPDEST SUB PUSH2 0x2A5 JUMPI CALLVALUE PUSH1 0x1 PUSH1 0x0 DUP3 DUP3 SLOAD PUSH2 0x236 SWAP2 SWAP1 PUSH2 0x9D1 JUMP JUMPDEST SWAP3 POP POP DUP2 SWAP1 SSTORE POP PUSH1 0x4 CALLER SWAP1 DUP1 PUSH1 0x1 DUP2 SLOAD ADD DUP1 DUP3 SSTORE DUP1 SWAP2 POP POP PUSH1 0x1 SWAP1 SUB SWAP1 PUSH1 0x0 MSTORE PUSH1 0x20 PUSH1 0x0 KECCAK256 ADD PUSH1 0x0 SWAP1 SWAP2 SWAP1 SWAP2 SWAP1 SWAP2 PUSH2 0x100 EXP DUP2 SLOAD DUP2 PUSH20 0xFFFFFFFFFFFFFFFFFFFFFFFFFFFFFFFFFFFFFFFF MUL NOT AND SWAP1 DUP4 PUSH20 0xFFFFFFFFFFFFFFFFFFFFFFFFFFFFFFFFFFFFFFFF AND MUL OR SWAP1 SSTORE POP PUSH2 0x3D0 JUMP JUMPDEST PUSH1 0x1 PUSH1 0x2 DUP2 GT ISZERO PUSH2 0x2B9 JUMPI PUSH2 0x2B8 PUSH2 0x973 JUMP JUMPDEST JUMPDEST DUP2 PUSH1 0x2 DUP2 GT ISZERO PUSH2 0x2CC JUMPI PUSH2 0x2CB PUSH2 0x973 JUMP JUMPDEST JUMPDEST SUB PUSH2 0x352 JUMPI CALLVALUE PUSH1 0x2 PUSH1 0x0 DUP3 DUP3 SLOAD PUSH2 0x2E3 SWAP2 SWAP1 PUSH2 0x9D1 JUMP JUMPDEST SWAP3 POP POP DUP2 SWAP1 SSTORE POP PUSH1 0x4 CALLER SWAP1 DUP1 PUSH1 0x1 DUP2 SLOAD ADD DUP1 DUP3 SSTORE DUP1 SWAP2 POP POP PUSH1 0x1 SWAP1 SUB SWAP1 PUSH1 0x0 MSTORE PUSH1 0x20 PUSH1 0x0 KECCAK256 ADD PUSH1 0x0 SWAP1 SWAP2 SWAP1 SWAP2 SWAP1 SWAP2 PUSH2 0x100 EXP DUP2 SLOAD DUP2 PUSH20 0xFFFFFFFFFFFFFFFFFFFFFFFFFFFFFFFFFFFFFFFF MUL NOT AND SWAP1 DUP4 PUSH20 0xFFFFFFFFFFFFFFFFFFFFFFFFFFFFFFFFFFFFFFFF AND MUL OR SWAP1 SSTORE POP PUSH2 0x3CF JUMP JUMPDEST CALLVALUE PUSH1 0x3 PUSH1 0x0 DUP3 DUP3 SLOAD PUSH2 0x364 SWAP2 SWAP1 PUSH2 0x9D1 JUMP JUMPDEST SWAP3 POP POP DUP2 SWAP1 SSTORE POP PUSH1 0x6 CALLER SWAP1 DUP1 PUSH1 0x1 DUP2 SLOAD ADD DUP1 DUP3 SSTORE DUP1 SWAP2 POP POP PUSH1 0x1 SWAP1 SUB SWAP1 PUSH1 0x0 MSTORE PUSH1 0x20 PUSH1 0x0 KECCAK256 ADD PUSH1 0x0 SWAP1 SWAP2 SWAP1 SWAP2 SWAP1 SWAP2 PUSH2 0x100 EXP DUP2 SLOAD DUP2 PUSH20 0xFFFFFFFFFFFFFFFFFFFFFFFFFFFFFFFFFFFFFFFF MUL NOT AND SWAP1 DUP4 PUSH20 0xFFFFFFFFFFFFFFFFFFFFFFFFFFFFFFFFFFFFFFFF AND MUL OR SWAP1 SSTORE POP JUMPDEST JUMPDEST POP JUMP JUMPDEST PUSH1 0x0 DUP1 SLOAD SWAP1 PUSH2 0x100 EXP SWAP1 DIV PUSH20 0xFFFFFFFFFFFFFFFFFFFFFFFFFFFFFFFFFFFFFFFF AND PUSH20 0xFFFFFFFFFFFFFFFFFFFFFFFFFFFFFFFFFFFFFFFF AND CALLER PUSH20 0xFFFFFFFFFFFFFFFFFFFFFFFFFFFFFFFFFFFFFFFF AND EQ PUSH2 0x42B JUMPI PUSH1 0x0 DUP1 REVERT JUMPDEST PUSH1 0x0 DUP1 DUP1 PUSH1 0x2 DUP2 GT ISZERO PUSH2 0x441 JUMPI PUSH2 0x440 PUSH2 0x973 JUMP JUMPDEST JUMPDEST DUP4 PUSH1 0x2 DUP2 GT ISZERO PUSH2 0x454 JUMPI PUSH2 0x453 PUSH2 0x973 JUMP JUMPDEST JUMPDEST SUB PUSH2 0x4E9 JUMPI PUSH1 0x0 PUSH1 0x4 DUP1 SLOAD SWAP1 POP GT ISZERO PUSH2 0x492 JUMPI PUSH1 0x4 DUP1 SLOAD SWAP1 POP PUSH1 0x3 SLOAD PUSH1 0x2 SLOAD PUSH2 0x47D SWAP2 SWAP1 PUSH2 0x9D1 JUMP JUMPDEST PUSH2 0x487 SWAP2 SWAP1 PUSH2 0xA34 JUMP JUMPDEST SWAP2 POP PUSH1 0x4 SWAP1 POP PUSH2 0x4E4 JUMP JUMPDEST PUSH2 0x4C2 PUSH1 0x5 DUP1 DUP1 SLOAD SWAP1 POP PUSH1 0x2 SLOAD PUSH2 0x4A9 SWAP2 SWAP1 PUSH2 0xA34 JUMP JUMPDEST PUSH1 0x6 DUP1 DUP1 SLOAD SWAP1 POP PUSH1 0x3 SLOAD PUSH2 0x4BD SWAP2 SWAP1 PUSH2 0xA34 JUMP JUMPDEST PUSH2 0x682 JUMP JUMPDEST PUSH1 0x1 PUSH1 0x7 PUSH1 0x0 PUSH2 0x100 EXP DUP2 SLOAD DUP2 PUSH1 0xFF MUL NOT AND SWAP1 DUP4 ISZERO ISZERO MUL OR SWAP1 SSTORE POP POP POP PUSH2 0x65A JUMP JUMPDEST PUSH2 0x632 JUMP JUMPDEST PUSH1 0x1 PUSH1 0x2 DUP2 GT ISZERO PUSH2 0x4FD JUMPI PUSH2 0x4FC PUSH2 0x973 JUMP JUMPDEST JUMPDEST DUP4 PUSH1 0x2 DUP2 GT ISZERO PUSH2 0x510 JUMPI PUSH2 0x50F PUSH2 0x973 JUMP JUMPDEST JUMPDEST SUB PUSH2 0x5A5 JUMPI PUSH1 0x0 PUSH1 0x5 DUP1 SLOAD SWAP1 POP GT ISZERO PUSH2 0x54E JUMPI PUSH1 0x5 DUP1 SLOAD SWAP1 POP PUSH1 0x3 SLOAD PUSH1 0x1 SLOAD PUSH2 0x539 SWAP2 SWAP1 PUSH2 0x9D1 JUMP JUMPDEST PUSH2 0x543 SWAP2 SWAP1 PUSH2 0xA34 JUMP JUMPDEST SWAP2 POP PUSH1 0x5 SWAP1 POP PUSH2 0x5A0 JUMP JUMPDEST PUSH2 0x57E PUSH1 0x4 DUP1 DUP1 SLOAD SWAP1 POP PUSH1 0x1 SLOAD PUSH2 0x565 SWAP2 SWAP1 PUSH2 0xA34 JUMP JUMPDEST PUSH1 0x6 DUP1 DUP1 SLOAD SWAP1 POP PUSH1 0x3 SLOAD PUSH2 0x579 SWAP2 SWAP1 PUSH2 0xA34 JUMP JUMPDEST PUSH2 0x682 JUMP JUMPDEST PUSH1 0x1 PUSH1 0x7 PUSH1 0x0 PUSH2 0x100 EXP DUP2 SLOAD DUP2 PUSH1 0xFF MUL NOT AND SWAP1 DUP4 ISZERO ISZERO MUL OR SWAP1 SSTORE POP POP POP PUSH2 0x65A JUMP JUMPDEST PUSH2 0x631 JUMP JUMPDEST PUSH1 0x0 PUSH1 0x6 DUP1 SLOAD SWAP1 POP GT ISZERO PUSH2 0x5DE JUMPI PUSH1 0x6 DUP1 SLOAD SWAP1 POP PUSH1 0x2 SLOAD PUSH1 0x1 SLOAD PUSH2 0x5C9 SWAP2 SWAP1 PUSH2 0x9D1 JUMP JUMPDEST PUSH2 0x5D3 SWAP2 SWAP1 PUSH2 0xA34 JUMP JUMPDEST SWAP2 POP PUSH1 0x6 SWAP1 POP PUSH2 0x630 JUMP JUMPDEST PUSH2 0x60E PUSH1 0x4 DUP1 DUP1 SLOAD SWAP1 POP PUSH1 0x1 SLOAD PUSH2 0x5F5 SWAP2 SWAP1 PUSH2 0xA34 JUMP JUMPDEST PUSH1 0x5 DUP1 DUP1 SLOAD SWAP1 POP PUSH1 0x2 SLOAD PUSH2 0x609 SWAP2 SWAP1 PUSH2 0xA34 JUMP JUMPDEST PUSH2 0x682 JUMP JUMPDEST PUSH1 0x1 PUSH1 0x7 PUSH1 0x0 PUSH2 0x100 EXP DUP2 SLOAD DUP2 PUSH1 0xFF MUL NOT AND SWAP1 DUP4 ISZERO ISZERO MUL OR SWAP1 SSTORE POP POP POP PUSH2 0x65A JUMP JUMPDEST JUMPDEST JUMPDEST PUSH2 0x63C DUP2 DUP4 PUSH2 0x69C JUMP JUMPDEST PUSH1 0x1 PUSH1 0x7 PUSH1 0x0 PUSH2 0x100 EXP DUP2 SLOAD DUP2 PUSH1 0xFF MUL NOT AND SWAP1 DUP4 ISZERO ISZERO MUL OR SWAP1 SSTORE POP POP POP JUMPDEST POP JUMP JUMPDEST PUSH1 0x2 SLOAD DUP2 JUMP JUMPDEST PUSH1 0x7 PUSH1 0x0 SWAP1 SLOAD SWAP1 PUSH2 0x100 EXP SWAP1 DIV PUSH1 0xFF AND DUP2 JUMP JUMPDEST PUSH1 0x1 SLOAD DUP2 JUMP JUMPDEST PUSH1 0x3 SLOAD DUP2 JUMP JUMPDEST PUSH2 0x68C DUP5 DUP5 PUSH2 0x69C JUMP JUMPDEST PUSH2 0x696 DUP3 DUP3 PUSH2 0x69C JUMP JUMPDEST POP POP POP POP JUMP JUMPDEST PUSH1 0x0 JUMPDEST DUP3 DUP1 SLOAD SWAP1 POP DUP2 LT ISZERO PUSH2 0x7AE JUMPI PUSH1 0x0 DUP4 DUP3 DUP2 SLOAD DUP2 LT PUSH2 0x6C0 JUMPI PUSH2 0x6BF PUSH2 0xA65 JUMP JUMPDEST JUMPDEST SWAP1 PUSH1 0x0 MSTORE PUSH1 0x20 PUSH1 0x0 KECCAK256 ADD PUSH1 0x0 SWAP1 SLOAD SWAP1 PUSH2 0x100 EXP SWAP1 DIV PUSH20 0xFFFFFFFFFFFFFFFFFFFFFFFFFFFFFFFFFFFFFFFF AND SWAP1 POP PUSH1 0x0 DUP2 PUSH20 0xFFFFFFFFFFFFFFFFFFFFFFFFFFFFFFFFFFFFFFFF AND DUP5 PUSH1 0x40 MLOAD PUSH2 0x713 SWAP1 PUSH2 0xAC5 JUMP JUMPDEST PUSH1 0x0 PUSH1 0x40 MLOAD DUP1 DUP4 SUB DUP2 DUP6 DUP8 GAS CALL SWAP3 POP POP POP RETURNDATASIZE DUP1 PUSH1 0x0 DUP2 EQ PUSH2 0x750 JUMPI PUSH1 0x40 MLOAD SWAP2 POP PUSH1 0x1F NOT PUSH1 0x3F RETURNDATASIZE ADD AND DUP3 ADD PUSH1 0x40 MSTORE RETURNDATASIZE DUP3 MSTORE RETURNDATASIZE PUSH1 0x0 PUSH1 0x20 DUP5 ADD RETURNDATACOPY PUSH2 0x755 JUMP JUMPDEST PUSH1 0x60 SWAP2 POP JUMPDEST POP POP SWAP1 POP DUP1 PUSH2 0x799 JUMPI PUSH1 0x40 MLOAD PUSH32 0x8C379A000000000000000000000000000000000000000000000000000000000 DUP2 MSTORE PUSH1 0x4 ADD PUSH2 0x790 SWAP1 PUSH2 0xB26 JUMP JUMPDEST PUSH1 0x40 MLOAD DUP1 SWAP2 SUB SWAP1 REVERT JUMPDEST POP POP DUP1 DUP1 PUSH2 0x7A6 SWAP1 PUSH2 0xB46 JUMP JUMPDEST SWAP2 POP POP PUSH2 0x69F JUMP JUMPDEST POP POP POP JUMP JUMPDEST PUSH1 0x0 PUSH20 0xFFFFFFFFFFFFFFFFFFFFFFFFFFFFFFFFFFFFFFFF DUP3 AND SWAP1 POP SWAP2 SWAP1 POP JUMP JUMPDEST PUSH1 0x0 PUSH2 0x7DE DUP3 PUSH2 0x7B3 JUMP JUMPDEST SWAP1 POP SWAP2 SWAP1 POP JUMP JUMPDEST PUSH2 0x7EE DUP2 PUSH2 0x7D3 JUMP JUMPDEST DUP3 MSTORE POP POP JUMP JUMPDEST PUSH1 0x0 PUSH1 0x20 DUP3 ADD SWAP1 POP PUSH2 0x809 PUSH1 0x0 DUP4 ADD DUP5 PUSH2 0x7E5 JUMP JUMPDEST SWAP3 SWAP2 POP POP JUMP JUMPDEST PUSH1 0x0 DUP1 REVERT JUMPDEST PUSH1 0x3 DUP2 LT PUSH2 0x821 JUMPI PUSH1 0x0 DUP1 REVERT JUMPDEST POP JUMP JUMPDEST PUSH1 0x0 DUP2 CALLDATALOAD SWAP1 POP PUSH2 0x833 DUP2 PUSH2 0x814 JUMP JUMPDEST SWAP3 SWAP2 POP POP JUMP JUMPDEST PUSH1 0x0 PUSH1 0x20 DUP3 DUP5 SUB SLT ISZERO PUSH2 0x84F JUMPI PUSH2 0x84E PUSH2 0x80F JUMP JUMPDEST JUMPDEST PUSH1 0x0 PUSH2 0x85D DUP5 DUP3 DUP6 ADD PUSH2 0x824 JUMP JUMPDEST SWAP2 POP POP SWAP3 SWAP2 POP POP JUMP JUMPDEST PUSH1 0x0 DUP2 SWAP1 POP SWAP2 SWAP1 POP JUMP JUMPDEST PUSH2 0x879 DUP2 PUSH2 0x866 JUMP JUMPDEST DUP3 MSTORE POP POP JUMP JUMPDEST PUSH1 0x0 PUSH1 0x20 DUP3 ADD SWAP1 POP PUSH2 0x894 PUSH1 0x0 DUP4 ADD DUP5 PUSH2 0x870 JUMP JUMPDEST SWAP3 SWAP2 POP POP JUMP JUMPDEST PUSH1 0x0 DUP2 ISZERO ISZERO SWAP1 POP SWAP2 SWAP1 POP JUMP JUMPDEST PUSH2 0x8AF DUP2 PUSH2 0x89A JUMP JUMPDEST DUP3 MSTORE POP POP JUMP JUMPDEST PUSH1 0x0 PUSH1 0x20 DUP3 ADD SWAP1 POP PUSH2 0x8CA PUSH1 0x0 DUP4 ADD DUP5 PUSH2 0x8A6 JUMP JUMPDEST SWAP3 SWAP2 POP POP JUMP JUMPDEST PUSH1 0x0 DUP3 DUP3 MSTORE PUSH1 0x20 DUP3 ADD SWAP1 POP SWAP3 SWAP2 POP POP JUMP JUMPDEST PUSH32 0x4265742076616C7565206D7573742062652067726561746572207468616E207A PUSH1 0x0 DUP3 ADD MSTORE PUSH32 0x65726F0000000000000000000000000000000000000000000000000000000000 PUSH1 0x20 DUP3 ADD MSTORE POP JUMP JUMPDEST PUSH1 0x0 PUSH2 0x93D PUSH1 0x23 DUP4 PUSH2 0x8D0 JUMP JUMPDEST SWAP2 POP PUSH2 0x948 DUP3 PUSH2 0x8E1 JUMP JUMPDEST PUSH1 0x40 DUP3 ADD SWAP1 POP SWAP2 SWAP1 POP JUMP JUMPDEST PUSH1 0x0 PUSH1 0x20 DUP3 ADD SWAP1 POP DUP2 DUP2 SUB PUSH1 0x0 DUP4 ADD MSTORE PUSH2 0x96C DUP2 PUSH2 0x930 JUMP JUMPDEST SWAP1 POP SWAP2 SWAP1 POP JUMP JUMPDEST PUSH32 0x4E487B7100000000000000000000000000000000000000000000000000000000 PUSH1 0x0 MSTORE PUSH1 0x21 PUSH1 0x4 MSTORE PUSH1 0x24 PUSH1 0x0 REVERT JUMPDEST PUSH32 0x4E487B7100000000000000000000000000000000000000000000000000000000 PUSH1 0x0 MSTORE PUSH1 0x11 PUSH1 0x4 MSTORE PUSH1 0x24 PUSH1 0x0 REVERT JUMPDEST PUSH1 0x0 PUSH2 0x9DC DUP3 PUSH2 0x866 JUMP JUMPDEST SWAP2 POP PUSH2 0x9E7 DUP4 PUSH2 0x866 JUMP JUMPDEST SWAP3 POP DUP3 DUP3 ADD SWAP1 POP DUP1 DUP3 GT ISZERO PUSH2 0x9FF JUMPI PUSH2 0x9FE PUSH2 0x9A2 JUMP JUMPDEST JUMPDEST SWAP3 SWAP2 POP POP JUMP JUMPDEST PUSH32 0x4E487B7100000000000000000000000000000000000000000000000000000000 PUSH1 0x0 MSTORE PUSH1 0x12 PUSH1 0x4 MSTORE PUSH1 0x24 PUSH1 0x0 REVERT JUMPDEST PUSH1 0x0 PUSH2 0xA3F DUP3 PUSH2 0x866 JUMP JUMPDEST SWAP2 POP PUSH2 0xA4A DUP4 PUSH2 0x866 JUMP JUMPDEST SWAP3 POP DUP3 PUSH2 0xA5A JUMPI PUSH2 0xA59 PUSH2 0xA05 JUMP JUMPDEST JUMPDEST DUP3 DUP3 DIV SWAP1 POP SWAP3 SWAP2 POP POP JUMP JUMPDEST PUSH32 0x4E487B7100000000000000000000000000000000000000000000000000000000 PUSH1 0x0 MSTORE PUSH1 0x32 PUSH1 0x4 MSTORE PUSH1 0x24 PUSH1 0x0 REVERT JUMPDEST PUSH1 0x0 DUP2 SWAP1 POP SWAP3 SWAP2 POP POP JUMP JUMPDEST POP JUMP JUMPDEST PUSH1 0x0 PUSH2 0xAAF PUSH1 0x0 DUP4 PUSH2 0xA94 JUMP JUMPDEST SWAP2 POP PUSH2 0xABA DUP3 PUSH2 0xA9F JUMP JUMPDEST PUSH1 0x0 DUP3 ADD SWAP1 POP SWAP2 SWAP1 POP JUMP JUMPDEST PUSH1 0x0 PUSH2 0xAD0 DUP3 PUSH2 0xAA2 JUMP JUMPDEST SWAP2 POP DUP2 SWAP1 POP SWAP2 SWAP1 POP JUMP JUMPDEST PUSH32 0x4661696C656420746F2073656E64204574686572000000000000000000000000 PUSH1 0x0 DUP3 ADD MSTORE POP JUMP JUMPDEST PUSH1 0x0 PUSH2 0xB10 PUSH1 0x14 DUP4 PUSH2 0x8D0 JUMP JUMPDEST SWAP2 POP PUSH2 0xB1B DUP3 PUSH2 0xADA JUMP JUMPDEST PUSH1 0x20 DUP3 ADD SWAP1 POP SWAP2 SWAP1 POP JUMP JUMPDEST PUSH1 0x0 PUSH1 0x20 DUP3 ADD SWAP1 POP DUP2 DUP2 SUB PUSH1 0x0 DUP4 ADD MSTORE PUSH2 0xB3F DUP2 PUSH2 0xB03 JUMP JUMPDEST SWAP1 POP SWAP2 SWAP1 POP JUMP JUMPDEST PUSH1 0x0 PUSH2 0xB51 DUP3 PUSH2 0x866 JUMP JUMPDEST SWAP2 POP PUSH32 0xFFFFFFFFFFFFFFFFFFFFFFFFFFFFFFFFFFFFFFFFFFFFFFFFFFFFFFFFFFFFFFFF DUP3 SUB PUSH2 0xB83 JUMPI PUSH2 0xB82 PUSH2 0x9A2 JUMP JUMPDEST JUMPDEST PUSH1 0x1 DUP3 ADD SWAP1 POP SWAP2 SWAP1 POP JUMP INVALID LOG2 PUSH5 0x6970667358 0x22 SLT KECCAK256 0xC8 0xAD PUSH10 0xA029D99C70E14BC0CD1E STATICCALL 0xCD SLT INVALID MOD SGT CALLCODE GAS PUSH1 0x8E 0xB7 0xD0 0xEF GASPRICE 0xDB 0xC8 SWAP9 ADD CHAINID PUSH5 0x736F6C6343 STOP ADDMOD GT STOP CALLER "
				},
				"gasEstimates": {
					"creation": {
						"codeDepositCost": "602400",
						"executionCost": "infinite",
						"totalCost": "infinite"
					},
					"external": {
						"awayTeamBetAmount()": "2429",
						"betForResult(uint8)": "infinite",
						"completed()": "2493",
						"drawBetAmount()": "2495",
						"finalizeTheBet(uint8)": "infinite",
						"homeTeamBetAmount()": "2473",
						"manager()": "2512"
					},
					"internal": {
						"refundMoney(address[] storage pointer,uint256,address[] storage pointer,uint256)": "infinite",
						"sendMoneyToReceivers(address[] storage pointer,uint256)": "infinite"
					}
				},
				"methodIdentifiers": {
					"awayTeamBetAmount()": "707f00d3",
					"betForResult(uint8)": "5e42cf62",
					"completed()": "9d9a7fe9",
					"drawBetAmount()": "f32750ce",
					"finalizeTheBet(uint8)": "6af7a16e",
					"homeTeamBetAmount()": "d13abf62",
					"manager()": "481c6a75"
				}
			},
			"storageLayout": {
				"storage": [
					{
						"astId": 49,
						"contract": "src/contracts/bet_contract.sol:FootballBet",
						"label": "manager",
						"offset": 0,
						"slot": "0",
						"type": "t_address"
					},
					{
						"astId": 51,
						"contract": "src/contracts/bet_contract.sol:FootballBet",
						"label": "homeTeamBetAmount",
						"offset": 0,
						"slot": "1",
						"type": "t_uint256"
					},
					{
						"astId": 53,
						"contract": "src/contracts/bet_contract.sol:FootballBet",
						"label": "awayTeamBetAmount",
						"offset": 0,
						"slot": "2",
						"type": "t_uint256"
					},
					{
						"astId": 55,
						"contract": "src/contracts/bet_contract.sol:FootballBet",
						"label": "drawBetAmount",
						"offset": 0,
						"slot": "3",
						"type": "t_uint256"
					},
					{
						"astId": 58,
						"contract": "src/contracts/bet_contract.sol:FootballBet",
						"label": "homeTeamWinBettors",
						"offset": 0,
						"slot": "4",
						"type": "t_array(t_address)dyn_storage"
					},
					{
						"astId": 61,
						"contract": "src/contracts/bet_contract.sol:FootballBet",
						"label": "awayTeamWinBettors",
						"offset": 0,
						"slot": "5",
						"type": "t_array(t_address)dyn_storage"
					},
					{
						"astId": 64,
						"contract": "src/contracts/bet_contract.sol:FootballBet",
						"label": "drawBettors",
						"offset": 0,
						"slot": "6",
						"type": "t_array(t_address)dyn_storage"
					},
					{
						"astId": 66,
						"contract": "src/contracts/bet_contract.sol:FootballBet",
						"label": "completed",
						"offset": 0,
						"slot": "7",
						"type": "t_bool"
					}
				],
				"types": {
					"t_address": {
						"encoding": "inplace",
						"label": "address",
						"numberOfBytes": "20"
					},
					"t_array(t_address)dyn_storage": {
						"base": "t_address",
						"encoding": "dynamic_array",
						"label": "address[]",
						"numberOfBytes": "32"
					},
					"t_bool": {
						"encoding": "inplace",
						"label": "bool",
						"numberOfBytes": "1"
					},
					"t_uint256": {
						"encoding": "inplace",
						"label": "uint256",
						"numberOfBytes": "32"
					}
				}
			},
			"userdoc": {
				"kind": "user",
				"methods": {},
				"version": 1
			}
		}
	}
}