{
	"src/contracts/bet_contract.sol": {
		"FootballBet": {
			"abi": [
				{
					"inputs": [
						{
							"internalType": "uint256",
							"name": "_matchId",
							"type": "uint256"
						}
					],
					"stateMutability": "nonpayable",
					"type": "constructor"
				},
				{
					"inputs": [],
					"name": "awayTeamBetAmount",
					"outputs": [
						{
							"internalType": "uint256",
							"name": "",
							"type": "uint256"
						}
					],
					"stateMutability": "view",
					"type": "function"
				},
				{
					"inputs": [
						{
							"internalType": "enum FootballBet.MatchResult",
							"name": "result",
							"type": "uint8"
						}
					],
					"name": "betForResult",
					"outputs": [],
					"stateMutability": "payable",
					"type": "function"
				},
				{
					"inputs": [],
					"name": "completed",
					"outputs": [
						{
							"internalType": "bool",
							"name": "",
							"type": "bool"
						}
					],
					"stateMutability": "view",
					"type": "function"
				},
				{
					"inputs": [],
					"name": "drawBetAmount",
					"outputs": [
						{
							"internalType": "uint256",
							"name": "",
							"type": "uint256"
						}
					],
					"stateMutability": "view",
					"type": "function"
				},
				{
					"inputs": [
						{
							"internalType": "enum FootballBet.MatchResult",
							"name": "result",
							"type": "uint8"
						}
					],
					"name": "finalizeTheBet",
					"outputs": [],
					"stateMutability": "nonpayable",
					"type": "function"
				},
				{
					"inputs": [],
					"name": "homeTeamBetAmount",
					"outputs": [
						{
							"internalType": "uint256",
							"name": "",
							"type": "uint256"
						}
					],
					"stateMutability": "view",
					"type": "function"
				},
				{
					"inputs": [],
					"name": "manager",
					"outputs": [
						{
							"internalType": "address",
							"name": "",
							"type": "address"
						}
					],
					"stateMutability": "view",
					"type": "function"
				},
				{
					"inputs": [],
					"name": "matchId",
					"outputs": [
						{
							"internalType": "uint256",
							"name": "",
							"type": "uint256"
						}
					],
					"stateMutability": "view",
					"type": "function"
				}
			],
			"devdoc": {
				"kind": "dev",
				"methods": {},
				"version": 1
			},
			"evm": {
				"assembly": "    /* \"src/contracts/bet_contract.sol\":58:3264  contract FootballBet {... */\n  mstore(0x40, 0x80)\n    /* \"src/contracts/bet_contract.sol\":522:614  constructor(uint _matchId) {... */\n  callvalue\n  dup1\n  iszero\n  tag_1\n  jumpi\n  0x00\n  dup1\n  revert\ntag_1:\n  pop\n  mload(0x40)\n  sub(codesize, bytecodeSize)\n  dup1\n  bytecodeSize\n  dup4\n  codecopy\n  dup2\n  dup2\n  add\n  0x40\n  mstore\n  dup2\n  add\n  swap1\n  tag_2\n  swap2\n  swap1\n  tag_3\n  jump\t// in\ntag_2:\n    /* \"src/contracts/bet_contract.sol\":569:577  _matchId */\n  dup1\n    /* \"src/contracts/bet_contract.sol\":559:566  matchId */\n  0x01\n    /* \"src/contracts/bet_contract.sol\":559:577  matchId = _matchId */\n  dup2\n  swap1\n  sstore\n  pop\n    /* \"src/contracts/bet_contract.sol\":597:607  msg.sender */\n  caller\n    /* \"src/contracts/bet_contract.sol\":587:594  manager */\n  0x00\n  dup1\n    /* \"src/contracts/bet_contract.sol\":587:607  manager = msg.sender */\n  0x0100\n  exp\n  dup2\n  sload\n  dup2\n  0xffffffffffffffffffffffffffffffffffffffff\n  mul\n  not\n  and\n  swap1\n  dup4\n  0xffffffffffffffffffffffffffffffffffffffff\n  and\n  mul\n  or\n  swap1\n  sstore\n  pop\n    /* \"src/contracts/bet_contract.sol\":522:614  constructor(uint _matchId) {... */\n  pop\n    /* \"src/contracts/bet_contract.sol\":58:3264  contract FootballBet {... */\n  jump(tag_6)\n    /* \"#utility.yul\":88:205   */\ntag_8:\n    /* \"#utility.yul\":197:198   */\n  0x00\n    /* \"#utility.yul\":194:195   */\n  dup1\n    /* \"#utility.yul\":187:199   */\n  revert\n    /* \"#utility.yul\":334:411   */\ntag_10:\n    /* \"#utility.yul\":371:378   */\n  0x00\n    /* \"#utility.yul\":400:405   */\n  dup2\n    /* \"#utility.yul\":389:405   */\n  swap1\n  pop\n    /* \"#utility.yul\":334:411   */\n  swap2\n  swap1\n  pop\n  jump\t// out\n    /* \"#utility.yul\":417:539   */\ntag_11:\n    /* \"#utility.yul\":490:514   */\n  tag_19\n    /* \"#utility.yul\":508:513   */\n  dup2\n    /* \"#utility.yul\":490:514   */\n  tag_10\n  jump\t// in\ntag_19:\n    /* \"#utility.yul\":483:488   */\n  dup2\n    /* \"#utility.yul\":480:515   */\n  eq\n    /* \"#utility.yul\":470:533   */\n  tag_20\n  jumpi\n    /* \"#utility.yul\":529:530   */\n  0x00\n    /* \"#utility.yul\":526:527   */\n  dup1\n    /* \"#utility.yul\":519:531   */\n  revert\n    /* \"#utility.yul\":470:533   */\ntag_20:\n    /* \"#utility.yul\":417:539   */\n  pop\n  jump\t// out\n    /* \"#utility.yul\":545:688   */\ntag_12:\n    /* \"#utility.yul\":602:607   */\n  0x00\n    /* \"#utility.yul\":633:639   */\n  dup2\n    /* \"#utility.yul\":627:640   */\n  mload\n    /* \"#utility.yul\":618:640   */\n  swap1\n  pop\n    /* \"#utility.yul\":649:682   */\n  tag_22\n    /* \"#utility.yul\":676:681   */\n  dup2\n    /* \"#utility.yul\":649:682   */\n  tag_11\n  jump\t// in\ntag_22:\n    /* \"#utility.yul\":545:688   */\n  swap3\n  swap2\n  pop\n  pop\n  jump\t// out\n    /* \"#utility.yul\":694:1045   */\ntag_3:\n    /* \"#utility.yul\":764:770   */\n  0x00\n    /* \"#utility.yul\":813:815   */\n  0x20\n    /* \"#utility.yul\":801:810   */\n  dup3\n    /* \"#utility.yul\":792:799   */\n  dup5\n    /* \"#utility.yul\":788:811   */\n  sub\n    /* \"#utility.yul\":784:816   */\n  slt\n    /* \"#utility.yul\":781:900   */\n  iszero\n  tag_24\n  jumpi\n    /* \"#utility.yul\":819:898   */\n  tag_25\n  tag_8\n  jump\t// in\ntag_25:\n    /* \"#utility.yul\":781:900   */\ntag_24:\n    /* \"#utility.yul\":939:940   */\n  0x00\n    /* \"#utility.yul\":964:1028   */\n  tag_26\n    /* \"#utility.yul\":1020:1027   */\n  dup5\n    /* \"#utility.yul\":1011:1017   */\n  dup3\n    /* \"#utility.yul\":1000:1009   */\n  dup6\n    /* \"#utility.yul\":996:1018   */\n  add\n    /* \"#utility.yul\":964:1028   */\n  tag_12\n  jump\t// in\ntag_26:\n    /* \"#utility.yul\":954:1028   */\n  swap2\n  pop\n    /* \"#utility.yul\":910:1038   */\n  pop\n    /* \"#utility.yul\":694:1045   */\n  swap3\n  swap2\n  pop\n  pop\n  jump\t// out\n    /* \"src/contracts/bet_contract.sol\":58:3264  contract FootballBet {... */\ntag_6:\n  dataSize(sub_0)\n  dup1\n  dataOffset(sub_0)\n  0x00\n  codecopy\n  0x00\n  return\nstop\n\nsub_0: assembly {\n        /* \"src/contracts/bet_contract.sol\":58:3264  contract FootballBet {... */\n      mstore(0x40, 0x80)\n      jumpi(tag_1, lt(calldatasize, 0x04))\n      shr(0xe0, calldataload(0x00))\n      dup1\n      0x99892e47\n      gt\n      tag_10\n      jumpi\n      dup1\n      0x99892e47\n      eq\n      tag_6\n      jumpi\n      dup1\n      0x9d9a7fe9\n      eq\n      tag_7\n      jumpi\n      dup1\n      0xd13abf62\n      eq\n      tag_8\n      jumpi\n      dup1\n      0xf32750ce\n      eq\n      tag_9\n      jumpi\n      jump(tag_1)\n    tag_10:\n      dup1\n      0x481c6a75\n      eq\n      tag_2\n      jumpi\n      dup1\n      0x5e42cf62\n      eq\n      tag_3\n      jumpi\n      dup1\n      0x6af7a16e\n      eq\n      tag_4\n      jumpi\n      dup1\n      0x707f00d3\n      eq\n      tag_5\n      jumpi\n    tag_1:\n      0x00\n      dup1\n      revert\n        /* \"src/contracts/bet_contract.sol\":135:157  address public manager */\n    tag_2:\n      callvalue\n      dup1\n      iszero\n      tag_11\n      jumpi\n      0x00\n      dup1\n      revert\n    tag_11:\n      pop\n      tag_12\n      tag_13\n      jump\t// in\n    tag_12:\n      mload(0x40)\n      tag_14\n      swap2\n      swap1\n      tag_15\n      jump\t// in\n    tag_14:\n      mload(0x40)\n      dup1\n      swap2\n      sub\n      swap1\n      return\n        /* \"src/contracts/bet_contract.sol\":620:1149  function betForResult(MatchResult result) public payable {... */\n    tag_3:\n      tag_16\n      0x04\n      dup1\n      calldatasize\n      sub\n      dup2\n      add\n      swap1\n      tag_17\n      swap2\n      swap1\n      tag_18\n      jump\t// in\n    tag_17:\n      tag_19\n      jump\t// in\n    tag_16:\n      stop\n        /* \"src/contracts/bet_contract.sol\":1155:2932  function finalizeTheBet(MatchResult result) public restricted {... */\n    tag_4:\n      callvalue\n      dup1\n      iszero\n      tag_20\n      jumpi\n      0x00\n      dup1\n      revert\n    tag_20:\n      pop\n      tag_21\n      0x04\n      dup1\n      calldatasize\n      sub\n      dup2\n      add\n      swap1\n      tag_22\n      swap2\n      swap1\n      tag_18\n      jump\t// in\n    tag_22:\n      tag_23\n      jump\t// in\n    tag_21:\n      stop\n        /* \"src/contracts/bet_contract.sol\":223:252  uint public awayTeamBetAmount */\n    tag_5:\n      callvalue\n      dup1\n      iszero\n      tag_24\n      jumpi\n      0x00\n      dup1\n      revert\n    tag_24:\n      pop\n      tag_25\n      tag_26\n      jump\t// in\n    tag_25:\n      mload(0x40)\n      tag_27\n      swap2\n      swap1\n      tag_28\n      jump\t// in\n    tag_27:\n      mload(0x40)\n      dup1\n      swap2\n      sub\n      swap1\n      return\n        /* \"src/contracts/bet_contract.sol\":163:182  uint public matchId */\n    tag_6:\n      callvalue\n      dup1\n      iszero\n      tag_29\n      jumpi\n      0x00\n      dup1\n      revert\n    tag_29:\n      pop\n      tag_30\n      tag_31\n      jump\t// in\n    tag_30:\n      mload(0x40)\n      tag_32\n      swap2\n      swap1\n      tag_28\n      jump\t// in\n    tag_32:\n      mload(0x40)\n      dup1\n      swap2\n      sub\n      swap1\n      return\n        /* \"src/contracts/bet_contract.sol\":408:429  bool public completed */\n    tag_7:\n      callvalue\n      dup1\n      iszero\n      tag_33\n      jumpi\n      0x00\n      dup1\n      revert\n    tag_33:\n      pop\n      tag_34\n      tag_35\n      jump\t// in\n    tag_34:\n      mload(0x40)\n      tag_36\n      swap2\n      swap1\n      tag_37\n      jump\t// in\n    tag_36:\n      mload(0x40)\n      dup1\n      swap2\n      sub\n      swap1\n      return\n        /* \"src/contracts/bet_contract.sol\":188:217  uint public homeTeamBetAmount */\n    tag_8:\n      callvalue\n      dup1\n      iszero\n      tag_38\n      jumpi\n      0x00\n      dup1\n      revert\n    tag_38:\n      pop\n      tag_39\n      tag_40\n      jump\t// in\n    tag_39:\n      mload(0x40)\n      tag_41\n      swap2\n      swap1\n      tag_28\n      jump\t// in\n    tag_41:\n      mload(0x40)\n      dup1\n      swap2\n      sub\n      swap1\n      return\n        /* \"src/contracts/bet_contract.sol\":258:283  uint public drawBetAmount */\n    tag_9:\n      callvalue\n      dup1\n      iszero\n      tag_42\n      jumpi\n      0x00\n      dup1\n      revert\n    tag_42:\n      pop\n      tag_43\n      tag_44\n      jump\t// in\n    tag_43:\n      mload(0x40)\n      tag_45\n      swap2\n      swap1\n      tag_28\n      jump\t// in\n    tag_45:\n      mload(0x40)\n      dup1\n      swap2\n      sub\n      swap1\n      return\n        /* \"src/contracts/bet_contract.sol\":135:157  address public manager */\n    tag_13:\n      0x00\n      dup1\n      sload\n      swap1\n      0x0100\n      exp\n      swap1\n      div\n      0xffffffffffffffffffffffffffffffffffffffff\n      and\n      dup2\n      jump\t// out\n        /* \"src/contracts/bet_contract.sol\":620:1149  function betForResult(MatchResult result) public payable {... */\n    tag_19:\n        /* \"src/contracts/bet_contract.sol\":707:708  0 */\n      0x00\n        /* \"src/contracts/bet_contract.sol\":695:704  msg.value */\n      callvalue\n        /* \"src/contracts/bet_contract.sol\":695:708  msg.value > 0 */\n      gt\n        /* \"src/contracts/bet_contract.sol\":687:748  require(msg.value > 0, \"Bet value must be greater than zero\") */\n      tag_47\n      jumpi\n      mload(0x40)\n      0x08c379a000000000000000000000000000000000000000000000000000000000\n      dup2\n      mstore\n      0x04\n      add\n      tag_48\n      swap1\n      tag_49\n      jump\t// in\n    tag_48:\n      mload(0x40)\n      dup1\n      swap2\n      sub\n      swap1\n      revert\n    tag_47:\n        /* \"src/contracts/bet_contract.sol\":772:792  MatchResult.HOME_WIN */\n      0x00\n        /* \"src/contracts/bet_contract.sol\":762:792  result == MatchResult.HOME_WIN */\n      0x02\n      dup2\n      gt\n      iszero\n      tag_50\n      jumpi\n      tag_51\n      tag_52\n      jump\t// in\n    tag_51:\n    tag_50:\n        /* \"src/contracts/bet_contract.sol\":762:768  result */\n      dup2\n        /* \"src/contracts/bet_contract.sol\":762:792  result == MatchResult.HOME_WIN */\n      0x02\n      dup2\n      gt\n      iszero\n      tag_53\n      jumpi\n      tag_54\n      tag_52\n      jump\t// in\n    tag_54:\n    tag_53:\n      sub\n        /* \"src/contracts/bet_contract.sol\":758:1143  if (result == MatchResult.HOME_WIN) {... */\n      tag_55\n      jumpi\n        /* \"src/contracts/bet_contract.sol\":829:838  msg.value */\n      callvalue\n        /* \"src/contracts/bet_contract.sol\":808:825  homeTeamBetAmount */\n      0x02\n      0x00\n        /* \"src/contracts/bet_contract.sol\":808:838  homeTeamBetAmount += msg.value */\n      dup3\n      dup3\n      sload\n      tag_56\n      swap2\n      swap1\n      tag_57\n      jump\t// in\n    tag_56:\n      swap3\n      pop\n      pop\n      dup2\n      swap1\n      sstore\n      pop\n        /* \"src/contracts/bet_contract.sol\":852:870  homeTeamWinBettors */\n      0x05\n        /* \"src/contracts/bet_contract.sol\":876:886  msg.sender */\n      caller\n        /* \"src/contracts/bet_contract.sol\":852:887  homeTeamWinBettors.push(msg.sender) */\n      swap1\n      dup1\n      0x01\n      dup2\n      sload\n      add\n      dup1\n      dup3\n      sstore\n      dup1\n      swap2\n      pop\n      pop\n      0x01\n      swap1\n      sub\n      swap1\n      0x00\n      mstore\n      keccak256(0x00, 0x20)\n      add\n      0x00\n      swap1\n      swap2\n      swap1\n      swap2\n      swap1\n      swap2\n      0x0100\n      exp\n      dup2\n      sload\n      dup2\n      0xffffffffffffffffffffffffffffffffffffffff\n      mul\n      not\n      and\n      swap1\n      dup4\n      0xffffffffffffffffffffffffffffffffffffffff\n      and\n      mul\n      or\n      swap1\n      sstore\n      pop\n        /* \"src/contracts/bet_contract.sol\":758:1143  if (result == MatchResult.HOME_WIN) {... */\n      jump(tag_59)\n    tag_55:\n        /* \"src/contracts/bet_contract.sol\":918:938  MatchResult.AWAY_WIN */\n      0x01\n        /* \"src/contracts/bet_contract.sol\":908:938  result == MatchResult.AWAY_WIN */\n      0x02\n      dup2\n      gt\n      iszero\n      tag_60\n      jumpi\n      tag_61\n      tag_52\n      jump\t// in\n    tag_61:\n    tag_60:\n        /* \"src/contracts/bet_contract.sol\":908:914  result */\n      dup2\n        /* \"src/contracts/bet_contract.sol\":908:938  result == MatchResult.AWAY_WIN */\n      0x02\n      dup2\n      gt\n      iszero\n      tag_62\n      jumpi\n      tag_63\n      tag_52\n      jump\t// in\n    tag_63:\n    tag_62:\n      sub\n        /* \"src/contracts/bet_contract.sol\":904:1143  if (result == MatchResult.AWAY_WIN) {... */\n      tag_64\n      jumpi\n        /* \"src/contracts/bet_contract.sol\":975:984  msg.value */\n      callvalue\n        /* \"src/contracts/bet_contract.sol\":954:971  awayTeamBetAmount */\n      0x03\n      0x00\n        /* \"src/contracts/bet_contract.sol\":954:984  awayTeamBetAmount += msg.value */\n      dup3\n      dup3\n      sload\n      tag_65\n      swap2\n      swap1\n      tag_57\n      jump\t// in\n    tag_65:\n      swap3\n      pop\n      pop\n      dup2\n      swap1\n      sstore\n      pop\n        /* \"src/contracts/bet_contract.sol\":998:1016  homeTeamWinBettors */\n      0x05\n        /* \"src/contracts/bet_contract.sol\":1022:1032  msg.sender */\n      caller\n        /* \"src/contracts/bet_contract.sol\":998:1033  homeTeamWinBettors.push(msg.sender) */\n      swap1\n      dup1\n      0x01\n      dup2\n      sload\n      add\n      dup1\n      dup3\n      sstore\n      dup1\n      swap2\n      pop\n      pop\n      0x01\n      swap1\n      sub\n      swap1\n      0x00\n      mstore\n      keccak256(0x00, 0x20)\n      add\n      0x00\n      swap1\n      swap2\n      swap1\n      swap2\n      swap1\n      swap2\n      0x0100\n      exp\n      dup2\n      sload\n      dup2\n      0xffffffffffffffffffffffffffffffffffffffff\n      mul\n      not\n      and\n      swap1\n      dup4\n      0xffffffffffffffffffffffffffffffffffffffff\n      and\n      mul\n      or\n      swap1\n      sstore\n      pop\n        /* \"src/contracts/bet_contract.sol\":904:1143  if (result == MatchResult.AWAY_WIN) {... */\n      jump(tag_67)\n    tag_64:\n        /* \"src/contracts/bet_contract.sol\":1081:1090  msg.value */\n      callvalue\n        /* \"src/contracts/bet_contract.sol\":1064:1077  drawBetAmount */\n      0x04\n      0x00\n        /* \"src/contracts/bet_contract.sol\":1064:1090  drawBetAmount += msg.value */\n      dup3\n      dup3\n      sload\n      tag_68\n      swap2\n      swap1\n      tag_57\n      jump\t// in\n    tag_68:\n      swap3\n      pop\n      pop\n      dup2\n      swap1\n      sstore\n      pop\n        /* \"src/contracts/bet_contract.sol\":1104:1115  drawBettors */\n      0x07\n        /* \"src/contracts/bet_contract.sol\":1121:1131  msg.sender */\n      caller\n        /* \"src/contracts/bet_contract.sol\":1104:1132  drawBettors.push(msg.sender) */\n      swap1\n      dup1\n      0x01\n      dup2\n      sload\n      add\n      dup1\n      dup3\n      sstore\n      dup1\n      swap2\n      pop\n      pop\n      0x01\n      swap1\n      sub\n      swap1\n      0x00\n      mstore\n      keccak256(0x00, 0x20)\n      add\n      0x00\n      swap1\n      swap2\n      swap1\n      swap2\n      swap1\n      swap2\n      0x0100\n      exp\n      dup2\n      sload\n      dup2\n      0xffffffffffffffffffffffffffffffffffffffff\n      mul\n      not\n      and\n      swap1\n      dup4\n      0xffffffffffffffffffffffffffffffffffffffff\n      and\n      mul\n      or\n      swap1\n      sstore\n      pop\n        /* \"src/contracts/bet_contract.sol\":904:1143  if (result == MatchResult.AWAY_WIN) {... */\n    tag_67:\n        /* \"src/contracts/bet_contract.sol\":758:1143  if (result == MatchResult.HOME_WIN) {... */\n    tag_59:\n        /* \"src/contracts/bet_contract.sol\":620:1149  function betForResult(MatchResult result) public payable {... */\n      pop\n      jump\t// out\n        /* \"src/contracts/bet_contract.sol\":1155:2932  function finalizeTheBet(MatchResult result) public restricted {... */\n    tag_23:\n        /* \"src/contracts/bet_contract.sol\":490:497  manager */\n      0x00\n      dup1\n      sload\n      swap1\n      0x0100\n      exp\n      swap1\n      div\n      0xffffffffffffffffffffffffffffffffffffffff\n      and\n        /* \"src/contracts/bet_contract.sol\":476:497  msg.sender == manager */\n      0xffffffffffffffffffffffffffffffffffffffff\n      and\n        /* \"src/contracts/bet_contract.sol\":476:486  msg.sender */\n      caller\n        /* \"src/contracts/bet_contract.sol\":476:497  msg.sender == manager */\n      0xffffffffffffffffffffffffffffffffffffffff\n      and\n      eq\n        /* \"src/contracts/bet_contract.sol\":468:498  require(msg.sender == manager) */\n      tag_71\n      jumpi\n      0x00\n      dup1\n      revert\n    tag_71:\n        /* \"src/contracts/bet_contract.sol\":1227:1246  uint willSendAmount */\n      0x00\n        /* \"src/contracts/bet_contract.sol\":1260:1287  address[] storage receivers */\n      dup1\n        /* \"src/contracts/bet_contract.sol\":1426:1446  MatchResult.HOME_WIN */\n      dup1\n        /* \"src/contracts/bet_contract.sol\":1416:1446  result == MatchResult.HOME_WIN */\n      0x02\n      dup2\n      gt\n      iszero\n      tag_73\n      jumpi\n      tag_74\n      tag_52\n      jump\t// in\n    tag_74:\n    tag_73:\n        /* \"src/contracts/bet_contract.sol\":1416:1422  result */\n      dup4\n        /* \"src/contracts/bet_contract.sol\":1416:1446  result == MatchResult.HOME_WIN */\n      0x02\n      dup2\n      gt\n      iszero\n      tag_75\n      jumpi\n      tag_76\n      tag_52\n      jump\t// in\n    tag_76:\n    tag_75:\n      sub\n        /* \"src/contracts/bet_contract.sol\":1412:2869  if (result == MatchResult.HOME_WIN) {... */\n      tag_77\n      jumpi\n        /* \"src/contracts/bet_contract.sol\":1494:1495  0 */\n      0x00\n        /* \"src/contracts/bet_contract.sol\":1466:1484  homeTeamWinBettors */\n      0x05\n        /* \"src/contracts/bet_contract.sol\":1466:1491  homeTeamWinBettors.length */\n      dup1\n      sload\n      swap1\n      pop\n        /* \"src/contracts/bet_contract.sol\":1466:1495  homeTeamWinBettors.length > 0 */\n      gt\n        /* \"src/contracts/bet_contract.sol\":1462:1895  if (homeTeamWinBettors.length > 0) {... */\n      iszero\n      tag_78\n      jumpi\n        /* \"src/contracts/bet_contract.sol\":1570:1588  homeTeamWinBettors */\n      0x05\n        /* \"src/contracts/bet_contract.sol\":1570:1595  homeTeamWinBettors.length */\n      dup1\n      sload\n      swap1\n      pop\n        /* \"src/contracts/bet_contract.sol\":1553:1566  drawBetAmount */\n      sload(0x04)\n        /* \"src/contracts/bet_contract.sol\":1533:1550  awayTeamBetAmount */\n      sload(0x03)\n        /* \"src/contracts/bet_contract.sol\":1533:1566  awayTeamBetAmount + drawBetAmount */\n      tag_79\n      swap2\n      swap1\n      tag_57\n      jump\t// in\n    tag_79:\n        /* \"src/contracts/bet_contract.sol\":1532:1595  (awayTeamBetAmount + drawBetAmount) / homeTeamWinBettors.length */\n      tag_80\n      swap2\n      swap1\n      tag_81\n      jump\t// in\n    tag_80:\n        /* \"src/contracts/bet_contract.sol\":1515:1595  willSendAmount = (awayTeamBetAmount + drawBetAmount) / homeTeamWinBettors.length */\n      swap2\n      pop\n        /* \"src/contracts/bet_contract.sol\":1625:1643  homeTeamWinBettors */\n      0x05\n        /* \"src/contracts/bet_contract.sol\":1613:1643  receivers = homeTeamWinBettors */\n      swap1\n      pop\n        /* \"src/contracts/bet_contract.sol\":1462:1895  if (homeTeamWinBettors.length > 0) {... */\n      jump(tag_82)\n    tag_78:\n        /* \"src/contracts/bet_contract.sol\":1682:1769  sendMoneyToReceivers(awayTeamWinBettors, awayTeamBetAmount / awayTeamWinBettors.length) */\n      tag_83\n        /* \"src/contracts/bet_contract.sol\":1703:1721  awayTeamWinBettors */\n      0x06\n        /* \"src/contracts/bet_contract.sol\":1743:1761  awayTeamWinBettors */\n      dup1\n        /* \"src/contracts/bet_contract.sol\":1743:1768  awayTeamWinBettors.length */\n      dup1\n      sload\n      swap1\n      pop\n        /* \"src/contracts/bet_contract.sol\":1723:1740  awayTeamBetAmount */\n      sload(0x03)\n        /* \"src/contracts/bet_contract.sol\":1723:1768  awayTeamBetAmount / awayTeamWinBettors.length */\n      tag_84\n      swap2\n      swap1\n      tag_81\n      jump\t// in\n    tag_84:\n        /* \"src/contracts/bet_contract.sol\":1682:1702  sendMoneyToReceivers */\n      tag_85\n        /* \"src/contracts/bet_contract.sol\":1682:1769  sendMoneyToReceivers(awayTeamWinBettors, awayTeamBetAmount / awayTeamWinBettors.length) */\n      jump\t// in\n    tag_83:\n        /* \"src/contracts/bet_contract.sol\":1787:1856  sendMoneyToReceivers(drawBettors, drawBetAmount / drawBettors.length) */\n      tag_86\n        /* \"src/contracts/bet_contract.sol\":1808:1819  drawBettors */\n      0x07\n        /* \"src/contracts/bet_contract.sol\":1837:1848  drawBettors */\n      dup1\n        /* \"src/contracts/bet_contract.sol\":1837:1855  drawBettors.length */\n      dup1\n      sload\n      swap1\n      pop\n        /* \"src/contracts/bet_contract.sol\":1821:1834  drawBetAmount */\n      sload(0x04)\n        /* \"src/contracts/bet_contract.sol\":1821:1855  drawBetAmount / drawBettors.length */\n      tag_87\n      swap2\n      swap1\n      tag_81\n      jump\t// in\n    tag_87:\n        /* \"src/contracts/bet_contract.sol\":1787:1807  sendMoneyToReceivers */\n      tag_85\n        /* \"src/contracts/bet_contract.sol\":1787:1856  sendMoneyToReceivers(drawBettors, drawBetAmount / drawBettors.length) */\n      jump\t// in\n    tag_86:\n        /* \"src/contracts/bet_contract.sol\":1874:1881  return; */\n      pop\n      pop\n      jump(tag_72)\n        /* \"src/contracts/bet_contract.sol\":1462:1895  if (homeTeamWinBettors.length > 0) {... */\n    tag_82:\n        /* \"src/contracts/bet_contract.sol\":1412:2869  if (result == MatchResult.HOME_WIN) {... */\n      jump(tag_88)\n    tag_77:\n        /* \"src/contracts/bet_contract.sol\":1926:1946  MatchResult.AWAY_WIN */\n      0x01\n        /* \"src/contracts/bet_contract.sol\":1916:1946  result == MatchResult.AWAY_WIN */\n      0x02\n      dup2\n      gt\n      iszero\n      tag_89\n      jumpi\n      tag_90\n      tag_52\n      jump\t// in\n    tag_90:\n    tag_89:\n        /* \"src/contracts/bet_contract.sol\":1916:1922  result */\n      dup4\n        /* \"src/contracts/bet_contract.sol\":1916:1946  result == MatchResult.AWAY_WIN */\n      0x02\n      dup2\n      gt\n      iszero\n      tag_91\n      jumpi\n      tag_92\n      tag_52\n      jump\t// in\n    tag_92:\n    tag_91:\n      sub\n        /* \"src/contracts/bet_contract.sol\":1912:2869  if (result == MatchResult.AWAY_WIN) {... */\n      tag_93\n      jumpi\n        /* \"src/contracts/bet_contract.sol\":1994:1995  0 */\n      0x00\n        /* \"src/contracts/bet_contract.sol\":1966:1984  awayTeamWinBettors */\n      0x06\n        /* \"src/contracts/bet_contract.sol\":1966:1991  awayTeamWinBettors.length */\n      dup1\n      sload\n      swap1\n      pop\n        /* \"src/contracts/bet_contract.sol\":1966:1995  awayTeamWinBettors.length > 0 */\n      gt\n        /* \"src/contracts/bet_contract.sol\":1962:2395  if (awayTeamWinBettors.length > 0) {... */\n      iszero\n      tag_94\n      jumpi\n        /* \"src/contracts/bet_contract.sol\":2070:2088  awayTeamWinBettors */\n      0x06\n        /* \"src/contracts/bet_contract.sol\":2070:2095  awayTeamWinBettors.length */\n      dup1\n      sload\n      swap1\n      pop\n        /* \"src/contracts/bet_contract.sol\":2053:2066  drawBetAmount */\n      sload(0x04)\n        /* \"src/contracts/bet_contract.sol\":2033:2050  homeTeamBetAmount */\n      sload(0x02)\n        /* \"src/contracts/bet_contract.sol\":2033:2066  homeTeamBetAmount + drawBetAmount */\n      tag_95\n      swap2\n      swap1\n      tag_57\n      jump\t// in\n    tag_95:\n        /* \"src/contracts/bet_contract.sol\":2032:2095  (homeTeamBetAmount + drawBetAmount) / awayTeamWinBettors.length */\n      tag_96\n      swap2\n      swap1\n      tag_81\n      jump\t// in\n    tag_96:\n        /* \"src/contracts/bet_contract.sol\":2015:2095  willSendAmount = (homeTeamBetAmount + drawBetAmount) / awayTeamWinBettors.length */\n      swap2\n      pop\n        /* \"src/contracts/bet_contract.sol\":2125:2143  awayTeamWinBettors */\n      0x06\n        /* \"src/contracts/bet_contract.sol\":2113:2143  receivers = awayTeamWinBettors */\n      swap1\n      pop\n        /* \"src/contracts/bet_contract.sol\":1962:2395  if (awayTeamWinBettors.length > 0) {... */\n      jump(tag_97)\n    tag_94:\n        /* \"src/contracts/bet_contract.sol\":2182:2269  sendMoneyToReceivers(homeTeamWinBettors, homeTeamBetAmount / homeTeamWinBettors.length) */\n      tag_98\n        /* \"src/contracts/bet_contract.sol\":2203:2221  homeTeamWinBettors */\n      0x05\n        /* \"src/contracts/bet_contract.sol\":2243:2261  homeTeamWinBettors */\n      dup1\n        /* \"src/contracts/bet_contract.sol\":2243:2268  homeTeamWinBettors.length */\n      dup1\n      sload\n      swap1\n      pop\n        /* \"src/contracts/bet_contract.sol\":2223:2240  homeTeamBetAmount */\n      sload(0x02)\n        /* \"src/contracts/bet_contract.sol\":2223:2268  homeTeamBetAmount / homeTeamWinBettors.length */\n      tag_99\n      swap2\n      swap1\n      tag_81\n      jump\t// in\n    tag_99:\n        /* \"src/contracts/bet_contract.sol\":2182:2202  sendMoneyToReceivers */\n      tag_85\n        /* \"src/contracts/bet_contract.sol\":2182:2269  sendMoneyToReceivers(homeTeamWinBettors, homeTeamBetAmount / homeTeamWinBettors.length) */\n      jump\t// in\n    tag_98:\n        /* \"src/contracts/bet_contract.sol\":2287:2356  sendMoneyToReceivers(drawBettors, drawBetAmount / drawBettors.length) */\n      tag_100\n        /* \"src/contracts/bet_contract.sol\":2308:2319  drawBettors */\n      0x07\n        /* \"src/contracts/bet_contract.sol\":2337:2348  drawBettors */\n      dup1\n        /* \"src/contracts/bet_contract.sol\":2337:2355  drawBettors.length */\n      dup1\n      sload\n      swap1\n      pop\n        /* \"src/contracts/bet_contract.sol\":2321:2334  drawBetAmount */\n      sload(0x04)\n        /* \"src/contracts/bet_contract.sol\":2321:2355  drawBetAmount / drawBettors.length */\n      tag_101\n      swap2\n      swap1\n      tag_81\n      jump\t// in\n    tag_101:\n        /* \"src/contracts/bet_contract.sol\":2287:2307  sendMoneyToReceivers */\n      tag_85\n        /* \"src/contracts/bet_contract.sol\":2287:2356  sendMoneyToReceivers(drawBettors, drawBetAmount / drawBettors.length) */\n      jump\t// in\n    tag_100:\n        /* \"src/contracts/bet_contract.sol\":2374:2381  return; */\n      pop\n      pop\n      jump(tag_72)\n        /* \"src/contracts/bet_contract.sol\":1962:2395  if (awayTeamWinBettors.length > 0) {... */\n    tag_97:\n        /* \"src/contracts/bet_contract.sol\":1912:2869  if (result == MatchResult.AWAY_WIN) {... */\n      jump(tag_102)\n    tag_93:\n        /* \"src/contracts/bet_contract.sol\":2450:2451  0 */\n      0x00\n        /* \"src/contracts/bet_contract.sol\":2429:2440  drawBettors */\n      0x07\n        /* \"src/contracts/bet_contract.sol\":2429:2447  drawBettors.length */\n      dup1\n      sload\n      swap1\n      pop\n        /* \"src/contracts/bet_contract.sol\":2429:2451  drawBettors.length > 0 */\n      gt\n        /* \"src/contracts/bet_contract.sol\":2425:2859  if (drawBettors.length > 0) {... */\n      iszero\n      tag_103\n      jumpi\n        /* \"src/contracts/bet_contract.sol\":2530:2541  drawBettors */\n      0x07\n        /* \"src/contracts/bet_contract.sol\":2530:2548  drawBettors.length */\n      dup1\n      sload\n      swap1\n      pop\n        /* \"src/contracts/bet_contract.sol\":2509:2526  awayTeamBetAmount */\n      sload(0x03)\n        /* \"src/contracts/bet_contract.sol\":2489:2506  homeTeamBetAmount */\n      sload(0x02)\n        /* \"src/contracts/bet_contract.sol\":2489:2526  homeTeamBetAmount + awayTeamBetAmount */\n      tag_104\n      swap2\n      swap1\n      tag_57\n      jump\t// in\n    tag_104:\n        /* \"src/contracts/bet_contract.sol\":2488:2548  (homeTeamBetAmount + awayTeamBetAmount) / drawBettors.length */\n      tag_105\n      swap2\n      swap1\n      tag_81\n      jump\t// in\n    tag_105:\n        /* \"src/contracts/bet_contract.sol\":2471:2548  willSendAmount = (homeTeamBetAmount + awayTeamBetAmount) / drawBettors.length */\n      swap2\n      pop\n        /* \"src/contracts/bet_contract.sol\":2578:2589  drawBettors */\n      0x07\n        /* \"src/contracts/bet_contract.sol\":2566:2589  receivers = drawBettors */\n      swap1\n      pop\n        /* \"src/contracts/bet_contract.sol\":2425:2859  if (drawBettors.length > 0) {... */\n      jump(tag_106)\n    tag_103:\n        /* \"src/contracts/bet_contract.sol\":2628:2715  sendMoneyToReceivers(homeTeamWinBettors, homeTeamBetAmount / homeTeamWinBettors.length) */\n      tag_107\n        /* \"src/contracts/bet_contract.sol\":2649:2667  homeTeamWinBettors */\n      0x05\n        /* \"src/contracts/bet_contract.sol\":2689:2707  homeTeamWinBettors */\n      dup1\n        /* \"src/contracts/bet_contract.sol\":2689:2714  homeTeamWinBettors.length */\n      dup1\n      sload\n      swap1\n      pop\n        /* \"src/contracts/bet_contract.sol\":2669:2686  homeTeamBetAmount */\n      sload(0x02)\n        /* \"src/contracts/bet_contract.sol\":2669:2714  homeTeamBetAmount / homeTeamWinBettors.length */\n      tag_108\n      swap2\n      swap1\n      tag_81\n      jump\t// in\n    tag_108:\n        /* \"src/contracts/bet_contract.sol\":2628:2648  sendMoneyToReceivers */\n      tag_85\n        /* \"src/contracts/bet_contract.sol\":2628:2715  sendMoneyToReceivers(homeTeamWinBettors, homeTeamBetAmount / homeTeamWinBettors.length) */\n      jump\t// in\n    tag_107:\n        /* \"src/contracts/bet_contract.sol\":2733:2820  sendMoneyToReceivers(awayTeamWinBettors, awayTeamBetAmount / awayTeamWinBettors.length) */\n      tag_109\n        /* \"src/contracts/bet_contract.sol\":2754:2772  awayTeamWinBettors */\n      0x06\n        /* \"src/contracts/bet_contract.sol\":2794:2812  awayTeamWinBettors */\n      dup1\n        /* \"src/contracts/bet_contract.sol\":2794:2819  awayTeamWinBettors.length */\n      dup1\n      sload\n      swap1\n      pop\n        /* \"src/contracts/bet_contract.sol\":2774:2791  awayTeamBetAmount */\n      sload(0x03)\n        /* \"src/contracts/bet_contract.sol\":2774:2819  awayTeamBetAmount / awayTeamWinBettors.length */\n      tag_110\n      swap2\n      swap1\n      tag_81\n      jump\t// in\n    tag_110:\n        /* \"src/contracts/bet_contract.sol\":2733:2753  sendMoneyToReceivers */\n      tag_85\n        /* \"src/contracts/bet_contract.sol\":2733:2820  sendMoneyToReceivers(awayTeamWinBettors, awayTeamBetAmount / awayTeamWinBettors.length) */\n      jump\t// in\n    tag_109:\n        /* \"src/contracts/bet_contract.sol\":2838:2845  return; */\n      pop\n      pop\n      jump(tag_72)\n        /* \"src/contracts/bet_contract.sol\":2425:2859  if (drawBettors.length > 0) {... */\n    tag_106:\n        /* \"src/contracts/bet_contract.sol\":1912:2869  if (result == MatchResult.AWAY_WIN) {... */\n    tag_102:\n        /* \"src/contracts/bet_contract.sol\":1412:2869  if (result == MatchResult.HOME_WIN) {... */\n    tag_88:\n        /* \"src/contracts/bet_contract.sol\":2878:2925  sendMoneyToReceivers(receivers, willSendAmount) */\n      tag_111\n        /* \"src/contracts/bet_contract.sol\":2899:2908  receivers */\n      dup2\n        /* \"src/contracts/bet_contract.sol\":2910:2924  willSendAmount */\n      dup4\n        /* \"src/contracts/bet_contract.sol\":2878:2898  sendMoneyToReceivers */\n      tag_85\n        /* \"src/contracts/bet_contract.sol\":2878:2925  sendMoneyToReceivers(receivers, willSendAmount) */\n      jump\t// in\n    tag_111:\n        /* \"src/contracts/bet_contract.sol\":1217:2932  {... */\n      pop\n      pop\n        /* \"src/contracts/bet_contract.sol\":508:509  _ */\n    tag_72:\n        /* \"src/contracts/bet_contract.sol\":1155:2932  function finalizeTheBet(MatchResult result) public restricted {... */\n      pop\n      jump\t// out\n        /* \"src/contracts/bet_contract.sol\":223:252  uint public awayTeamBetAmount */\n    tag_26:\n      sload(0x03)\n      dup2\n      jump\t// out\n        /* \"src/contracts/bet_contract.sol\":163:182  uint public matchId */\n    tag_31:\n      sload(0x01)\n      dup2\n      jump\t// out\n        /* \"src/contracts/bet_contract.sol\":408:429  bool public completed */\n    tag_35:\n      0x08\n      0x00\n      swap1\n      sload\n      swap1\n      0x0100\n      exp\n      swap1\n      div\n      0xff\n      and\n      dup2\n      jump\t// out\n        /* \"src/contracts/bet_contract.sol\":188:217  uint public homeTeamBetAmount */\n    tag_40:\n      sload(0x02)\n      dup2\n      jump\t// out\n        /* \"src/contracts/bet_contract.sol\":258:283  uint public drawBetAmount */\n    tag_44:\n      sload(0x04)\n      dup2\n      jump\t// out\n        /* \"src/contracts/bet_contract.sol\":2938:3262  function sendMoneyToReceivers(address[] storage receivers, uint amount) private {... */\n    tag_85:\n        /* \"src/contracts/bet_contract.sol\":3033:3043  uint index */\n      0x00\n        /* \"src/contracts/bet_contract.sol\":3028:3256  for (uint index = 0; index < receivers.length; index++) {... */\n    tag_113:\n        /* \"src/contracts/bet_contract.sol\":3057:3066  receivers */\n      dup3\n        /* \"src/contracts/bet_contract.sol\":3057:3073  receivers.length */\n      dup1\n      sload\n      swap1\n      pop\n        /* \"src/contracts/bet_contract.sol\":3049:3054  index */\n      dup2\n        /* \"src/contracts/bet_contract.sol\":3049:3073  index < receivers.length */\n      lt\n        /* \"src/contracts/bet_contract.sol\":3028:3256  for (uint index = 0; index < receivers.length; index++) {... */\n      iszero\n      tag_114\n      jumpi\n        /* \"src/contracts/bet_contract.sol\":3098:3114  address receiver */\n      0x00\n        /* \"src/contracts/bet_contract.sol\":3117:3126  receivers */\n      dup4\n        /* \"src/contracts/bet_contract.sol\":3127:3132  index */\n      dup3\n        /* \"src/contracts/bet_contract.sol\":3117:3133  receivers[index] */\n      dup2\n      sload\n      dup2\n      lt\n      tag_116\n      jumpi\n      tag_117\n      tag_118\n      jump\t// in\n    tag_117:\n    tag_116:\n      swap1\n      0x00\n      mstore\n      keccak256(0x00, 0x20)\n      add\n      0x00\n      swap1\n      sload\n      swap1\n      0x0100\n      exp\n      swap1\n      div\n      0xffffffffffffffffffffffffffffffffffffffff\n      and\n        /* \"src/contracts/bet_contract.sol\":3098:3133  address receiver = receivers[index] */\n      swap1\n      pop\n        /* \"src/contracts/bet_contract.sol\":3148:3157  bool sent */\n      0x00\n        /* \"src/contracts/bet_contract.sol\":3162:3170  receiver */\n      dup2\n        /* \"src/contracts/bet_contract.sol\":3162:3175  receiver.call */\n      0xffffffffffffffffffffffffffffffffffffffff\n      and\n        /* \"src/contracts/bet_contract.sol\":3183:3189  amount */\n      dup5\n        /* \"src/contracts/bet_contract.sol\":3162:3194  receiver.call{value: amount}(\"\") */\n      mload(0x40)\n      tag_120\n      swap1\n      tag_121\n      jump\t// in\n    tag_120:\n      0x00\n      mload(0x40)\n      dup1\n      dup4\n      sub\n      dup2\n      dup6\n      dup8\n      gas\n      call\n      swap3\n      pop\n      pop\n      pop\n      returndatasize\n      dup1\n      0x00\n      dup2\n      eq\n      tag_124\n      jumpi\n      mload(0x40)\n      swap2\n      pop\n      and(add(returndatasize, 0x3f), not(0x1f))\n      dup3\n      add\n      0x40\n      mstore\n      returndatasize\n      dup3\n      mstore\n      returndatasize\n      0x00\n      0x20\n      dup5\n      add\n      returndatacopy\n      jump(tag_123)\n    tag_124:\n      0x60\n      swap2\n      pop\n    tag_123:\n      pop\n        /* \"src/contracts/bet_contract.sol\":3147:3194  (bool sent,) = receiver.call{value: amount}(\"\") */\n      pop\n      swap1\n      pop\n        /* \"src/contracts/bet_contract.sol\":3216:3220  sent */\n      dup1\n        /* \"src/contracts/bet_contract.sol\":3208:3245  require(sent, \"Failed to send Ether\") */\n      tag_125\n      jumpi\n      mload(0x40)\n      0x08c379a000000000000000000000000000000000000000000000000000000000\n      dup2\n      mstore\n      0x04\n      add\n      tag_126\n      swap1\n      tag_127\n      jump\t// in\n    tag_126:\n      mload(0x40)\n      dup1\n      swap2\n      sub\n      swap1\n      revert\n    tag_125:\n        /* \"src/contracts/bet_contract.sol\":3084:3256  {... */\n      pop\n      pop\n        /* \"src/contracts/bet_contract.sol\":3075:3082  index++ */\n      dup1\n      dup1\n      tag_128\n      swap1\n      tag_129\n      jump\t// in\n    tag_128:\n      swap2\n      pop\n      pop\n        /* \"src/contracts/bet_contract.sol\":3028:3256  for (uint index = 0; index < receivers.length; index++) {... */\n      jump(tag_113)\n    tag_114:\n      pop\n        /* \"src/contracts/bet_contract.sol\":2938:3262  function sendMoneyToReceivers(address[] storage receivers, uint amount) private {... */\n      pop\n      pop\n      jump\t// out\n        /* \"#utility.yul\":7:133   */\n    tag_130:\n        /* \"#utility.yul\":44:51   */\n      0x00\n        /* \"#utility.yul\":84:126   */\n      0xffffffffffffffffffffffffffffffffffffffff\n        /* \"#utility.yul\":77:82   */\n      dup3\n        /* \"#utility.yul\":73:127   */\n      and\n        /* \"#utility.yul\":62:127   */\n      swap1\n      pop\n        /* \"#utility.yul\":7:133   */\n      swap2\n      swap1\n      pop\n      jump\t// out\n        /* \"#utility.yul\":139:235   */\n    tag_131:\n        /* \"#utility.yul\":176:183   */\n      0x00\n        /* \"#utility.yul\":205:229   */\n      tag_155\n        /* \"#utility.yul\":223:228   */\n      dup3\n        /* \"#utility.yul\":205:229   */\n      tag_130\n      jump\t// in\n    tag_155:\n        /* \"#utility.yul\":194:229   */\n      swap1\n      pop\n        /* \"#utility.yul\":139:235   */\n      swap2\n      swap1\n      pop\n      jump\t// out\n        /* \"#utility.yul\":241:359   */\n    tag_132:\n        /* \"#utility.yul\":328:352   */\n      tag_157\n        /* \"#utility.yul\":346:351   */\n      dup2\n        /* \"#utility.yul\":328:352   */\n      tag_131\n      jump\t// in\n    tag_157:\n        /* \"#utility.yul\":323:326   */\n      dup3\n        /* \"#utility.yul\":316:353   */\n      mstore\n        /* \"#utility.yul\":241:359   */\n      pop\n      pop\n      jump\t// out\n        /* \"#utility.yul\":365:587   */\n    tag_15:\n        /* \"#utility.yul\":458:462   */\n      0x00\n        /* \"#utility.yul\":496:498   */\n      0x20\n        /* \"#utility.yul\":485:494   */\n      dup3\n        /* \"#utility.yul\":481:499   */\n      add\n        /* \"#utility.yul\":473:499   */\n      swap1\n      pop\n        /* \"#utility.yul\":509:580   */\n      tag_159\n        /* \"#utility.yul\":577:578   */\n      0x00\n        /* \"#utility.yul\":566:575   */\n      dup4\n        /* \"#utility.yul\":562:579   */\n      add\n        /* \"#utility.yul\":553:559   */\n      dup5\n        /* \"#utility.yul\":509:580   */\n      tag_132\n      jump\t// in\n    tag_159:\n        /* \"#utility.yul\":365:587   */\n      swap3\n      swap2\n      pop\n      pop\n      jump\t// out\n        /* \"#utility.yul\":674:791   */\n    tag_134:\n        /* \"#utility.yul\":783:784   */\n      0x00\n        /* \"#utility.yul\":780:781   */\n      dup1\n        /* \"#utility.yul\":773:785   */\n      revert\n        /* \"#utility.yul\":920:1032   */\n    tag_136:\n        /* \"#utility.yul\":1006:1007   */\n      0x03\n        /* \"#utility.yul\":999:1004   */\n      dup2\n        /* \"#utility.yul\":996:1008   */\n      lt\n        /* \"#utility.yul\":986:1026   */\n      tag_164\n      jumpi\n        /* \"#utility.yul\":1022:1023   */\n      0x00\n        /* \"#utility.yul\":1019:1020   */\n      dup1\n        /* \"#utility.yul\":1012:1024   */\n      revert\n        /* \"#utility.yul\":986:1026   */\n    tag_164:\n        /* \"#utility.yul\":920:1032   */\n      pop\n      jump\t// out\n        /* \"#utility.yul\":1038:1203   */\n    tag_137:\n        /* \"#utility.yul\":1097:1102   */\n      0x00\n        /* \"#utility.yul\":1135:1141   */\n      dup2\n        /* \"#utility.yul\":1122:1142   */\n      calldataload\n        /* \"#utility.yul\":1113:1142   */\n      swap1\n      pop\n        /* \"#utility.yul\":1151:1197   */\n      tag_166\n        /* \"#utility.yul\":1191:1196   */\n      dup2\n        /* \"#utility.yul\":1151:1197   */\n      tag_136\n      jump\t// in\n    tag_166:\n        /* \"#utility.yul\":1038:1203   */\n      swap3\n      swap2\n      pop\n      pop\n      jump\t// out\n        /* \"#utility.yul\":1209:1564   */\n    tag_18:\n        /* \"#utility.yul\":1281:1287   */\n      0x00\n        /* \"#utility.yul\":1330:1332   */\n      0x20\n        /* \"#utility.yul\":1318:1327   */\n      dup3\n        /* \"#utility.yul\":1309:1316   */\n      dup5\n        /* \"#utility.yul\":1305:1328   */\n      sub\n        /* \"#utility.yul\":1301:1333   */\n      slt\n        /* \"#utility.yul\":1298:1417   */\n      iszero\n      tag_168\n      jumpi\n        /* \"#utility.yul\":1336:1415   */\n      tag_169\n      tag_134\n      jump\t// in\n    tag_169:\n        /* \"#utility.yul\":1298:1417   */\n    tag_168:\n        /* \"#utility.yul\":1456:1457   */\n      0x00\n        /* \"#utility.yul\":1481:1547   */\n      tag_170\n        /* \"#utility.yul\":1539:1546   */\n      dup5\n        /* \"#utility.yul\":1530:1536   */\n      dup3\n        /* \"#utility.yul\":1519:1528   */\n      dup6\n        /* \"#utility.yul\":1515:1537   */\n      add\n        /* \"#utility.yul\":1481:1547   */\n      tag_137\n      jump\t// in\n    tag_170:\n        /* \"#utility.yul\":1471:1547   */\n      swap2\n      pop\n        /* \"#utility.yul\":1427:1557   */\n      pop\n        /* \"#utility.yul\":1209:1564   */\n      swap3\n      swap2\n      pop\n      pop\n      jump\t// out\n        /* \"#utility.yul\":1570:1647   */\n    tag_138:\n        /* \"#utility.yul\":1607:1614   */\n      0x00\n        /* \"#utility.yul\":1636:1641   */\n      dup2\n        /* \"#utility.yul\":1625:1641   */\n      swap1\n      pop\n        /* \"#utility.yul\":1570:1647   */\n      swap2\n      swap1\n      pop\n      jump\t// out\n        /* \"#utility.yul\":1653:1771   */\n    tag_139:\n        /* \"#utility.yul\":1740:1764   */\n      tag_173\n        /* \"#utility.yul\":1758:1763   */\n      dup2\n        /* \"#utility.yul\":1740:1764   */\n      tag_138\n      jump\t// in\n    tag_173:\n        /* \"#utility.yul\":1735:1738   */\n      dup3\n        /* \"#utility.yul\":1728:1765   */\n      mstore\n        /* \"#utility.yul\":1653:1771   */\n      pop\n      pop\n      jump\t// out\n        /* \"#utility.yul\":1777:1999   */\n    tag_28:\n        /* \"#utility.yul\":1870:1874   */\n      0x00\n        /* \"#utility.yul\":1908:1910   */\n      0x20\n        /* \"#utility.yul\":1897:1906   */\n      dup3\n        /* \"#utility.yul\":1893:1911   */\n      add\n        /* \"#utility.yul\":1885:1911   */\n      swap1\n      pop\n        /* \"#utility.yul\":1921:1992   */\n      tag_175\n        /* \"#utility.yul\":1989:1990   */\n      0x00\n        /* \"#utility.yul\":1978:1987   */\n      dup4\n        /* \"#utility.yul\":1974:1991   */\n      add\n        /* \"#utility.yul\":1965:1971   */\n      dup5\n        /* \"#utility.yul\":1921:1992   */\n      tag_139\n      jump\t// in\n    tag_175:\n        /* \"#utility.yul\":1777:1999   */\n      swap3\n      swap2\n      pop\n      pop\n      jump\t// out\n        /* \"#utility.yul\":2005:2095   */\n    tag_140:\n        /* \"#utility.yul\":2039:2046   */\n      0x00\n        /* \"#utility.yul\":2082:2087   */\n      dup2\n        /* \"#utility.yul\":2075:2088   */\n      iszero\n        /* \"#utility.yul\":2068:2089   */\n      iszero\n        /* \"#utility.yul\":2057:2089   */\n      swap1\n      pop\n        /* \"#utility.yul\":2005:2095   */\n      swap2\n      swap1\n      pop\n      jump\t// out\n        /* \"#utility.yul\":2101:2210   */\n    tag_141:\n        /* \"#utility.yul\":2182:2203   */\n      tag_178\n        /* \"#utility.yul\":2197:2202   */\n      dup2\n        /* \"#utility.yul\":2182:2203   */\n      tag_140\n      jump\t// in\n    tag_178:\n        /* \"#utility.yul\":2177:2180   */\n      dup3\n        /* \"#utility.yul\":2170:2204   */\n      mstore\n        /* \"#utility.yul\":2101:2210   */\n      pop\n      pop\n      jump\t// out\n        /* \"#utility.yul\":2216:2426   */\n    tag_37:\n        /* \"#utility.yul\":2303:2307   */\n      0x00\n        /* \"#utility.yul\":2341:2343   */\n      0x20\n        /* \"#utility.yul\":2330:2339   */\n      dup3\n        /* \"#utility.yul\":2326:2344   */\n      add\n        /* \"#utility.yul\":2318:2344   */\n      swap1\n      pop\n        /* \"#utility.yul\":2354:2419   */\n      tag_180\n        /* \"#utility.yul\":2416:2417   */\n      0x00\n        /* \"#utility.yul\":2405:2414   */\n      dup4\n        /* \"#utility.yul\":2401:2418   */\n      add\n        /* \"#utility.yul\":2392:2398   */\n      dup5\n        /* \"#utility.yul\":2354:2419   */\n      tag_141\n      jump\t// in\n    tag_180:\n        /* \"#utility.yul\":2216:2426   */\n      swap3\n      swap2\n      pop\n      pop\n      jump\t// out\n        /* \"#utility.yul\":2432:2601   */\n    tag_142:\n        /* \"#utility.yul\":2516:2527   */\n      0x00\n        /* \"#utility.yul\":2550:2556   */\n      dup3\n        /* \"#utility.yul\":2545:2548   */\n      dup3\n        /* \"#utility.yul\":2538:2557   */\n      mstore\n        /* \"#utility.yul\":2590:2594   */\n      0x20\n        /* \"#utility.yul\":2585:2588   */\n      dup3\n        /* \"#utility.yul\":2581:2595   */\n      add\n        /* \"#utility.yul\":2566:2595   */\n      swap1\n      pop\n        /* \"#utility.yul\":2432:2601   */\n      swap3\n      swap2\n      pop\n      pop\n      jump\t// out\n        /* \"#utility.yul\":2607:2829   */\n    tag_143:\n        /* \"#utility.yul\":2747:2781   */\n      0x4265742076616c7565206d7573742062652067726561746572207468616e207a\n        /* \"#utility.yul\":2743:2744   */\n      0x00\n        /* \"#utility.yul\":2735:2741   */\n      dup3\n        /* \"#utility.yul\":2731:2745   */\n      add\n        /* \"#utility.yul\":2724:2782   */\n      mstore\n        /* \"#utility.yul\":2816:2821   */\n      0x65726f0000000000000000000000000000000000000000000000000000000000\n        /* \"#utility.yul\":2811:2813   */\n      0x20\n        /* \"#utility.yul\":2803:2809   */\n      dup3\n        /* \"#utility.yul\":2799:2814   */\n      add\n        /* \"#utility.yul\":2792:2822   */\n      mstore\n        /* \"#utility.yul\":2607:2829   */\n      pop\n      jump\t// out\n        /* \"#utility.yul\":2835:3201   */\n    tag_144:\n        /* \"#utility.yul\":2977:2980   */\n      0x00\n        /* \"#utility.yul\":2998:3065   */\n      tag_184\n        /* \"#utility.yul\":3062:3064   */\n      0x23\n        /* \"#utility.yul\":3057:3060   */\n      dup4\n        /* \"#utility.yul\":2998:3065   */\n      tag_142\n      jump\t// in\n    tag_184:\n        /* \"#utility.yul\":2991:3065   */\n      swap2\n      pop\n        /* \"#utility.yul\":3074:3167   */\n      tag_185\n        /* \"#utility.yul\":3163:3166   */\n      dup3\n        /* \"#utility.yul\":3074:3167   */\n      tag_143\n      jump\t// in\n    tag_185:\n        /* \"#utility.yul\":3192:3194   */\n      0x40\n        /* \"#utility.yul\":3187:3190   */\n      dup3\n        /* \"#utility.yul\":3183:3195   */\n      add\n        /* \"#utility.yul\":3176:3195   */\n      swap1\n      pop\n        /* \"#utility.yul\":2835:3201   */\n      swap2\n      swap1\n      pop\n      jump\t// out\n        /* \"#utility.yul\":3207:3626   */\n    tag_49:\n        /* \"#utility.yul\":3373:3377   */\n      0x00\n        /* \"#utility.yul\":3411:3413   */\n      0x20\n        /* \"#utility.yul\":3400:3409   */\n      dup3\n        /* \"#utility.yul\":3396:3414   */\n      add\n        /* \"#utility.yul\":3388:3414   */\n      swap1\n      pop\n        /* \"#utility.yul\":3460:3469   */\n      dup2\n        /* \"#utility.yul\":3454:3458   */\n      dup2\n        /* \"#utility.yul\":3450:3470   */\n      sub\n        /* \"#utility.yul\":3446:3447   */\n      0x00\n        /* \"#utility.yul\":3435:3444   */\n      dup4\n        /* \"#utility.yul\":3431:3448   */\n      add\n        /* \"#utility.yul\":3424:3471   */\n      mstore\n        /* \"#utility.yul\":3488:3619   */\n      tag_187\n        /* \"#utility.yul\":3614:3618   */\n      dup2\n        /* \"#utility.yul\":3488:3619   */\n      tag_144\n      jump\t// in\n    tag_187:\n        /* \"#utility.yul\":3480:3619   */\n      swap1\n      pop\n        /* \"#utility.yul\":3207:3626   */\n      swap2\n      swap1\n      pop\n      jump\t// out\n        /* \"#utility.yul\":3632:3812   */\n    tag_52:\n        /* \"#utility.yul\":3680:3757   */\n      0x4e487b7100000000000000000000000000000000000000000000000000000000\n        /* \"#utility.yul\":3677:3678   */\n      0x00\n        /* \"#utility.yul\":3670:3758   */\n      mstore\n        /* \"#utility.yul\":3777:3781   */\n      0x21\n        /* \"#utility.yul\":3774:3775   */\n      0x04\n        /* \"#utility.yul\":3767:3782   */\n      mstore\n        /* \"#utility.yul\":3801:3805   */\n      0x24\n        /* \"#utility.yul\":3798:3799   */\n      0x00\n        /* \"#utility.yul\":3791:3806   */\n      revert\n        /* \"#utility.yul\":3818:3998   */\n    tag_145:\n        /* \"#utility.yul\":3866:3943   */\n      0x4e487b7100000000000000000000000000000000000000000000000000000000\n        /* \"#utility.yul\":3863:3864   */\n      0x00\n        /* \"#utility.yul\":3856:3944   */\n      mstore\n        /* \"#utility.yul\":3963:3967   */\n      0x11\n        /* \"#utility.yul\":3960:3961   */\n      0x04\n        /* \"#utility.yul\":3953:3968   */\n      mstore\n        /* \"#utility.yul\":3987:3991   */\n      0x24\n        /* \"#utility.yul\":3984:3985   */\n      0x00\n        /* \"#utility.yul\":3977:3992   */\n      revert\n        /* \"#utility.yul\":4004:4195   */\n    tag_57:\n        /* \"#utility.yul\":4044:4047   */\n      0x00\n        /* \"#utility.yul\":4063:4083   */\n      tag_191\n        /* \"#utility.yul\":4081:4082   */\n      dup3\n        /* \"#utility.yul\":4063:4083   */\n      tag_138\n      jump\t// in\n    tag_191:\n        /* \"#utility.yul\":4058:4083   */\n      swap2\n      pop\n        /* \"#utility.yul\":4097:4117   */\n      tag_192\n        /* \"#utility.yul\":4115:4116   */\n      dup4\n        /* \"#utility.yul\":4097:4117   */\n      tag_138\n      jump\t// in\n    tag_192:\n        /* \"#utility.yul\":4092:4117   */\n      swap3\n      pop\n        /* \"#utility.yul\":4140:4141   */\n      dup3\n        /* \"#utility.yul\":4137:4138   */\n      dup3\n        /* \"#utility.yul\":4133:4142   */\n      add\n        /* \"#utility.yul\":4126:4142   */\n      swap1\n      pop\n        /* \"#utility.yul\":4161:4164   */\n      dup1\n        /* \"#utility.yul\":4158:4159   */\n      dup3\n        /* \"#utility.yul\":4155:4165   */\n      gt\n        /* \"#utility.yul\":4152:4188   */\n      iszero\n      tag_193\n      jumpi\n        /* \"#utility.yul\":4168:4186   */\n      tag_194\n      tag_145\n      jump\t// in\n    tag_194:\n        /* \"#utility.yul\":4152:4188   */\n    tag_193:\n        /* \"#utility.yul\":4004:4195   */\n      swap3\n      swap2\n      pop\n      pop\n      jump\t// out\n        /* \"#utility.yul\":4201:4381   */\n    tag_146:\n        /* \"#utility.yul\":4249:4326   */\n      0x4e487b7100000000000000000000000000000000000000000000000000000000\n        /* \"#utility.yul\":4246:4247   */\n      0x00\n        /* \"#utility.yul\":4239:4327   */\n      mstore\n        /* \"#utility.yul\":4346:4350   */\n      0x12\n        /* \"#utility.yul\":4343:4344   */\n      0x04\n        /* \"#utility.yul\":4336:4351   */\n      mstore\n        /* \"#utility.yul\":4370:4374   */\n      0x24\n        /* \"#utility.yul\":4367:4368   */\n      0x00\n        /* \"#utility.yul\":4360:4375   */\n      revert\n        /* \"#utility.yul\":4387:4572   */\n    tag_81:\n        /* \"#utility.yul\":4427:4428   */\n      0x00\n        /* \"#utility.yul\":4444:4464   */\n      tag_197\n        /* \"#utility.yul\":4462:4463   */\n      dup3\n        /* \"#utility.yul\":4444:4464   */\n      tag_138\n      jump\t// in\n    tag_197:\n        /* \"#utility.yul\":4439:4464   */\n      swap2\n      pop\n        /* \"#utility.yul\":4478:4498   */\n      tag_198\n        /* \"#utility.yul\":4496:4497   */\n      dup4\n        /* \"#utility.yul\":4478:4498   */\n      tag_138\n      jump\t// in\n    tag_198:\n        /* \"#utility.yul\":4473:4498   */\n      swap3\n      pop\n        /* \"#utility.yul\":4517:4518   */\n      dup3\n        /* \"#utility.yul\":4507:4542   */\n      tag_199\n      jumpi\n        /* \"#utility.yul\":4522:4540   */\n      tag_200\n      tag_146\n      jump\t// in\n    tag_200:\n        /* \"#utility.yul\":4507:4542   */\n    tag_199:\n        /* \"#utility.yul\":4564:4565   */\n      dup3\n        /* \"#utility.yul\":4561:4562   */\n      dup3\n        /* \"#utility.yul\":4557:4566   */\n      div\n        /* \"#utility.yul\":4552:4566   */\n      swap1\n      pop\n        /* \"#utility.yul\":4387:4572   */\n      swap3\n      swap2\n      pop\n      pop\n      jump\t// out\n        /* \"#utility.yul\":4578:4758   */\n    tag_118:\n        /* \"#utility.yul\":4626:4703   */\n      0x4e487b7100000000000000000000000000000000000000000000000000000000\n        /* \"#utility.yul\":4623:4624   */\n      0x00\n        /* \"#utility.yul\":4616:4704   */\n      mstore\n        /* \"#utility.yul\":4723:4727   */\n      0x32\n        /* \"#utility.yul\":4720:4721   */\n      0x04\n        /* \"#utility.yul\":4713:4728   */\n      mstore\n        /* \"#utility.yul\":4747:4751   */\n      0x24\n        /* \"#utility.yul\":4744:4745   */\n      0x00\n        /* \"#utility.yul\":4737:4752   */\n      revert\n        /* \"#utility.yul\":4764:4911   */\n    tag_147:\n        /* \"#utility.yul\":4865:4876   */\n      0x00\n        /* \"#utility.yul\":4902:4905   */\n      dup2\n        /* \"#utility.yul\":4887:4905   */\n      swap1\n      pop\n        /* \"#utility.yul\":4764:4911   */\n      swap3\n      swap2\n      pop\n      pop\n      jump\t// out\n        /* \"#utility.yul\":4917:5031   */\n    tag_148:\n      pop\n      jump\t// out\n        /* \"#utility.yul\":5037:5435   */\n    tag_149:\n        /* \"#utility.yul\":5196:5199   */\n      0x00\n        /* \"#utility.yul\":5217:5300   */\n      tag_205\n        /* \"#utility.yul\":5298:5299   */\n      0x00\n        /* \"#utility.yul\":5293:5296   */\n      dup4\n        /* \"#utility.yul\":5217:5300   */\n      tag_147\n      jump\t// in\n    tag_205:\n        /* \"#utility.yul\":5210:5300   */\n      swap2\n      pop\n        /* \"#utility.yul\":5309:5402   */\n      tag_206\n        /* \"#utility.yul\":5398:5401   */\n      dup3\n        /* \"#utility.yul\":5309:5402   */\n      tag_148\n      jump\t// in\n    tag_206:\n        /* \"#utility.yul\":5427:5428   */\n      0x00\n        /* \"#utility.yul\":5422:5425   */\n      dup3\n        /* \"#utility.yul\":5418:5429   */\n      add\n        /* \"#utility.yul\":5411:5429   */\n      swap1\n      pop\n        /* \"#utility.yul\":5037:5435   */\n      swap2\n      swap1\n      pop\n      jump\t// out\n        /* \"#utility.yul\":5441:5820   */\n    tag_121:\n        /* \"#utility.yul\":5625:5628   */\n      0x00\n        /* \"#utility.yul\":5647:5794   */\n      tag_208\n        /* \"#utility.yul\":5790:5793   */\n      dup3\n        /* \"#utility.yul\":5647:5794   */\n      tag_149\n      jump\t// in\n    tag_208:\n        /* \"#utility.yul\":5640:5794   */\n      swap2\n      pop\n        /* \"#utility.yul\":5811:5814   */\n      dup2\n        /* \"#utility.yul\":5804:5814   */\n      swap1\n      pop\n        /* \"#utility.yul\":5441:5820   */\n      swap2\n      swap1\n      pop\n      jump\t// out\n        /* \"#utility.yul\":5826:5996   */\n    tag_150:\n        /* \"#utility.yul\":5966:5988   */\n      0x4661696c656420746f2073656e64204574686572000000000000000000000000\n        /* \"#utility.yul\":5962:5963   */\n      0x00\n        /* \"#utility.yul\":5954:5960   */\n      dup3\n        /* \"#utility.yul\":5950:5964   */\n      add\n        /* \"#utility.yul\":5943:5989   */\n      mstore\n        /* \"#utility.yul\":5826:5996   */\n      pop\n      jump\t// out\n        /* \"#utility.yul\":6002:6368   */\n    tag_151:\n        /* \"#utility.yul\":6144:6147   */\n      0x00\n        /* \"#utility.yul\":6165:6232   */\n      tag_211\n        /* \"#utility.yul\":6229:6231   */\n      0x14\n        /* \"#utility.yul\":6224:6227   */\n      dup4\n        /* \"#utility.yul\":6165:6232   */\n      tag_142\n      jump\t// in\n    tag_211:\n        /* \"#utility.yul\":6158:6232   */\n      swap2\n      pop\n        /* \"#utility.yul\":6241:6334   */\n      tag_212\n        /* \"#utility.yul\":6330:6333   */\n      dup3\n        /* \"#utility.yul\":6241:6334   */\n      tag_150\n      jump\t// in\n    tag_212:\n        /* \"#utility.yul\":6359:6361   */\n      0x20\n        /* \"#utility.yul\":6354:6357   */\n      dup3\n        /* \"#utility.yul\":6350:6362   */\n      add\n        /* \"#utility.yul\":6343:6362   */\n      swap1\n      pop\n        /* \"#utility.yul\":6002:6368   */\n      swap2\n      swap1\n      pop\n      jump\t// out\n        /* \"#utility.yul\":6374:6793   */\n    tag_127:\n        /* \"#utility.yul\":6540:6544   */\n      0x00\n        /* \"#utility.yul\":6578:6580   */\n      0x20\n        /* \"#utility.yul\":6567:6576   */\n      dup3\n        /* \"#utility.yul\":6563:6581   */\n      add\n        /* \"#utility.yul\":6555:6581   */\n      swap1\n      pop\n        /* \"#utility.yul\":6627:6636   */\n      dup2\n        /* \"#utility.yul\":6621:6625   */\n      dup2\n        /* \"#utility.yul\":6617:6637   */\n      sub\n        /* \"#utility.yul\":6613:6614   */\n      0x00\n        /* \"#utility.yul\":6602:6611   */\n      dup4\n        /* \"#utility.yul\":6598:6615   */\n      add\n        /* \"#utility.yul\":6591:6638   */\n      mstore\n        /* \"#utility.yul\":6655:6786   */\n      tag_214\n        /* \"#utility.yul\":6781:6785   */\n      dup2\n        /* \"#utility.yul\":6655:6786   */\n      tag_151\n      jump\t// in\n    tag_214:\n        /* \"#utility.yul\":6647:6786   */\n      swap1\n      pop\n        /* \"#utility.yul\":6374:6793   */\n      swap2\n      swap1\n      pop\n      jump\t// out\n        /* \"#utility.yul\":6799:7032   */\n    tag_129:\n        /* \"#utility.yul\":6838:6841   */\n      0x00\n        /* \"#utility.yul\":6861:6885   */\n      tag_216\n        /* \"#utility.yul\":6879:6884   */\n      dup3\n        /* \"#utility.yul\":6861:6885   */\n      tag_138\n      jump\t// in\n    tag_216:\n        /* \"#utility.yul\":6852:6885   */\n      swap2\n      pop\n        /* \"#utility.yul\":6907:6973   */\n      0xffffffffffffffffffffffffffffffffffffffffffffffffffffffffffffffff\n        /* \"#utility.yul\":6900:6905   */\n      dup3\n        /* \"#utility.yul\":6897:6974   */\n      sub\n        /* \"#utility.yul\":6894:6997   */\n      tag_217\n      jumpi\n        /* \"#utility.yul\":6977:6995   */\n      tag_218\n      tag_145\n      jump\t// in\n    tag_218:\n        /* \"#utility.yul\":6894:6997   */\n    tag_217:\n        /* \"#utility.yul\":7024:7025   */\n      0x01\n        /* \"#utility.yul\":7017:7022   */\n      dup3\n        /* \"#utility.yul\":7013:7026   */\n      add\n        /* \"#utility.yul\":7006:7026   */\n      swap1\n      pop\n        /* \"#utility.yul\":6799:7032   */\n      swap2\n      swap1\n      pop\n      jump\t// out\n\n    auxdata: 0xa2646970667358221220aa865fddf0080da754e554464dcaef47cd38edce60ee120a2565b3f384de45a464736f6c63430008110033\n}\n",
				"bytecode": {
					"linkReferences": {},
					"object": "608060405234801561001057600080fd5b50604051610c88380380610c88833981810160405281019061003291906100ba565b80600181905550336000806101000a81548173ffffffffffffffffffffffffffffffffffffffff021916908373ffffffffffffffffffffffffffffffffffffffff160217905550506100e7565b600080fd5b6000819050919050565b61009781610084565b81146100a257600080fd5b50565b6000815190506100b48161008e565b92915050565b6000602082840312156100d0576100cf61007f565b5b60006100de848285016100a5565b91505092915050565b610b92806100f66000396000f3fe60806040526004361061007b5760003560e01c806399892e471161004e57806399892e471461011b5780639d9a7fe914610146578063d13abf6214610171578063f32750ce1461019c5761007b565b8063481c6a75146100805780635e42cf62146100ab5780636af7a16e146100c7578063707f00d3146100f0575b600080fd5b34801561008c57600080fd5b506100956101c7565b6040516100a291906107c2565b60405180910390f35b6100c560048036038101906100c09190610807565b6101eb565b005b3480156100d357600080fd5b506100ee60048036038101906100e99190610807565b610409565b005b3480156100fc57600080fd5b5061010561063f565b604051610112919061084d565b60405180910390f35b34801561012757600080fd5b50610130610645565b60405161013d919061084d565b60405180910390f35b34801561015257600080fd5b5061015b61064b565b6040516101689190610883565b60405180910390f35b34801561017d57600080fd5b5061018661065e565b604051610193919061084d565b60405180910390f35b3480156101a857600080fd5b506101b1610664565b6040516101be919061084d565b60405180910390f35b60008054906101000a900473ffffffffffffffffffffffffffffffffffffffff1681565b6000341161022e576040517f08c379a000000000000000000000000000000000000000000000000000000000815260040161022590610921565b60405180910390fd5b6000600281111561024257610241610941565b5b81600281111561025557610254610941565b5b036102db57346002600082825461026c919061099f565b925050819055506005339080600181540180825580915050600190039060005260206000200160009091909190916101000a81548173ffffffffffffffffffffffffffffffffffffffff021916908373ffffffffffffffffffffffffffffffffffffffff160217905550610406565b600160028111156102ef576102ee610941565b5b81600281111561030257610301610941565b5b03610388573460036000828254610319919061099f565b925050819055506005339080600181540180825580915050600190039060005260206000200160009091909190916101000a81548173ffffffffffffffffffffffffffffffffffffffff021916908373ffffffffffffffffffffffffffffffffffffffff160217905550610405565b346004600082825461039a919061099f565b925050819055506007339080600181540180825580915050600190039060005260206000200160009091909190916101000a81548173ffffffffffffffffffffffffffffffffffffffff021916908373ffffffffffffffffffffffffffffffffffffffff1602179055505b5b50565b60008054906101000a900473ffffffffffffffffffffffffffffffffffffffff1673ffffffffffffffffffffffffffffffffffffffff163373ffffffffffffffffffffffffffffffffffffffff161461046157600080fd5b60008080600281111561047757610476610941565b5b83600281111561048a57610489610941565b5b0361050c57600060058054905011156104c8576005805490506004546003546104b3919061099f565b6104bd9190610a02565b915060059050610507565b6104e4600680805490506003546104df9190610a02565b61066a565b610500600780805490506004546104fb9190610a02565b61066a565b505061063c565b61062f565b600160028111156105205761051f610941565b5b83600281111561053357610532610941565b5b036105b557600060068054905011156105715760068054905060045460025461055c919061099f565b6105669190610a02565b9150600690506105b0565b61058d600580805490506002546105889190610a02565b61066a565b6105a9600780805490506004546105a49190610a02565b61066a565b505061063c565b61062e565b600060078054905011156105ee576007805490506003546002546105d9919061099f565b6105e39190610a02565b91506007905061062d565b61060a600580805490506002546106059190610a02565b61066a565b610626600680805490506003546106219190610a02565b61066a565b505061063c565b5b5b610639818361066a565b50505b50565b60035481565b60015481565b600860009054906101000a900460ff1681565b60025481565b60045481565b60005b828054905081101561077c57600083828154811061068e5761068d610a33565b5b9060005260206000200160009054906101000a900473ffffffffffffffffffffffffffffffffffffffff16905060008173ffffffffffffffffffffffffffffffffffffffff16846040516106e190610a93565b60006040518083038185875af1925050503d806000811461071e576040519150601f19603f3d011682016040523d82523d6000602084013e610723565b606091505b5050905080610767576040517f08c379a000000000000000000000000000000000000000000000000000000000815260040161075e90610af4565b60405180910390fd5b5050808061077490610b14565b91505061066d565b505050565b600073ffffffffffffffffffffffffffffffffffffffff82169050919050565b60006107ac82610781565b9050919050565b6107bc816107a1565b82525050565b60006020820190506107d760008301846107b3565b92915050565b600080fd5b600381106107ef57600080fd5b50565b600081359050610801816107e2565b92915050565b60006020828403121561081d5761081c6107dd565b5b600061082b848285016107f2565b91505092915050565b6000819050919050565b61084781610834565b82525050565b6000602082019050610862600083018461083e565b92915050565b60008115159050919050565b61087d81610868565b82525050565b60006020820190506108986000830184610874565b92915050565b600082825260208201905092915050565b7f4265742076616c7565206d7573742062652067726561746572207468616e207a60008201527f65726f0000000000000000000000000000000000000000000000000000000000602082015250565b600061090b60238361089e565b9150610916826108af565b604082019050919050565b6000602082019050818103600083015261093a816108fe565b9050919050565b7f4e487b7100000000000000000000000000000000000000000000000000000000600052602160045260246000fd5b7f4e487b7100000000000000000000000000000000000000000000000000000000600052601160045260246000fd5b60006109aa82610834565b91506109b583610834565b92508282019050808211156109cd576109cc610970565b5b92915050565b7f4e487b7100000000000000000000000000000000000000000000000000000000600052601260045260246000fd5b6000610a0d82610834565b9150610a1883610834565b925082610a2857610a276109d3565b5b828204905092915050565b7f4e487b7100000000000000000000000000000000000000000000000000000000600052603260045260246000fd5b600081905092915050565b50565b6000610a7d600083610a62565b9150610a8882610a6d565b600082019050919050565b6000610a9e82610a70565b9150819050919050565b7f4661696c656420746f2073656e64204574686572000000000000000000000000600082015250565b6000610ade60148361089e565b9150610ae982610aa8565b602082019050919050565b60006020820190508181036000830152610b0d81610ad1565b9050919050565b6000610b1f82610834565b91507fffffffffffffffffffffffffffffffffffffffffffffffffffffffffffffffff8203610b5157610b50610970565b5b60018201905091905056fea2646970667358221220aa865fddf0080da754e554464dcaef47cd38edce60ee120a2565b3f384de45a464736f6c63430008110033",
					"opcodes": "PUSH1 0x80 PUSH1 0x40 MSTORE CALLVALUE DUP1 ISZERO PUSH2 0x10 JUMPI PUSH1 0x0 DUP1 REVERT JUMPDEST POP PUSH1 0x40 MLOAD PUSH2 0xC88 CODESIZE SUB DUP1 PUSH2 0xC88 DUP4 CODECOPY DUP2 DUP2 ADD PUSH1 0x40 MSTORE DUP2 ADD SWAP1 PUSH2 0x32 SWAP2 SWAP1 PUSH2 0xBA JUMP JUMPDEST DUP1 PUSH1 0x1 DUP2 SWAP1 SSTORE POP CALLER PUSH1 0x0 DUP1 PUSH2 0x100 EXP DUP2 SLOAD DUP2 PUSH20 0xFFFFFFFFFFFFFFFFFFFFFFFFFFFFFFFFFFFFFFFF MUL NOT AND SWAP1 DUP4 PUSH20 0xFFFFFFFFFFFFFFFFFFFFFFFFFFFFFFFFFFFFFFFF AND MUL OR SWAP1 SSTORE POP POP PUSH2 0xE7 JUMP JUMPDEST PUSH1 0x0 DUP1 REVERT JUMPDEST PUSH1 0x0 DUP2 SWAP1 POP SWAP2 SWAP1 POP JUMP JUMPDEST PUSH2 0x97 DUP2 PUSH2 0x84 JUMP JUMPDEST DUP2 EQ PUSH2 0xA2 JUMPI PUSH1 0x0 DUP1 REVERT JUMPDEST POP JUMP JUMPDEST PUSH1 0x0 DUP2 MLOAD SWAP1 POP PUSH2 0xB4 DUP2 PUSH2 0x8E JUMP JUMPDEST SWAP3 SWAP2 POP POP JUMP JUMPDEST PUSH1 0x0 PUSH1 0x20 DUP3 DUP5 SUB SLT ISZERO PUSH2 0xD0 JUMPI PUSH2 0xCF PUSH2 0x7F JUMP JUMPDEST JUMPDEST PUSH1 0x0 PUSH2 0xDE DUP5 DUP3 DUP6 ADD PUSH2 0xA5 JUMP JUMPDEST SWAP2 POP POP SWAP3 SWAP2 POP POP JUMP JUMPDEST PUSH2 0xB92 DUP1 PUSH2 0xF6 PUSH1 0x0 CODECOPY PUSH1 0x0 RETURN INVALID PUSH1 0x80 PUSH1 0x40 MSTORE PUSH1 0x4 CALLDATASIZE LT PUSH2 0x7B JUMPI PUSH1 0x0 CALLDATALOAD PUSH1 0xE0 SHR DUP1 PUSH4 0x99892E47 GT PUSH2 0x4E JUMPI DUP1 PUSH4 0x99892E47 EQ PUSH2 0x11B JUMPI DUP1 PUSH4 0x9D9A7FE9 EQ PUSH2 0x146 JUMPI DUP1 PUSH4 0xD13ABF62 EQ PUSH2 0x171 JUMPI DUP1 PUSH4 0xF32750CE EQ PUSH2 0x19C JUMPI PUSH2 0x7B JUMP JUMPDEST DUP1 PUSH4 0x481C6A75 EQ PUSH2 0x80 JUMPI DUP1 PUSH4 0x5E42CF62 EQ PUSH2 0xAB JUMPI DUP1 PUSH4 0x6AF7A16E EQ PUSH2 0xC7 JUMPI DUP1 PUSH4 0x707F00D3 EQ PUSH2 0xF0 JUMPI JUMPDEST PUSH1 0x0 DUP1 REVERT JUMPDEST CALLVALUE DUP1 ISZERO PUSH2 0x8C JUMPI PUSH1 0x0 DUP1 REVERT JUMPDEST POP PUSH2 0x95 PUSH2 0x1C7 JUMP JUMPDEST PUSH1 0x40 MLOAD PUSH2 0xA2 SWAP2 SWAP1 PUSH2 0x7C2 JUMP JUMPDEST PUSH1 0x40 MLOAD DUP1 SWAP2 SUB SWAP1 RETURN JUMPDEST PUSH2 0xC5 PUSH1 0x4 DUP1 CALLDATASIZE SUB DUP2 ADD SWAP1 PUSH2 0xC0 SWAP2 SWAP1 PUSH2 0x807 JUMP JUMPDEST PUSH2 0x1EB JUMP JUMPDEST STOP JUMPDEST CALLVALUE DUP1 ISZERO PUSH2 0xD3 JUMPI PUSH1 0x0 DUP1 REVERT JUMPDEST POP PUSH2 0xEE PUSH1 0x4 DUP1 CALLDATASIZE SUB DUP2 ADD SWAP1 PUSH2 0xE9 SWAP2 SWAP1 PUSH2 0x807 JUMP JUMPDEST PUSH2 0x409 JUMP JUMPDEST STOP JUMPDEST CALLVALUE DUP1 ISZERO PUSH2 0xFC JUMPI PUSH1 0x0 DUP1 REVERT JUMPDEST POP PUSH2 0x105 PUSH2 0x63F JUMP JUMPDEST PUSH1 0x40 MLOAD PUSH2 0x112 SWAP2 SWAP1 PUSH2 0x84D JUMP JUMPDEST PUSH1 0x40 MLOAD DUP1 SWAP2 SUB SWAP1 RETURN JUMPDEST CALLVALUE DUP1 ISZERO PUSH2 0x127 JUMPI PUSH1 0x0 DUP1 REVERT JUMPDEST POP PUSH2 0x130 PUSH2 0x645 JUMP JUMPDEST PUSH1 0x40 MLOAD PUSH2 0x13D SWAP2 SWAP1 PUSH2 0x84D JUMP JUMPDEST PUSH1 0x40 MLOAD DUP1 SWAP2 SUB SWAP1 RETURN JUMPDEST CALLVALUE DUP1 ISZERO PUSH2 0x152 JUMPI PUSH1 0x0 DUP1 REVERT JUMPDEST POP PUSH2 0x15B PUSH2 0x64B JUMP JUMPDEST PUSH1 0x40 MLOAD PUSH2 0x168 SWAP2 SWAP1 PUSH2 0x883 JUMP JUMPDEST PUSH1 0x40 MLOAD DUP1 SWAP2 SUB SWAP1 RETURN JUMPDEST CALLVALUE DUP1 ISZERO PUSH2 0x17D JUMPI PUSH1 0x0 DUP1 REVERT JUMPDEST POP PUSH2 0x186 PUSH2 0x65E JUMP JUMPDEST PUSH1 0x40 MLOAD PUSH2 0x193 SWAP2 SWAP1 PUSH2 0x84D JUMP JUMPDEST PUSH1 0x40 MLOAD DUP1 SWAP2 SUB SWAP1 RETURN JUMPDEST CALLVALUE DUP1 ISZERO PUSH2 0x1A8 JUMPI PUSH1 0x0 DUP1 REVERT JUMPDEST POP PUSH2 0x1B1 PUSH2 0x664 JUMP JUMPDEST PUSH1 0x40 MLOAD PUSH2 0x1BE SWAP2 SWAP1 PUSH2 0x84D JUMP JUMPDEST PUSH1 0x40 MLOAD DUP1 SWAP2 SUB SWAP1 RETURN JUMPDEST PUSH1 0x0 DUP1 SLOAD SWAP1 PUSH2 0x100 EXP SWAP1 DIV PUSH20 0xFFFFFFFFFFFFFFFFFFFFFFFFFFFFFFFFFFFFFFFF AND DUP2 JUMP JUMPDEST PUSH1 0x0 CALLVALUE GT PUSH2 0x22E JUMPI PUSH1 0x40 MLOAD PUSH32 0x8C379A000000000000000000000000000000000000000000000000000000000 DUP2 MSTORE PUSH1 0x4 ADD PUSH2 0x225 SWAP1 PUSH2 0x921 JUMP JUMPDEST PUSH1 0x40 MLOAD DUP1 SWAP2 SUB SWAP1 REVERT JUMPDEST PUSH1 0x0 PUSH1 0x2 DUP2 GT ISZERO PUSH2 0x242 JUMPI PUSH2 0x241 PUSH2 0x941 JUMP JUMPDEST JUMPDEST DUP2 PUSH1 0x2 DUP2 GT ISZERO PUSH2 0x255 JUMPI PUSH2 0x254 PUSH2 0x941 JUMP JUMPDEST JUMPDEST SUB PUSH2 0x2DB JUMPI CALLVALUE PUSH1 0x2 PUSH1 0x0 DUP3 DUP3 SLOAD PUSH2 0x26C SWAP2 SWAP1 PUSH2 0x99F JUMP JUMPDEST SWAP3 POP POP DUP2 SWAP1 SSTORE POP PUSH1 0x5 CALLER SWAP1 DUP1 PUSH1 0x1 DUP2 SLOAD ADD DUP1 DUP3 SSTORE DUP1 SWAP2 POP POP PUSH1 0x1 SWAP1 SUB SWAP1 PUSH1 0x0 MSTORE PUSH1 0x20 PUSH1 0x0 KECCAK256 ADD PUSH1 0x0 SWAP1 SWAP2 SWAP1 SWAP2 SWAP1 SWAP2 PUSH2 0x100 EXP DUP2 SLOAD DUP2 PUSH20 0xFFFFFFFFFFFFFFFFFFFFFFFFFFFFFFFFFFFFFFFF MUL NOT AND SWAP1 DUP4 PUSH20 0xFFFFFFFFFFFFFFFFFFFFFFFFFFFFFFFFFFFFFFFF AND MUL OR SWAP1 SSTORE POP PUSH2 0x406 JUMP JUMPDEST PUSH1 0x1 PUSH1 0x2 DUP2 GT ISZERO PUSH2 0x2EF JUMPI PUSH2 0x2EE PUSH2 0x941 JUMP JUMPDEST JUMPDEST DUP2 PUSH1 0x2 DUP2 GT ISZERO PUSH2 0x302 JUMPI PUSH2 0x301 PUSH2 0x941 JUMP JUMPDEST JUMPDEST SUB PUSH2 0x388 JUMPI CALLVALUE PUSH1 0x3 PUSH1 0x0 DUP3 DUP3 SLOAD PUSH2 0x319 SWAP2 SWAP1 PUSH2 0x99F JUMP JUMPDEST SWAP3 POP POP DUP2 SWAP1 SSTORE POP PUSH1 0x5 CALLER SWAP1 DUP1 PUSH1 0x1 DUP2 SLOAD ADD DUP1 DUP3 SSTORE DUP1 SWAP2 POP POP PUSH1 0x1 SWAP1 SUB SWAP1 PUSH1 0x0 MSTORE PUSH1 0x20 PUSH1 0x0 KECCAK256 ADD PUSH1 0x0 SWAP1 SWAP2 SWAP1 SWAP2 SWAP1 SWAP2 PUSH2 0x100 EXP DUP2 SLOAD DUP2 PUSH20 0xFFFFFFFFFFFFFFFFFFFFFFFFFFFFFFFFFFFFFFFF MUL NOT AND SWAP1 DUP4 PUSH20 0xFFFFFFFFFFFFFFFFFFFFFFFFFFFFFFFFFFFFFFFF AND MUL OR SWAP1 SSTORE POP PUSH2 0x405 JUMP JUMPDEST CALLVALUE PUSH1 0x4 PUSH1 0x0 DUP3 DUP3 SLOAD PUSH2 0x39A SWAP2 SWAP1 PUSH2 0x99F JUMP JUMPDEST SWAP3 POP POP DUP2 SWAP1 SSTORE POP PUSH1 0x7 CALLER SWAP1 DUP1 PUSH1 0x1 DUP2 SLOAD ADD DUP1 DUP3 SSTORE DUP1 SWAP2 POP POP PUSH1 0x1 SWAP1 SUB SWAP1 PUSH1 0x0 MSTORE PUSH1 0x20 PUSH1 0x0 KECCAK256 ADD PUSH1 0x0 SWAP1 SWAP2 SWAP1 SWAP2 SWAP1 SWAP2 PUSH2 0x100 EXP DUP2 SLOAD DUP2 PUSH20 0xFFFFFFFFFFFFFFFFFFFFFFFFFFFFFFFFFFFFFFFF MUL NOT AND SWAP1 DUP4 PUSH20 0xFFFFFFFFFFFFFFFFFFFFFFFFFFFFFFFFFFFFFFFF AND MUL OR SWAP1 SSTORE POP JUMPDEST JUMPDEST POP JUMP JUMPDEST PUSH1 0x0 DUP1 SLOAD SWAP1 PUSH2 0x100 EXP SWAP1 DIV PUSH20 0xFFFFFFFFFFFFFFFFFFFFFFFFFFFFFFFFFFFFFFFF AND PUSH20 0xFFFFFFFFFFFFFFFFFFFFFFFFFFFFFFFFFFFFFFFF AND CALLER PUSH20 0xFFFFFFFFFFFFFFFFFFFFFFFFFFFFFFFFFFFFFFFF AND EQ PUSH2 0x461 JUMPI PUSH1 0x0 DUP1 REVERT JUMPDEST PUSH1 0x0 DUP1 DUP1 PUSH1 0x2 DUP2 GT ISZERO PUSH2 0x477 JUMPI PUSH2 0x476 PUSH2 0x941 JUMP JUMPDEST JUMPDEST DUP4 PUSH1 0x2 DUP2 GT ISZERO PUSH2 0x48A JUMPI PUSH2 0x489 PUSH2 0x941 JUMP JUMPDEST JUMPDEST SUB PUSH2 0x50C JUMPI PUSH1 0x0 PUSH1 0x5 DUP1 SLOAD SWAP1 POP GT ISZERO PUSH2 0x4C8 JUMPI PUSH1 0x5 DUP1 SLOAD SWAP1 POP PUSH1 0x4 SLOAD PUSH1 0x3 SLOAD PUSH2 0x4B3 SWAP2 SWAP1 PUSH2 0x99F JUMP JUMPDEST PUSH2 0x4BD SWAP2 SWAP1 PUSH2 0xA02 JUMP JUMPDEST SWAP2 POP PUSH1 0x5 SWAP1 POP PUSH2 0x507 JUMP JUMPDEST PUSH2 0x4E4 PUSH1 0x6 DUP1 DUP1 SLOAD SWAP1 POP PUSH1 0x3 SLOAD PUSH2 0x4DF SWAP2 SWAP1 PUSH2 0xA02 JUMP JUMPDEST PUSH2 0x66A JUMP JUMPDEST PUSH2 0x500 PUSH1 0x7 DUP1 DUP1 SLOAD SWAP1 POP PUSH1 0x4 SLOAD PUSH2 0x4FB SWAP2 SWAP1 PUSH2 0xA02 JUMP JUMPDEST PUSH2 0x66A JUMP JUMPDEST POP POP PUSH2 0x63C JUMP JUMPDEST PUSH2 0x62F JUMP JUMPDEST PUSH1 0x1 PUSH1 0x2 DUP2 GT ISZERO PUSH2 0x520 JUMPI PUSH2 0x51F PUSH2 0x941 JUMP JUMPDEST JUMPDEST DUP4 PUSH1 0x2 DUP2 GT ISZERO PUSH2 0x533 JUMPI PUSH2 0x532 PUSH2 0x941 JUMP JUMPDEST JUMPDEST SUB PUSH2 0x5B5 JUMPI PUSH1 0x0 PUSH1 0x6 DUP1 SLOAD SWAP1 POP GT ISZERO PUSH2 0x571 JUMPI PUSH1 0x6 DUP1 SLOAD SWAP1 POP PUSH1 0x4 SLOAD PUSH1 0x2 SLOAD PUSH2 0x55C SWAP2 SWAP1 PUSH2 0x99F JUMP JUMPDEST PUSH2 0x566 SWAP2 SWAP1 PUSH2 0xA02 JUMP JUMPDEST SWAP2 POP PUSH1 0x6 SWAP1 POP PUSH2 0x5B0 JUMP JUMPDEST PUSH2 0x58D PUSH1 0x5 DUP1 DUP1 SLOAD SWAP1 POP PUSH1 0x2 SLOAD PUSH2 0x588 SWAP2 SWAP1 PUSH2 0xA02 JUMP JUMPDEST PUSH2 0x66A JUMP JUMPDEST PUSH2 0x5A9 PUSH1 0x7 DUP1 DUP1 SLOAD SWAP1 POP PUSH1 0x4 SLOAD PUSH2 0x5A4 SWAP2 SWAP1 PUSH2 0xA02 JUMP JUMPDEST PUSH2 0x66A JUMP JUMPDEST POP POP PUSH2 0x63C JUMP JUMPDEST PUSH2 0x62E JUMP JUMPDEST PUSH1 0x0 PUSH1 0x7 DUP1 SLOAD SWAP1 POP GT ISZERO PUSH2 0x5EE JUMPI PUSH1 0x7 DUP1 SLOAD SWAP1 POP PUSH1 0x3 SLOAD PUSH1 0x2 SLOAD PUSH2 0x5D9 SWAP2 SWAP1 PUSH2 0x99F JUMP JUMPDEST PUSH2 0x5E3 SWAP2 SWAP1 PUSH2 0xA02 JUMP JUMPDEST SWAP2 POP PUSH1 0x7 SWAP1 POP PUSH2 0x62D JUMP JUMPDEST PUSH2 0x60A PUSH1 0x5 DUP1 DUP1 SLOAD SWAP1 POP PUSH1 0x2 SLOAD PUSH2 0x605 SWAP2 SWAP1 PUSH2 0xA02 JUMP JUMPDEST PUSH2 0x66A JUMP JUMPDEST PUSH2 0x626 PUSH1 0x6 DUP1 DUP1 SLOAD SWAP1 POP PUSH1 0x3 SLOAD PUSH2 0x621 SWAP2 SWAP1 PUSH2 0xA02 JUMP JUMPDEST PUSH2 0x66A JUMP JUMPDEST POP POP PUSH2 0x63C JUMP JUMPDEST JUMPDEST JUMPDEST PUSH2 0x639 DUP2 DUP4 PUSH2 0x66A JUMP JUMPDEST POP POP JUMPDEST POP JUMP JUMPDEST PUSH1 0x3 SLOAD DUP2 JUMP JUMPDEST PUSH1 0x1 SLOAD DUP2 JUMP JUMPDEST PUSH1 0x8 PUSH1 0x0 SWAP1 SLOAD SWAP1 PUSH2 0x100 EXP SWAP1 DIV PUSH1 0xFF AND DUP2 JUMP JUMPDEST PUSH1 0x2 SLOAD DUP2 JUMP JUMPDEST PUSH1 0x4 SLOAD DUP2 JUMP JUMPDEST PUSH1 0x0 JUMPDEST DUP3 DUP1 SLOAD SWAP1 POP DUP2 LT ISZERO PUSH2 0x77C JUMPI PUSH1 0x0 DUP4 DUP3 DUP2 SLOAD DUP2 LT PUSH2 0x68E JUMPI PUSH2 0x68D PUSH2 0xA33 JUMP JUMPDEST JUMPDEST SWAP1 PUSH1 0x0 MSTORE PUSH1 0x20 PUSH1 0x0 KECCAK256 ADD PUSH1 0x0 SWAP1 SLOAD SWAP1 PUSH2 0x100 EXP SWAP1 DIV PUSH20 0xFFFFFFFFFFFFFFFFFFFFFFFFFFFFFFFFFFFFFFFF AND SWAP1 POP PUSH1 0x0 DUP2 PUSH20 0xFFFFFFFFFFFFFFFFFFFFFFFFFFFFFFFFFFFFFFFF AND DUP5 PUSH1 0x40 MLOAD PUSH2 0x6E1 SWAP1 PUSH2 0xA93 JUMP JUMPDEST PUSH1 0x0 PUSH1 0x40 MLOAD DUP1 DUP4 SUB DUP2 DUP6 DUP8 GAS CALL SWAP3 POP POP POP RETURNDATASIZE DUP1 PUSH1 0x0 DUP2 EQ PUSH2 0x71E JUMPI PUSH1 0x40 MLOAD SWAP2 POP PUSH1 0x1F NOT PUSH1 0x3F RETURNDATASIZE ADD AND DUP3 ADD PUSH1 0x40 MSTORE RETURNDATASIZE DUP3 MSTORE RETURNDATASIZE PUSH1 0x0 PUSH1 0x20 DUP5 ADD RETURNDATACOPY PUSH2 0x723 JUMP JUMPDEST PUSH1 0x60 SWAP2 POP JUMPDEST POP POP SWAP1 POP DUP1 PUSH2 0x767 JUMPI PUSH1 0x40 MLOAD PUSH32 0x8C379A000000000000000000000000000000000000000000000000000000000 DUP2 MSTORE PUSH1 0x4 ADD PUSH2 0x75E SWAP1 PUSH2 0xAF4 JUMP JUMPDEST PUSH1 0x40 MLOAD DUP1 SWAP2 SUB SWAP1 REVERT JUMPDEST POP POP DUP1 DUP1 PUSH2 0x774 SWAP1 PUSH2 0xB14 JUMP JUMPDEST SWAP2 POP POP PUSH2 0x66D JUMP JUMPDEST POP POP POP JUMP JUMPDEST PUSH1 0x0 PUSH20 0xFFFFFFFFFFFFFFFFFFFFFFFFFFFFFFFFFFFFFFFF DUP3 AND SWAP1 POP SWAP2 SWAP1 POP JUMP JUMPDEST PUSH1 0x0 PUSH2 0x7AC DUP3 PUSH2 0x781 JUMP JUMPDEST SWAP1 POP SWAP2 SWAP1 POP JUMP JUMPDEST PUSH2 0x7BC DUP2 PUSH2 0x7A1 JUMP JUMPDEST DUP3 MSTORE POP POP JUMP JUMPDEST PUSH1 0x0 PUSH1 0x20 DUP3 ADD SWAP1 POP PUSH2 0x7D7 PUSH1 0x0 DUP4 ADD DUP5 PUSH2 0x7B3 JUMP JUMPDEST SWAP3 SWAP2 POP POP JUMP JUMPDEST PUSH1 0x0 DUP1 REVERT JUMPDEST PUSH1 0x3 DUP2 LT PUSH2 0x7EF JUMPI PUSH1 0x0 DUP1 REVERT JUMPDEST POP JUMP JUMPDEST PUSH1 0x0 DUP2 CALLDATALOAD SWAP1 POP PUSH2 0x801 DUP2 PUSH2 0x7E2 JUMP JUMPDEST SWAP3 SWAP2 POP POP JUMP JUMPDEST PUSH1 0x0 PUSH1 0x20 DUP3 DUP5 SUB SLT ISZERO PUSH2 0x81D JUMPI PUSH2 0x81C PUSH2 0x7DD JUMP JUMPDEST JUMPDEST PUSH1 0x0 PUSH2 0x82B DUP5 DUP3 DUP6 ADD PUSH2 0x7F2 JUMP JUMPDEST SWAP2 POP POP SWAP3 SWAP2 POP POP JUMP JUMPDEST PUSH1 0x0 DUP2 SWAP1 POP SWAP2 SWAP1 POP JUMP JUMPDEST PUSH2 0x847 DUP2 PUSH2 0x834 JUMP JUMPDEST DUP3 MSTORE POP POP JUMP JUMPDEST PUSH1 0x0 PUSH1 0x20 DUP3 ADD SWAP1 POP PUSH2 0x862 PUSH1 0x0 DUP4 ADD DUP5 PUSH2 0x83E JUMP JUMPDEST SWAP3 SWAP2 POP POP JUMP JUMPDEST PUSH1 0x0 DUP2 ISZERO ISZERO SWAP1 POP SWAP2 SWAP1 POP JUMP JUMPDEST PUSH2 0x87D DUP2 PUSH2 0x868 JUMP JUMPDEST DUP3 MSTORE POP POP JUMP JUMPDEST PUSH1 0x0 PUSH1 0x20 DUP3 ADD SWAP1 POP PUSH2 0x898 PUSH1 0x0 DUP4 ADD DUP5 PUSH2 0x874 JUMP JUMPDEST SWAP3 SWAP2 POP POP JUMP JUMPDEST PUSH1 0x0 DUP3 DUP3 MSTORE PUSH1 0x20 DUP3 ADD SWAP1 POP SWAP3 SWAP2 POP POP JUMP JUMPDEST PUSH32 0x4265742076616C7565206D7573742062652067726561746572207468616E207A PUSH1 0x0 DUP3 ADD MSTORE PUSH32 0x65726F0000000000000000000000000000000000000000000000000000000000 PUSH1 0x20 DUP3 ADD MSTORE POP JUMP JUMPDEST PUSH1 0x0 PUSH2 0x90B PUSH1 0x23 DUP4 PUSH2 0x89E JUMP JUMPDEST SWAP2 POP PUSH2 0x916 DUP3 PUSH2 0x8AF JUMP JUMPDEST PUSH1 0x40 DUP3 ADD SWAP1 POP SWAP2 SWAP1 POP JUMP JUMPDEST PUSH1 0x0 PUSH1 0x20 DUP3 ADD SWAP1 POP DUP2 DUP2 SUB PUSH1 0x0 DUP4 ADD MSTORE PUSH2 0x93A DUP2 PUSH2 0x8FE JUMP JUMPDEST SWAP1 POP SWAP2 SWAP1 POP JUMP JUMPDEST PUSH32 0x4E487B7100000000000000000000000000000000000000000000000000000000 PUSH1 0x0 MSTORE PUSH1 0x21 PUSH1 0x4 MSTORE PUSH1 0x24 PUSH1 0x0 REVERT JUMPDEST PUSH32 0x4E487B7100000000000000000000000000000000000000000000000000000000 PUSH1 0x0 MSTORE PUSH1 0x11 PUSH1 0x4 MSTORE PUSH1 0x24 PUSH1 0x0 REVERT JUMPDEST PUSH1 0x0 PUSH2 0x9AA DUP3 PUSH2 0x834 JUMP JUMPDEST SWAP2 POP PUSH2 0x9B5 DUP4 PUSH2 0x834 JUMP JUMPDEST SWAP3 POP DUP3 DUP3 ADD SWAP1 POP DUP1 DUP3 GT ISZERO PUSH2 0x9CD JUMPI PUSH2 0x9CC PUSH2 0x970 JUMP JUMPDEST JUMPDEST SWAP3 SWAP2 POP POP JUMP JUMPDEST PUSH32 0x4E487B7100000000000000000000000000000000000000000000000000000000 PUSH1 0x0 MSTORE PUSH1 0x12 PUSH1 0x4 MSTORE PUSH1 0x24 PUSH1 0x0 REVERT JUMPDEST PUSH1 0x0 PUSH2 0xA0D DUP3 PUSH2 0x834 JUMP JUMPDEST SWAP2 POP PUSH2 0xA18 DUP4 PUSH2 0x834 JUMP JUMPDEST SWAP3 POP DUP3 PUSH2 0xA28 JUMPI PUSH2 0xA27 PUSH2 0x9D3 JUMP JUMPDEST JUMPDEST DUP3 DUP3 DIV SWAP1 POP SWAP3 SWAP2 POP POP JUMP JUMPDEST PUSH32 0x4E487B7100000000000000000000000000000000000000000000000000000000 PUSH1 0x0 MSTORE PUSH1 0x32 PUSH1 0x4 MSTORE PUSH1 0x24 PUSH1 0x0 REVERT JUMPDEST PUSH1 0x0 DUP2 SWAP1 POP SWAP3 SWAP2 POP POP JUMP JUMPDEST POP JUMP JUMPDEST PUSH1 0x0 PUSH2 0xA7D PUSH1 0x0 DUP4 PUSH2 0xA62 JUMP JUMPDEST SWAP2 POP PUSH2 0xA88 DUP3 PUSH2 0xA6D JUMP JUMPDEST PUSH1 0x0 DUP3 ADD SWAP1 POP SWAP2 SWAP1 POP JUMP JUMPDEST PUSH1 0x0 PUSH2 0xA9E DUP3 PUSH2 0xA70 JUMP JUMPDEST SWAP2 POP DUP2 SWAP1 POP SWAP2 SWAP1 POP JUMP JUMPDEST PUSH32 0x4661696C656420746F2073656E64204574686572000000000000000000000000 PUSH1 0x0 DUP3 ADD MSTORE POP JUMP JUMPDEST PUSH1 0x0 PUSH2 0xADE PUSH1 0x14 DUP4 PUSH2 0x89E JUMP JUMPDEST SWAP2 POP PUSH2 0xAE9 DUP3 PUSH2 0xAA8 JUMP JUMPDEST PUSH1 0x20 DUP3 ADD SWAP1 POP SWAP2 SWAP1 POP JUMP JUMPDEST PUSH1 0x0 PUSH1 0x20 DUP3 ADD SWAP1 POP DUP2 DUP2 SUB PUSH1 0x0 DUP4 ADD MSTORE PUSH2 0xB0D DUP2 PUSH2 0xAD1 JUMP JUMPDEST SWAP1 POP SWAP2 SWAP1 POP JUMP JUMPDEST PUSH1 0x0 PUSH2 0xB1F DUP3 PUSH2 0x834 JUMP JUMPDEST SWAP2 POP PUSH32 0xFFFFFFFFFFFFFFFFFFFFFFFFFFFFFFFFFFFFFFFFFFFFFFFFFFFFFFFFFFFFFFFF DUP3 SUB PUSH2 0xB51 JUMPI PUSH2 0xB50 PUSH2 0x970 JUMP JUMPDEST JUMPDEST PUSH1 0x1 DUP3 ADD SWAP1 POP SWAP2 SWAP1 POP JUMP INVALID LOG2 PUSH5 0x6970667358 0x22 SLT KECCAK256 0xAA DUP7 0x5F 0xDD CREATE ADDMOD 0xD 0xA7 SLOAD 0xE5 SLOAD CHAINID 0x4D 0xCA 0xEF SELFBALANCE 0xCD CODESIZE 0xED 0xCE PUSH1 0xEE SLT EXP 0x25 PUSH6 0xB3F384DE45A4 PUSH5 0x736F6C6343 STOP ADDMOD GT STOP CALLER "
				},
				"gasEstimates": {
					"creation": {
						"codeDepositCost": "592400",
						"executionCost": "infinite",
						"totalCost": "infinite"
					},
					"external": {
						"awayTeamBetAmount()": "2496",
						"betForResult(uint8)": "infinite",
						"completed()": "2493",
						"drawBetAmount()": "2495",
						"finalizeTheBet(uint8)": "infinite",
						"homeTeamBetAmount()": "2473",
						"manager()": "2512",
						"matchId()": "2429"
					},
					"internal": {
						"sendMoneyToReceivers(address[] storage pointer,uint256)": "infinite"
					}
				},
				"methodIdentifiers": {
					"awayTeamBetAmount()": "707f00d3",
					"betForResult(uint8)": "5e42cf62",
					"completed()": "9d9a7fe9",
					"drawBetAmount()": "f32750ce",
					"finalizeTheBet(uint8)": "6af7a16e",
					"homeTeamBetAmount()": "d13abf62",
					"manager()": "481c6a75",
					"matchId()": "99892e47"
				}
			},
			"storageLayout": {
				"storage": [
					{
						"astId": 7,
						"contract": "src/contracts/bet_contract.sol:FootballBet",
						"label": "manager",
						"offset": 0,
						"slot": "0",
						"type": "t_address"
					},
					{
						"astId": 9,
						"contract": "src/contracts/bet_contract.sol:FootballBet",
						"label": "matchId",
						"offset": 0,
						"slot": "1",
						"type": "t_uint256"
					},
					{
						"astId": 11,
						"contract": "src/contracts/bet_contract.sol:FootballBet",
						"label": "homeTeamBetAmount",
						"offset": 0,
						"slot": "2",
						"type": "t_uint256"
					},
					{
						"astId": 13,
						"contract": "src/contracts/bet_contract.sol:FootballBet",
						"label": "awayTeamBetAmount",
						"offset": 0,
						"slot": "3",
						"type": "t_uint256"
					},
					{
						"astId": 15,
						"contract": "src/contracts/bet_contract.sol:FootballBet",
						"label": "drawBetAmount",
						"offset": 0,
						"slot": "4",
						"type": "t_uint256"
					},
					{
						"astId": 18,
						"contract": "src/contracts/bet_contract.sol:FootballBet",
						"label": "homeTeamWinBettors",
						"offset": 0,
						"slot": "5",
						"type": "t_array(t_address)dyn_storage"
					},
					{
						"astId": 21,
						"contract": "src/contracts/bet_contract.sol:FootballBet",
						"label": "awayTeamWinBettors",
						"offset": 0,
						"slot": "6",
						"type": "t_array(t_address)dyn_storage"
					},
					{
						"astId": 24,
						"contract": "src/contracts/bet_contract.sol:FootballBet",
						"label": "drawBettors",
						"offset": 0,
						"slot": "7",
						"type": "t_array(t_address)dyn_storage"
					},
					{
						"astId": 26,
						"contract": "src/contracts/bet_contract.sol:FootballBet",
						"label": "completed",
						"offset": 0,
						"slot": "8",
						"type": "t_bool"
					}
				],
				"types": {
					"t_address": {
						"encoding": "inplace",
						"label": "address",
						"numberOfBytes": "20"
					},
					"t_array(t_address)dyn_storage": {
						"base": "t_address",
						"encoding": "dynamic_array",
						"label": "address[]",
						"numberOfBytes": "32"
					},
					"t_bool": {
						"encoding": "inplace",
						"label": "bool",
						"numberOfBytes": "1"
					},
					"t_uint256": {
						"encoding": "inplace",
						"label": "uint256",
						"numberOfBytes": "32"
					}
				}
			},
			"userdoc": {
				"kind": "user",
				"methods": {},
				"version": 1
			}
		}
	}
}