{
	"src/contracts/bet_contract.sol": {
		"FootballBet": {
			"abi": [
				{
					"inputs": [
						{
							"internalType": "uint256",
							"name": "_matchId",
							"type": "uint256"
						}
					],
					"stateMutability": "nonpayable",
					"type": "constructor"
				},
				{
					"inputs": [],
					"name": "awayTeamBetAmount",
					"outputs": [
						{
							"internalType": "uint256",
							"name": "",
							"type": "uint256"
						}
					],
					"stateMutability": "view",
					"type": "function"
				},
				{
					"inputs": [
						{
							"internalType": "enum FootballBet.MatchResult",
							"name": "result",
							"type": "uint8"
						}
					],
					"name": "betForTeam",
					"outputs": [],
					"stateMutability": "payable",
					"type": "function"
				},
				{
					"inputs": [],
					"name": "completed",
					"outputs": [
						{
							"internalType": "bool",
							"name": "",
							"type": "bool"
						}
					],
					"stateMutability": "view",
					"type": "function"
				},
				{
					"inputs": [],
					"name": "drawBetAmount",
					"outputs": [
						{
							"internalType": "uint256",
							"name": "",
							"type": "uint256"
						}
					],
					"stateMutability": "view",
					"type": "function"
				},
				{
					"inputs": [
						{
							"internalType": "enum FootballBet.MatchResult",
							"name": "result",
							"type": "uint8"
						}
					],
					"name": "finalizeTheBet",
					"outputs": [],
					"stateMutability": "nonpayable",
					"type": "function"
				},
				{
					"inputs": [],
					"name": "homeTeamBetAmount",
					"outputs": [
						{
							"internalType": "uint256",
							"name": "",
							"type": "uint256"
						}
					],
					"stateMutability": "view",
					"type": "function"
				},
				{
					"inputs": [],
					"name": "manager",
					"outputs": [
						{
							"internalType": "address",
							"name": "",
							"type": "address"
						}
					],
					"stateMutability": "view",
					"type": "function"
				},
				{
					"inputs": [],
					"name": "matchId",
					"outputs": [
						{
							"internalType": "uint256",
							"name": "",
							"type": "uint256"
						}
					],
					"stateMutability": "view",
					"type": "function"
				}
			],
			"devdoc": {
				"kind": "dev",
				"methods": {},
				"version": 1
			},
			"evm": {
				"assembly": "    /* \"src/contracts/bet_contract.sol\":58:2113  contract FootballBet {... */\n  mstore(0x40, 0x80)\n    /* \"src/contracts/bet_contract.sol\":522:614  constructor(uint _matchId) {... */\n  callvalue\n  dup1\n  iszero\n  tag_1\n  jumpi\n  0x00\n  dup1\n  revert\ntag_1:\n  pop\n  mload(0x40)\n  sub(codesize, bytecodeSize)\n  dup1\n  bytecodeSize\n  dup4\n  codecopy\n  dup2\n  dup2\n  add\n  0x40\n  mstore\n  dup2\n  add\n  swap1\n  tag_2\n  swap2\n  swap1\n  tag_3\n  jump\t// in\ntag_2:\n    /* \"src/contracts/bet_contract.sol\":569:577  _matchId */\n  dup1\n    /* \"src/contracts/bet_contract.sol\":559:566  matchId */\n  0x01\n    /* \"src/contracts/bet_contract.sol\":559:577  matchId = _matchId */\n  dup2\n  swap1\n  sstore\n  pop\n    /* \"src/contracts/bet_contract.sol\":597:607  msg.sender */\n  caller\n    /* \"src/contracts/bet_contract.sol\":587:594  manager */\n  0x00\n  dup1\n    /* \"src/contracts/bet_contract.sol\":587:607  manager = msg.sender */\n  0x0100\n  exp\n  dup2\n  sload\n  dup2\n  0xffffffffffffffffffffffffffffffffffffffff\n  mul\n  not\n  and\n  swap1\n  dup4\n  0xffffffffffffffffffffffffffffffffffffffff\n  and\n  mul\n  or\n  swap1\n  sstore\n  pop\n    /* \"src/contracts/bet_contract.sol\":522:614  constructor(uint _matchId) {... */\n  pop\n    /* \"src/contracts/bet_contract.sol\":58:2113  contract FootballBet {... */\n  jump(tag_6)\n    /* \"#utility.yul\":88:205   */\ntag_8:\n    /* \"#utility.yul\":197:198   */\n  0x00\n    /* \"#utility.yul\":194:195   */\n  dup1\n    /* \"#utility.yul\":187:199   */\n  revert\n    /* \"#utility.yul\":334:411   */\ntag_10:\n    /* \"#utility.yul\":371:378   */\n  0x00\n    /* \"#utility.yul\":400:405   */\n  dup2\n    /* \"#utility.yul\":389:405   */\n  swap1\n  pop\n    /* \"#utility.yul\":334:411   */\n  swap2\n  swap1\n  pop\n  jump\t// out\n    /* \"#utility.yul\":417:539   */\ntag_11:\n    /* \"#utility.yul\":490:514   */\n  tag_19\n    /* \"#utility.yul\":508:513   */\n  dup2\n    /* \"#utility.yul\":490:514   */\n  tag_10\n  jump\t// in\ntag_19:\n    /* \"#utility.yul\":483:488   */\n  dup2\n    /* \"#utility.yul\":480:515   */\n  eq\n    /* \"#utility.yul\":470:533   */\n  tag_20\n  jumpi\n    /* \"#utility.yul\":529:530   */\n  0x00\n    /* \"#utility.yul\":526:527   */\n  dup1\n    /* \"#utility.yul\":519:531   */\n  revert\n    /* \"#utility.yul\":470:533   */\ntag_20:\n    /* \"#utility.yul\":417:539   */\n  pop\n  jump\t// out\n    /* \"#utility.yul\":545:688   */\ntag_12:\n    /* \"#utility.yul\":602:607   */\n  0x00\n    /* \"#utility.yul\":633:639   */\n  dup2\n    /* \"#utility.yul\":627:640   */\n  mload\n    /* \"#utility.yul\":618:640   */\n  swap1\n  pop\n    /* \"#utility.yul\":649:682   */\n  tag_22\n    /* \"#utility.yul\":676:681   */\n  dup2\n    /* \"#utility.yul\":649:682   */\n  tag_11\n  jump\t// in\ntag_22:\n    /* \"#utility.yul\":545:688   */\n  swap3\n  swap2\n  pop\n  pop\n  jump\t// out\n    /* \"#utility.yul\":694:1045   */\ntag_3:\n    /* \"#utility.yul\":764:770   */\n  0x00\n    /* \"#utility.yul\":813:815   */\n  0x20\n    /* \"#utility.yul\":801:810   */\n  dup3\n    /* \"#utility.yul\":792:799   */\n  dup5\n    /* \"#utility.yul\":788:811   */\n  sub\n    /* \"#utility.yul\":784:816   */\n  slt\n    /* \"#utility.yul\":781:900   */\n  iszero\n  tag_24\n  jumpi\n    /* \"#utility.yul\":819:898   */\n  tag_25\n  tag_8\n  jump\t// in\ntag_25:\n    /* \"#utility.yul\":781:900   */\ntag_24:\n    /* \"#utility.yul\":939:940   */\n  0x00\n    /* \"#utility.yul\":964:1028   */\n  tag_26\n    /* \"#utility.yul\":1020:1027   */\n  dup5\n    /* \"#utility.yul\":1011:1017   */\n  dup3\n    /* \"#utility.yul\":1000:1009   */\n  dup6\n    /* \"#utility.yul\":996:1018   */\n  add\n    /* \"#utility.yul\":964:1028   */\n  tag_12\n  jump\t// in\ntag_26:\n    /* \"#utility.yul\":954:1028   */\n  swap2\n  pop\n    /* \"#utility.yul\":910:1038   */\n  pop\n    /* \"#utility.yul\":694:1045   */\n  swap3\n  swap2\n  pop\n  pop\n  jump\t// out\n    /* \"src/contracts/bet_contract.sol\":58:2113  contract FootballBet {... */\ntag_6:\n  dataSize(sub_0)\n  dup1\n  dataOffset(sub_0)\n  0x00\n  codecopy\n  0x00\n  return\nstop\n\nsub_0: assembly {\n        /* \"src/contracts/bet_contract.sol\":58:2113  contract FootballBet {... */\n      mstore(0x40, 0x80)\n      jumpi(tag_1, lt(calldatasize, 0x04))\n      shr(0xe0, calldataload(0x00))\n      dup1\n      0x99892e47\n      gt\n      tag_10\n      jumpi\n      dup1\n      0x99892e47\n      eq\n      tag_6\n      jumpi\n      dup1\n      0x9d9a7fe9\n      eq\n      tag_7\n      jumpi\n      dup1\n      0xd13abf62\n      eq\n      tag_8\n      jumpi\n      dup1\n      0xf32750ce\n      eq\n      tag_9\n      jumpi\n      jump(tag_1)\n    tag_10:\n      dup1\n      0x481c6a75\n      eq\n      tag_2\n      jumpi\n      dup1\n      0x6af7a16e\n      eq\n      tag_3\n      jumpi\n      dup1\n      0x707f00d3\n      eq\n      tag_4\n      jumpi\n      dup1\n      0x8bbab51a\n      eq\n      tag_5\n      jumpi\n    tag_1:\n      0x00\n      dup1\n      revert\n        /* \"src/contracts/bet_contract.sol\":135:157  address public manager */\n    tag_2:\n      callvalue\n      dup1\n      iszero\n      tag_11\n      jumpi\n      0x00\n      dup1\n      revert\n    tag_11:\n      pop\n      tag_12\n      tag_13\n      jump\t// in\n    tag_12:\n      mload(0x40)\n      tag_14\n      swap2\n      swap1\n      tag_15\n      jump\t// in\n    tag_14:\n      mload(0x40)\n      dup1\n      swap2\n      sub\n      swap1\n      return\n        /* \"src/contracts/bet_contract.sol\":1082:2111  function finalizeTheBet(MatchResult result) public restricted {... */\n    tag_3:\n      callvalue\n      dup1\n      iszero\n      tag_16\n      jumpi\n      0x00\n      dup1\n      revert\n    tag_16:\n      pop\n      tag_17\n      0x04\n      dup1\n      calldatasize\n      sub\n      dup2\n      add\n      swap1\n      tag_18\n      swap2\n      swap1\n      tag_19\n      jump\t// in\n    tag_18:\n      tag_20\n      jump\t// in\n    tag_17:\n      stop\n        /* \"src/contracts/bet_contract.sol\":223:252  uint public awayTeamBetAmount */\n    tag_4:\n      callvalue\n      dup1\n      iszero\n      tag_21\n      jumpi\n      0x00\n      dup1\n      revert\n    tag_21:\n      pop\n      tag_22\n      tag_23\n      jump\t// in\n    tag_22:\n      mload(0x40)\n      tag_24\n      swap2\n      swap1\n      tag_25\n      jump\t// in\n    tag_24:\n      mload(0x40)\n      dup1\n      swap2\n      sub\n      swap1\n      return\n        /* \"src/contracts/bet_contract.sol\":620:1076  function betForTeam(MatchResult result) public payable {... */\n    tag_5:\n      tag_26\n      0x04\n      dup1\n      calldatasize\n      sub\n      dup2\n      add\n      swap1\n      tag_27\n      swap2\n      swap1\n      tag_19\n      jump\t// in\n    tag_27:\n      tag_28\n      jump\t// in\n    tag_26:\n      stop\n        /* \"src/contracts/bet_contract.sol\":163:182  uint public matchId */\n    tag_6:\n      callvalue\n      dup1\n      iszero\n      tag_29\n      jumpi\n      0x00\n      dup1\n      revert\n    tag_29:\n      pop\n      tag_30\n      tag_31\n      jump\t// in\n    tag_30:\n      mload(0x40)\n      tag_32\n      swap2\n      swap1\n      tag_25\n      jump\t// in\n    tag_32:\n      mload(0x40)\n      dup1\n      swap2\n      sub\n      swap1\n      return\n        /* \"src/contracts/bet_contract.sol\":408:429  bool public completed */\n    tag_7:\n      callvalue\n      dup1\n      iszero\n      tag_33\n      jumpi\n      0x00\n      dup1\n      revert\n    tag_33:\n      pop\n      tag_34\n      tag_35\n      jump\t// in\n    tag_34:\n      mload(0x40)\n      tag_36\n      swap2\n      swap1\n      tag_37\n      jump\t// in\n    tag_36:\n      mload(0x40)\n      dup1\n      swap2\n      sub\n      swap1\n      return\n        /* \"src/contracts/bet_contract.sol\":188:217  uint public homeTeamBetAmount */\n    tag_8:\n      callvalue\n      dup1\n      iszero\n      tag_38\n      jumpi\n      0x00\n      dup1\n      revert\n    tag_38:\n      pop\n      tag_39\n      tag_40\n      jump\t// in\n    tag_39:\n      mload(0x40)\n      tag_41\n      swap2\n      swap1\n      tag_25\n      jump\t// in\n    tag_41:\n      mload(0x40)\n      dup1\n      swap2\n      sub\n      swap1\n      return\n        /* \"src/contracts/bet_contract.sol\":258:283  uint public drawBetAmount */\n    tag_9:\n      callvalue\n      dup1\n      iszero\n      tag_42\n      jumpi\n      0x00\n      dup1\n      revert\n    tag_42:\n      pop\n      tag_43\n      tag_44\n      jump\t// in\n    tag_43:\n      mload(0x40)\n      tag_45\n      swap2\n      swap1\n      tag_25\n      jump\t// in\n    tag_45:\n      mload(0x40)\n      dup1\n      swap2\n      sub\n      swap1\n      return\n        /* \"src/contracts/bet_contract.sol\":135:157  address public manager */\n    tag_13:\n      0x00\n      dup1\n      sload\n      swap1\n      0x0100\n      exp\n      swap1\n      div\n      0xffffffffffffffffffffffffffffffffffffffff\n      and\n      dup2\n      jump\t// out\n        /* \"src/contracts/bet_contract.sol\":1082:2111  function finalizeTheBet(MatchResult result) public restricted {... */\n    tag_20:\n        /* \"src/contracts/bet_contract.sol\":490:497  manager */\n      0x00\n      dup1\n      sload\n      swap1\n      0x0100\n      exp\n      swap1\n      div\n      0xffffffffffffffffffffffffffffffffffffffff\n      and\n        /* \"src/contracts/bet_contract.sol\":476:497  msg.sender == manager */\n      0xffffffffffffffffffffffffffffffffffffffff\n      and\n        /* \"src/contracts/bet_contract.sol\":476:486  msg.sender */\n      caller\n        /* \"src/contracts/bet_contract.sol\":476:497  msg.sender == manager */\n      0xffffffffffffffffffffffffffffffffffffffff\n      and\n      eq\n        /* \"src/contracts/bet_contract.sol\":468:498  require(msg.sender == manager) */\n      tag_47\n      jumpi\n      0x00\n      dup1\n      revert\n    tag_47:\n        /* \"src/contracts/bet_contract.sol\":1154:1173  uint willSendAmount */\n      0x00\n        /* \"src/contracts/bet_contract.sol\":1187:1213  address[] memory receivers */\n      0x60\n        /* \"src/contracts/bet_contract.sol\":1352:1372  MatchResult.HOME_WIN */\n      0x00\n        /* \"src/contracts/bet_contract.sol\":1342:1372  result == MatchResult.HOME_WIN */\n      0x02\n      dup2\n      gt\n      iszero\n      tag_49\n      jumpi\n      tag_50\n      tag_51\n      jump\t// in\n    tag_50:\n    tag_49:\n        /* \"src/contracts/bet_contract.sol\":1342:1348  result */\n      dup4\n        /* \"src/contracts/bet_contract.sol\":1342:1372  result == MatchResult.HOME_WIN */\n      0x02\n      dup2\n      gt\n      iszero\n      tag_52\n      jumpi\n      tag_53\n      tag_51\n      jump\t// in\n    tag_53:\n    tag_52:\n      sub\n        /* \"src/contracts/bet_contract.sol\":1338:1859  if (result == MatchResult.HOME_WIN) {... */\n      tag_54\n      jumpi\n        /* \"src/contracts/bet_contract.sol\":1443:1461  homeTeamWinBettors */\n      0x05\n        /* \"src/contracts/bet_contract.sol\":1443:1468  homeTeamWinBettors.length */\n      dup1\n      sload\n      swap1\n      pop\n        /* \"src/contracts/bet_contract.sol\":1426:1439  drawBetAmount */\n      sload(0x04)\n        /* \"src/contracts/bet_contract.sol\":1406:1423  awayTeamBetAmount */\n      sload(0x03)\n        /* \"src/contracts/bet_contract.sol\":1406:1439  awayTeamBetAmount + drawBetAmount */\n      tag_55\n      swap2\n      swap1\n      tag_56\n      jump\t// in\n    tag_55:\n        /* \"src/contracts/bet_contract.sol\":1405:1468  (awayTeamBetAmount + drawBetAmount) / homeTeamWinBettors.length */\n      tag_57\n      swap2\n      swap1\n      tag_58\n      jump\t// in\n    tag_57:\n        /* \"src/contracts/bet_contract.sol\":1388:1468  willSendAmount = (awayTeamBetAmount + drawBetAmount) / homeTeamWinBettors.length */\n      swap2\n      pop\n        /* \"src/contracts/bet_contract.sol\":1494:1512  homeTeamWinBettors */\n      0x05\n        /* \"src/contracts/bet_contract.sol\":1482:1512  receivers = homeTeamWinBettors */\n      dup1\n      sload\n      dup1\n      0x20\n      mul\n      0x20\n      add\n      mload(0x40)\n      swap1\n      dup2\n      add\n      0x40\n      mstore\n      dup1\n      swap3\n      swap2\n      swap1\n      dup2\n      dup2\n      mstore\n      0x20\n      add\n      dup3\n      dup1\n      sload\n      dup1\n      iszero\n      tag_59\n      jumpi\n      0x20\n      mul\n      dup3\n      add\n      swap2\n      swap1\n      0x00\n      mstore\n      keccak256(0x00, 0x20)\n      swap1\n    tag_60:\n      dup2\n      0x00\n      swap1\n      sload\n      swap1\n      0x0100\n      exp\n      swap1\n      div\n      0xffffffffffffffffffffffffffffffffffffffff\n      and\n      0xffffffffffffffffffffffffffffffffffffffff\n      and\n      dup2\n      mstore\n      0x20\n      add\n      swap1\n      0x01\n      add\n      swap1\n      dup1\n      dup4\n      gt\n      tag_60\n      jumpi\n    tag_59:\n      pop\n      pop\n      pop\n      pop\n      pop\n      swap1\n      pop\n        /* \"src/contracts/bet_contract.sol\":1338:1859  if (result == MatchResult.HOME_WIN) {... */\n      jump(tag_61)\n    tag_54:\n        /* \"src/contracts/bet_contract.sol\":1543:1563  MatchResult.AWAY_WIN */\n      0x01\n        /* \"src/contracts/bet_contract.sol\":1533:1563  result == MatchResult.AWAY_WIN */\n      0x02\n      dup2\n      gt\n      iszero\n      tag_62\n      jumpi\n      tag_63\n      tag_51\n      jump\t// in\n    tag_63:\n    tag_62:\n        /* \"src/contracts/bet_contract.sol\":1533:1539  result */\n      dup4\n        /* \"src/contracts/bet_contract.sol\":1533:1563  result == MatchResult.AWAY_WIN */\n      0x02\n      dup2\n      gt\n      iszero\n      tag_64\n      jumpi\n      tag_65\n      tag_51\n      jump\t// in\n    tag_65:\n    tag_64:\n      sub\n        /* \"src/contracts/bet_contract.sol\":1529:1859  if (result == MatchResult.AWAY_WIN) {... */\n      tag_66\n      jumpi\n        /* \"src/contracts/bet_contract.sol\":1634:1652  awayTeamWinBettors */\n      0x06\n        /* \"src/contracts/bet_contract.sol\":1634:1659  awayTeamWinBettors.length */\n      dup1\n      sload\n      swap1\n      pop\n        /* \"src/contracts/bet_contract.sol\":1617:1630  drawBetAmount */\n      sload(0x04)\n        /* \"src/contracts/bet_contract.sol\":1597:1614  homeTeamBetAmount */\n      sload(0x02)\n        /* \"src/contracts/bet_contract.sol\":1597:1630  homeTeamBetAmount + drawBetAmount */\n      tag_67\n      swap2\n      swap1\n      tag_56\n      jump\t// in\n    tag_67:\n        /* \"src/contracts/bet_contract.sol\":1596:1659  (homeTeamBetAmount + drawBetAmount) / awayTeamWinBettors.length */\n      tag_68\n      swap2\n      swap1\n      tag_58\n      jump\t// in\n    tag_68:\n        /* \"src/contracts/bet_contract.sol\":1579:1659  willSendAmount = (homeTeamBetAmount + drawBetAmount) / awayTeamWinBettors.length */\n      swap2\n      pop\n        /* \"src/contracts/bet_contract.sol\":1685:1703  awayTeamWinBettors */\n      0x06\n        /* \"src/contracts/bet_contract.sol\":1673:1703  receivers = awayTeamWinBettors */\n      dup1\n      sload\n      dup1\n      0x20\n      mul\n      0x20\n      add\n      mload(0x40)\n      swap1\n      dup2\n      add\n      0x40\n      mstore\n      dup1\n      swap3\n      swap2\n      swap1\n      dup2\n      dup2\n      mstore\n      0x20\n      add\n      dup3\n      dup1\n      sload\n      dup1\n      iszero\n      tag_69\n      jumpi\n      0x20\n      mul\n      dup3\n      add\n      swap2\n      swap1\n      0x00\n      mstore\n      keccak256(0x00, 0x20)\n      swap1\n    tag_70:\n      dup2\n      0x00\n      swap1\n      sload\n      swap1\n      0x0100\n      exp\n      swap1\n      div\n      0xffffffffffffffffffffffffffffffffffffffff\n      and\n      0xffffffffffffffffffffffffffffffffffffffff\n      and\n      dup2\n      mstore\n      0x20\n      add\n      swap1\n      0x01\n      add\n      swap1\n      dup1\n      dup4\n      gt\n      tag_70\n      jumpi\n    tag_69:\n      pop\n      pop\n      pop\n      pop\n      pop\n      swap1\n      pop\n        /* \"src/contracts/bet_contract.sol\":1529:1859  if (result == MatchResult.AWAY_WIN) {... */\n      jump(tag_71)\n    tag_66:\n        /* \"src/contracts/bet_contract.sol\":1793:1804  drawBettors */\n      0x07\n        /* \"src/contracts/bet_contract.sol\":1793:1811  drawBettors.length */\n      dup1\n      sload\n      swap1\n      pop\n        /* \"src/contracts/bet_contract.sol\":1772:1789  awayTeamBetAmount */\n      sload(0x03)\n        /* \"src/contracts/bet_contract.sol\":1752:1769  homeTeamBetAmount */\n      sload(0x02)\n        /* \"src/contracts/bet_contract.sol\":1752:1789  homeTeamBetAmount + awayTeamBetAmount */\n      tag_72\n      swap2\n      swap1\n      tag_56\n      jump\t// in\n    tag_72:\n        /* \"src/contracts/bet_contract.sol\":1751:1811  (homeTeamBetAmount + awayTeamBetAmount) / drawBettors.length */\n      tag_73\n      swap2\n      swap1\n      tag_58\n      jump\t// in\n    tag_73:\n        /* \"src/contracts/bet_contract.sol\":1734:1811  willSendAmount = (homeTeamBetAmount + awayTeamBetAmount) / drawBettors.length */\n      swap2\n      pop\n        /* \"src/contracts/bet_contract.sol\":1837:1848  drawBettors */\n      0x07\n        /* \"src/contracts/bet_contract.sol\":1825:1848  receivers = drawBettors */\n      dup1\n      sload\n      dup1\n      0x20\n      mul\n      0x20\n      add\n      mload(0x40)\n      swap1\n      dup2\n      add\n      0x40\n      mstore\n      dup1\n      swap3\n      swap2\n      swap1\n      dup2\n      dup2\n      mstore\n      0x20\n      add\n      dup3\n      dup1\n      sload\n      dup1\n      iszero\n      tag_74\n      jumpi\n      0x20\n      mul\n      dup3\n      add\n      swap2\n      swap1\n      0x00\n      mstore\n      keccak256(0x00, 0x20)\n      swap1\n    tag_75:\n      dup2\n      0x00\n      swap1\n      sload\n      swap1\n      0x0100\n      exp\n      swap1\n      div\n      0xffffffffffffffffffffffffffffffffffffffff\n      and\n      0xffffffffffffffffffffffffffffffffffffffff\n      and\n      dup2\n      mstore\n      0x20\n      add\n      swap1\n      0x01\n      add\n      swap1\n      dup1\n      dup4\n      gt\n      tag_75\n      jumpi\n    tag_74:\n      pop\n      pop\n      pop\n      pop\n      pop\n      swap1\n      pop\n        /* \"src/contracts/bet_contract.sol\":1529:1859  if (result == MatchResult.AWAY_WIN) {... */\n    tag_71:\n        /* \"src/contracts/bet_contract.sol\":1338:1859  if (result == MatchResult.HOME_WIN) {... */\n    tag_61:\n        /* \"src/contracts/bet_contract.sol\":1874:1884  uint index */\n      0x00\n        /* \"src/contracts/bet_contract.sol\":1869:2105  for (uint index = 0; index < receivers.length; index++) {... */\n    tag_76:\n        /* \"src/contracts/bet_contract.sol\":1898:1907  receivers */\n      dup2\n        /* \"src/contracts/bet_contract.sol\":1898:1914  receivers.length */\n      mload\n        /* \"src/contracts/bet_contract.sol\":1890:1895  index */\n      dup2\n        /* \"src/contracts/bet_contract.sol\":1890:1914  index < receivers.length */\n      lt\n        /* \"src/contracts/bet_contract.sol\":1869:2105  for (uint index = 0; index < receivers.length; index++) {... */\n      iszero\n      tag_77\n      jumpi\n        /* \"src/contracts/bet_contract.sol\":1939:1955  address receiver */\n      0x00\n        /* \"src/contracts/bet_contract.sol\":1958:1967  receivers */\n      dup3\n        /* \"src/contracts/bet_contract.sol\":1968:1973  index */\n      dup3\n        /* \"src/contracts/bet_contract.sol\":1958:1974  receivers[index] */\n      dup2\n      mload\n      dup2\n      lt\n      tag_79\n      jumpi\n      tag_80\n      tag_81\n      jump\t// in\n    tag_80:\n    tag_79:\n      0x20\n      mul\n      0x20\n      add\n      add\n      mload\n        /* \"src/contracts/bet_contract.sol\":1939:1974  address receiver = receivers[index] */\n      swap1\n      pop\n        /* \"src/contracts/bet_contract.sol\":1989:1998  bool sent */\n      0x00\n        /* \"src/contracts/bet_contract.sol\":2003:2011  receiver */\n      dup2\n        /* \"src/contracts/bet_contract.sol\":2003:2016  receiver.call */\n      0xffffffffffffffffffffffffffffffffffffffff\n      and\n        /* \"src/contracts/bet_contract.sol\":2024:2038  willSendAmount */\n      dup6\n        /* \"src/contracts/bet_contract.sol\":2003:2043  receiver.call{value: willSendAmount}(\"\") */\n      mload(0x40)\n      tag_82\n      swap1\n      tag_83\n      jump\t// in\n    tag_82:\n      0x00\n      mload(0x40)\n      dup1\n      dup4\n      sub\n      dup2\n      dup6\n      dup8\n      gas\n      call\n      swap3\n      pop\n      pop\n      pop\n      returndatasize\n      dup1\n      0x00\n      dup2\n      eq\n      tag_86\n      jumpi\n      mload(0x40)\n      swap2\n      pop\n      and(add(returndatasize, 0x3f), not(0x1f))\n      dup3\n      add\n      0x40\n      mstore\n      returndatasize\n      dup3\n      mstore\n      returndatasize\n      0x00\n      0x20\n      dup5\n      add\n      returndatacopy\n      jump(tag_85)\n    tag_86:\n      0x60\n      swap2\n      pop\n    tag_85:\n      pop\n        /* \"src/contracts/bet_contract.sol\":1988:2043  (bool sent,) = receiver.call{value: willSendAmount}(\"\") */\n      pop\n      swap1\n      pop\n        /* \"src/contracts/bet_contract.sol\":2065:2069  sent */\n      dup1\n        /* \"src/contracts/bet_contract.sol\":2057:2094  require(sent, \"Failed to send Ether\") */\n      tag_87\n      jumpi\n      mload(0x40)\n      0x08c379a000000000000000000000000000000000000000000000000000000000\n      dup2\n      mstore\n      0x04\n      add\n      tag_88\n      swap1\n      tag_89\n      jump\t// in\n    tag_88:\n      mload(0x40)\n      dup1\n      swap2\n      sub\n      swap1\n      revert\n    tag_87:\n        /* \"src/contracts/bet_contract.sol\":1925:2105  {... */\n      pop\n      pop\n        /* \"src/contracts/bet_contract.sol\":1916:1923  index++ */\n      dup1\n      dup1\n      tag_90\n      swap1\n      tag_91\n      jump\t// in\n    tag_90:\n      swap2\n      pop\n      pop\n        /* \"src/contracts/bet_contract.sol\":1869:2105  for (uint index = 0; index < receivers.length; index++) {... */\n      jump(tag_76)\n    tag_77:\n      pop\n        /* \"src/contracts/bet_contract.sol\":1144:2111  {... */\n      pop\n      pop\n        /* \"src/contracts/bet_contract.sol\":1082:2111  function finalizeTheBet(MatchResult result) public restricted {... */\n      pop\n      jump\t// out\n        /* \"src/contracts/bet_contract.sol\":223:252  uint public awayTeamBetAmount */\n    tag_23:\n      sload(0x03)\n      dup2\n      jump\t// out\n        /* \"src/contracts/bet_contract.sol\":620:1076  function betForTeam(MatchResult result) public payable {... */\n    tag_28:\n        /* \"src/contracts/bet_contract.sol\":699:719  MatchResult.HOME_WIN */\n      0x00\n        /* \"src/contracts/bet_contract.sol\":689:719  result == MatchResult.HOME_WIN */\n      0x02\n      dup2\n      gt\n      iszero\n      tag_93\n      jumpi\n      tag_94\n      tag_51\n      jump\t// in\n    tag_94:\n    tag_93:\n        /* \"src/contracts/bet_contract.sol\":689:695  result */\n      dup2\n        /* \"src/contracts/bet_contract.sol\":689:719  result == MatchResult.HOME_WIN */\n      0x02\n      dup2\n      gt\n      iszero\n      tag_95\n      jumpi\n      tag_96\n      tag_51\n      jump\t// in\n    tag_96:\n    tag_95:\n      sub\n        /* \"src/contracts/bet_contract.sol\":685:1070  if (result == MatchResult.HOME_WIN) {... */\n      tag_97\n      jumpi\n        /* \"src/contracts/bet_contract.sol\":756:765  msg.value */\n      callvalue\n        /* \"src/contracts/bet_contract.sol\":735:752  homeTeamBetAmount */\n      0x02\n      0x00\n        /* \"src/contracts/bet_contract.sol\":735:765  homeTeamBetAmount += msg.value */\n      dup3\n      dup3\n      sload\n      tag_98\n      swap2\n      swap1\n      tag_56\n      jump\t// in\n    tag_98:\n      swap3\n      pop\n      pop\n      dup2\n      swap1\n      sstore\n      pop\n        /* \"src/contracts/bet_contract.sol\":779:797  homeTeamWinBettors */\n      0x05\n        /* \"src/contracts/bet_contract.sol\":803:813  msg.sender */\n      caller\n        /* \"src/contracts/bet_contract.sol\":779:814  homeTeamWinBettors.push(msg.sender) */\n      swap1\n      dup1\n      0x01\n      dup2\n      sload\n      add\n      dup1\n      dup3\n      sstore\n      dup1\n      swap2\n      pop\n      pop\n      0x01\n      swap1\n      sub\n      swap1\n      0x00\n      mstore\n      keccak256(0x00, 0x20)\n      add\n      0x00\n      swap1\n      swap2\n      swap1\n      swap2\n      swap1\n      swap2\n      0x0100\n      exp\n      dup2\n      sload\n      dup2\n      0xffffffffffffffffffffffffffffffffffffffff\n      mul\n      not\n      and\n      swap1\n      dup4\n      0xffffffffffffffffffffffffffffffffffffffff\n      and\n      mul\n      or\n      swap1\n      sstore\n      pop\n        /* \"src/contracts/bet_contract.sol\":685:1070  if (result == MatchResult.HOME_WIN) {... */\n      jump(tag_100)\n    tag_97:\n        /* \"src/contracts/bet_contract.sol\":845:865  MatchResult.AWAY_WIN */\n      0x01\n        /* \"src/contracts/bet_contract.sol\":835:865  result == MatchResult.AWAY_WIN */\n      0x02\n      dup2\n      gt\n      iszero\n      tag_101\n      jumpi\n      tag_102\n      tag_51\n      jump\t// in\n    tag_102:\n    tag_101:\n        /* \"src/contracts/bet_contract.sol\":835:841  result */\n      dup2\n        /* \"src/contracts/bet_contract.sol\":835:865  result == MatchResult.AWAY_WIN */\n      0x02\n      dup2\n      gt\n      iszero\n      tag_103\n      jumpi\n      tag_104\n      tag_51\n      jump\t// in\n    tag_104:\n    tag_103:\n      sub\n        /* \"src/contracts/bet_contract.sol\":831:1070  if (result == MatchResult.AWAY_WIN) {... */\n      tag_105\n      jumpi\n        /* \"src/contracts/bet_contract.sol\":902:911  msg.value */\n      callvalue\n        /* \"src/contracts/bet_contract.sol\":881:898  awayTeamBetAmount */\n      0x03\n      0x00\n        /* \"src/contracts/bet_contract.sol\":881:911  awayTeamBetAmount += msg.value */\n      dup3\n      dup3\n      sload\n      tag_106\n      swap2\n      swap1\n      tag_56\n      jump\t// in\n    tag_106:\n      swap3\n      pop\n      pop\n      dup2\n      swap1\n      sstore\n      pop\n        /* \"src/contracts/bet_contract.sol\":925:943  homeTeamWinBettors */\n      0x05\n        /* \"src/contracts/bet_contract.sol\":949:959  msg.sender */\n      caller\n        /* \"src/contracts/bet_contract.sol\":925:960  homeTeamWinBettors.push(msg.sender) */\n      swap1\n      dup1\n      0x01\n      dup2\n      sload\n      add\n      dup1\n      dup3\n      sstore\n      dup1\n      swap2\n      pop\n      pop\n      0x01\n      swap1\n      sub\n      swap1\n      0x00\n      mstore\n      keccak256(0x00, 0x20)\n      add\n      0x00\n      swap1\n      swap2\n      swap1\n      swap2\n      swap1\n      swap2\n      0x0100\n      exp\n      dup2\n      sload\n      dup2\n      0xffffffffffffffffffffffffffffffffffffffff\n      mul\n      not\n      and\n      swap1\n      dup4\n      0xffffffffffffffffffffffffffffffffffffffff\n      and\n      mul\n      or\n      swap1\n      sstore\n      pop\n        /* \"src/contracts/bet_contract.sol\":831:1070  if (result == MatchResult.AWAY_WIN) {... */\n      jump(tag_108)\n    tag_105:\n        /* \"src/contracts/bet_contract.sol\":1008:1017  msg.value */\n      callvalue\n        /* \"src/contracts/bet_contract.sol\":991:1004  drawBetAmount */\n      0x04\n      0x00\n        /* \"src/contracts/bet_contract.sol\":991:1017  drawBetAmount += msg.value */\n      dup3\n      dup3\n      sload\n      tag_109\n      swap2\n      swap1\n      tag_56\n      jump\t// in\n    tag_109:\n      swap3\n      pop\n      pop\n      dup2\n      swap1\n      sstore\n      pop\n        /* \"src/contracts/bet_contract.sol\":1031:1042  drawBettors */\n      0x07\n        /* \"src/contracts/bet_contract.sol\":1048:1058  msg.sender */\n      caller\n        /* \"src/contracts/bet_contract.sol\":1031:1059  drawBettors.push(msg.sender) */\n      swap1\n      dup1\n      0x01\n      dup2\n      sload\n      add\n      dup1\n      dup3\n      sstore\n      dup1\n      swap2\n      pop\n      pop\n      0x01\n      swap1\n      sub\n      swap1\n      0x00\n      mstore\n      keccak256(0x00, 0x20)\n      add\n      0x00\n      swap1\n      swap2\n      swap1\n      swap2\n      swap1\n      swap2\n      0x0100\n      exp\n      dup2\n      sload\n      dup2\n      0xffffffffffffffffffffffffffffffffffffffff\n      mul\n      not\n      and\n      swap1\n      dup4\n      0xffffffffffffffffffffffffffffffffffffffff\n      and\n      mul\n      or\n      swap1\n      sstore\n      pop\n        /* \"src/contracts/bet_contract.sol\":831:1070  if (result == MatchResult.AWAY_WIN) {... */\n    tag_108:\n        /* \"src/contracts/bet_contract.sol\":685:1070  if (result == MatchResult.HOME_WIN) {... */\n    tag_100:\n        /* \"src/contracts/bet_contract.sol\":620:1076  function betForTeam(MatchResult result) public payable {... */\n      pop\n      jump\t// out\n        /* \"src/contracts/bet_contract.sol\":163:182  uint public matchId */\n    tag_31:\n      sload(0x01)\n      dup2\n      jump\t// out\n        /* \"src/contracts/bet_contract.sol\":408:429  bool public completed */\n    tag_35:\n      0x08\n      0x00\n      swap1\n      sload\n      swap1\n      0x0100\n      exp\n      swap1\n      div\n      0xff\n      and\n      dup2\n      jump\t// out\n        /* \"src/contracts/bet_contract.sol\":188:217  uint public homeTeamBetAmount */\n    tag_40:\n      sload(0x02)\n      dup2\n      jump\t// out\n        /* \"src/contracts/bet_contract.sol\":258:283  uint public drawBetAmount */\n    tag_44:\n      sload(0x04)\n      dup2\n      jump\t// out\n        /* \"#utility.yul\":7:133   */\n    tag_111:\n        /* \"#utility.yul\":44:51   */\n      0x00\n        /* \"#utility.yul\":84:126   */\n      0xffffffffffffffffffffffffffffffffffffffff\n        /* \"#utility.yul\":77:82   */\n      dup3\n        /* \"#utility.yul\":73:127   */\n      and\n        /* \"#utility.yul\":62:127   */\n      swap1\n      pop\n        /* \"#utility.yul\":7:133   */\n      swap2\n      swap1\n      pop\n      jump\t// out\n        /* \"#utility.yul\":139:235   */\n    tag_112:\n        /* \"#utility.yul\":176:183   */\n      0x00\n        /* \"#utility.yul\":205:229   */\n      tag_134\n        /* \"#utility.yul\":223:228   */\n      dup3\n        /* \"#utility.yul\":205:229   */\n      tag_111\n      jump\t// in\n    tag_134:\n        /* \"#utility.yul\":194:229   */\n      swap1\n      pop\n        /* \"#utility.yul\":139:235   */\n      swap2\n      swap1\n      pop\n      jump\t// out\n        /* \"#utility.yul\":241:359   */\n    tag_113:\n        /* \"#utility.yul\":328:352   */\n      tag_136\n        /* \"#utility.yul\":346:351   */\n      dup2\n        /* \"#utility.yul\":328:352   */\n      tag_112\n      jump\t// in\n    tag_136:\n        /* \"#utility.yul\":323:326   */\n      dup3\n        /* \"#utility.yul\":316:353   */\n      mstore\n        /* \"#utility.yul\":241:359   */\n      pop\n      pop\n      jump\t// out\n        /* \"#utility.yul\":365:587   */\n    tag_15:\n        /* \"#utility.yul\":458:462   */\n      0x00\n        /* \"#utility.yul\":496:498   */\n      0x20\n        /* \"#utility.yul\":485:494   */\n      dup3\n        /* \"#utility.yul\":481:499   */\n      add\n        /* \"#utility.yul\":473:499   */\n      swap1\n      pop\n        /* \"#utility.yul\":509:580   */\n      tag_138\n        /* \"#utility.yul\":577:578   */\n      0x00\n        /* \"#utility.yul\":566:575   */\n      dup4\n        /* \"#utility.yul\":562:579   */\n      add\n        /* \"#utility.yul\":553:559   */\n      dup5\n        /* \"#utility.yul\":509:580   */\n      tag_113\n      jump\t// in\n    tag_138:\n        /* \"#utility.yul\":365:587   */\n      swap3\n      swap2\n      pop\n      pop\n      jump\t// out\n        /* \"#utility.yul\":674:791   */\n    tag_115:\n        /* \"#utility.yul\":783:784   */\n      0x00\n        /* \"#utility.yul\":780:781   */\n      dup1\n        /* \"#utility.yul\":773:785   */\n      revert\n        /* \"#utility.yul\":920:1032   */\n    tag_117:\n        /* \"#utility.yul\":1006:1007   */\n      0x03\n        /* \"#utility.yul\":999:1004   */\n      dup2\n        /* \"#utility.yul\":996:1008   */\n      lt\n        /* \"#utility.yul\":986:1026   */\n      tag_143\n      jumpi\n        /* \"#utility.yul\":1022:1023   */\n      0x00\n        /* \"#utility.yul\":1019:1020   */\n      dup1\n        /* \"#utility.yul\":1012:1024   */\n      revert\n        /* \"#utility.yul\":986:1026   */\n    tag_143:\n        /* \"#utility.yul\":920:1032   */\n      pop\n      jump\t// out\n        /* \"#utility.yul\":1038:1203   */\n    tag_118:\n        /* \"#utility.yul\":1097:1102   */\n      0x00\n        /* \"#utility.yul\":1135:1141   */\n      dup2\n        /* \"#utility.yul\":1122:1142   */\n      calldataload\n        /* \"#utility.yul\":1113:1142   */\n      swap1\n      pop\n        /* \"#utility.yul\":1151:1197   */\n      tag_145\n        /* \"#utility.yul\":1191:1196   */\n      dup2\n        /* \"#utility.yul\":1151:1197   */\n      tag_117\n      jump\t// in\n    tag_145:\n        /* \"#utility.yul\":1038:1203   */\n      swap3\n      swap2\n      pop\n      pop\n      jump\t// out\n        /* \"#utility.yul\":1209:1564   */\n    tag_19:\n        /* \"#utility.yul\":1281:1287   */\n      0x00\n        /* \"#utility.yul\":1330:1332   */\n      0x20\n        /* \"#utility.yul\":1318:1327   */\n      dup3\n        /* \"#utility.yul\":1309:1316   */\n      dup5\n        /* \"#utility.yul\":1305:1328   */\n      sub\n        /* \"#utility.yul\":1301:1333   */\n      slt\n        /* \"#utility.yul\":1298:1417   */\n      iszero\n      tag_147\n      jumpi\n        /* \"#utility.yul\":1336:1415   */\n      tag_148\n      tag_115\n      jump\t// in\n    tag_148:\n        /* \"#utility.yul\":1298:1417   */\n    tag_147:\n        /* \"#utility.yul\":1456:1457   */\n      0x00\n        /* \"#utility.yul\":1481:1547   */\n      tag_149\n        /* \"#utility.yul\":1539:1546   */\n      dup5\n        /* \"#utility.yul\":1530:1536   */\n      dup3\n        /* \"#utility.yul\":1519:1528   */\n      dup6\n        /* \"#utility.yul\":1515:1537   */\n      add\n        /* \"#utility.yul\":1481:1547   */\n      tag_118\n      jump\t// in\n    tag_149:\n        /* \"#utility.yul\":1471:1547   */\n      swap2\n      pop\n        /* \"#utility.yul\":1427:1557   */\n      pop\n        /* \"#utility.yul\":1209:1564   */\n      swap3\n      swap2\n      pop\n      pop\n      jump\t// out\n        /* \"#utility.yul\":1570:1647   */\n    tag_119:\n        /* \"#utility.yul\":1607:1614   */\n      0x00\n        /* \"#utility.yul\":1636:1641   */\n      dup2\n        /* \"#utility.yul\":1625:1641   */\n      swap1\n      pop\n        /* \"#utility.yul\":1570:1647   */\n      swap2\n      swap1\n      pop\n      jump\t// out\n        /* \"#utility.yul\":1653:1771   */\n    tag_120:\n        /* \"#utility.yul\":1740:1764   */\n      tag_152\n        /* \"#utility.yul\":1758:1763   */\n      dup2\n        /* \"#utility.yul\":1740:1764   */\n      tag_119\n      jump\t// in\n    tag_152:\n        /* \"#utility.yul\":1735:1738   */\n      dup3\n        /* \"#utility.yul\":1728:1765   */\n      mstore\n        /* \"#utility.yul\":1653:1771   */\n      pop\n      pop\n      jump\t// out\n        /* \"#utility.yul\":1777:1999   */\n    tag_25:\n        /* \"#utility.yul\":1870:1874   */\n      0x00\n        /* \"#utility.yul\":1908:1910   */\n      0x20\n        /* \"#utility.yul\":1897:1906   */\n      dup3\n        /* \"#utility.yul\":1893:1911   */\n      add\n        /* \"#utility.yul\":1885:1911   */\n      swap1\n      pop\n        /* \"#utility.yul\":1921:1992   */\n      tag_154\n        /* \"#utility.yul\":1989:1990   */\n      0x00\n        /* \"#utility.yul\":1978:1987   */\n      dup4\n        /* \"#utility.yul\":1974:1991   */\n      add\n        /* \"#utility.yul\":1965:1971   */\n      dup5\n        /* \"#utility.yul\":1921:1992   */\n      tag_120\n      jump\t// in\n    tag_154:\n        /* \"#utility.yul\":1777:1999   */\n      swap3\n      swap2\n      pop\n      pop\n      jump\t// out\n        /* \"#utility.yul\":2005:2095   */\n    tag_121:\n        /* \"#utility.yul\":2039:2046   */\n      0x00\n        /* \"#utility.yul\":2082:2087   */\n      dup2\n        /* \"#utility.yul\":2075:2088   */\n      iszero\n        /* \"#utility.yul\":2068:2089   */\n      iszero\n        /* \"#utility.yul\":2057:2089   */\n      swap1\n      pop\n        /* \"#utility.yul\":2005:2095   */\n      swap2\n      swap1\n      pop\n      jump\t// out\n        /* \"#utility.yul\":2101:2210   */\n    tag_122:\n        /* \"#utility.yul\":2182:2203   */\n      tag_157\n        /* \"#utility.yul\":2197:2202   */\n      dup2\n        /* \"#utility.yul\":2182:2203   */\n      tag_121\n      jump\t// in\n    tag_157:\n        /* \"#utility.yul\":2177:2180   */\n      dup3\n        /* \"#utility.yul\":2170:2204   */\n      mstore\n        /* \"#utility.yul\":2101:2210   */\n      pop\n      pop\n      jump\t// out\n        /* \"#utility.yul\":2216:2426   */\n    tag_37:\n        /* \"#utility.yul\":2303:2307   */\n      0x00\n        /* \"#utility.yul\":2341:2343   */\n      0x20\n        /* \"#utility.yul\":2330:2339   */\n      dup3\n        /* \"#utility.yul\":2326:2344   */\n      add\n        /* \"#utility.yul\":2318:2344   */\n      swap1\n      pop\n        /* \"#utility.yul\":2354:2419   */\n      tag_159\n        /* \"#utility.yul\":2416:2417   */\n      0x00\n        /* \"#utility.yul\":2405:2414   */\n      dup4\n        /* \"#utility.yul\":2401:2418   */\n      add\n        /* \"#utility.yul\":2392:2398   */\n      dup5\n        /* \"#utility.yul\":2354:2419   */\n      tag_122\n      jump\t// in\n    tag_159:\n        /* \"#utility.yul\":2216:2426   */\n      swap3\n      swap2\n      pop\n      pop\n      jump\t// out\n        /* \"#utility.yul\":2432:2612   */\n    tag_51:\n        /* \"#utility.yul\":2480:2557   */\n      0x4e487b7100000000000000000000000000000000000000000000000000000000\n        /* \"#utility.yul\":2477:2478   */\n      0x00\n        /* \"#utility.yul\":2470:2558   */\n      mstore\n        /* \"#utility.yul\":2577:2581   */\n      0x21\n        /* \"#utility.yul\":2574:2575   */\n      0x04\n        /* \"#utility.yul\":2567:2582   */\n      mstore\n        /* \"#utility.yul\":2601:2605   */\n      0x24\n        /* \"#utility.yul\":2598:2599   */\n      0x00\n        /* \"#utility.yul\":2591:2606   */\n      revert\n        /* \"#utility.yul\":2618:2798   */\n    tag_123:\n        /* \"#utility.yul\":2666:2743   */\n      0x4e487b7100000000000000000000000000000000000000000000000000000000\n        /* \"#utility.yul\":2663:2664   */\n      0x00\n        /* \"#utility.yul\":2656:2744   */\n      mstore\n        /* \"#utility.yul\":2763:2767   */\n      0x11\n        /* \"#utility.yul\":2760:2761   */\n      0x04\n        /* \"#utility.yul\":2753:2768   */\n      mstore\n        /* \"#utility.yul\":2787:2791   */\n      0x24\n        /* \"#utility.yul\":2784:2785   */\n      0x00\n        /* \"#utility.yul\":2777:2792   */\n      revert\n        /* \"#utility.yul\":2804:2995   */\n    tag_56:\n        /* \"#utility.yul\":2844:2847   */\n      0x00\n        /* \"#utility.yul\":2863:2883   */\n      tag_163\n        /* \"#utility.yul\":2881:2882   */\n      dup3\n        /* \"#utility.yul\":2863:2883   */\n      tag_119\n      jump\t// in\n    tag_163:\n        /* \"#utility.yul\":2858:2883   */\n      swap2\n      pop\n        /* \"#utility.yul\":2897:2917   */\n      tag_164\n        /* \"#utility.yul\":2915:2916   */\n      dup4\n        /* \"#utility.yul\":2897:2917   */\n      tag_119\n      jump\t// in\n    tag_164:\n        /* \"#utility.yul\":2892:2917   */\n      swap3\n      pop\n        /* \"#utility.yul\":2940:2941   */\n      dup3\n        /* \"#utility.yul\":2937:2938   */\n      dup3\n        /* \"#utility.yul\":2933:2942   */\n      add\n        /* \"#utility.yul\":2926:2942   */\n      swap1\n      pop\n        /* \"#utility.yul\":2961:2964   */\n      dup1\n        /* \"#utility.yul\":2958:2959   */\n      dup3\n        /* \"#utility.yul\":2955:2965   */\n      gt\n        /* \"#utility.yul\":2952:2988   */\n      iszero\n      tag_165\n      jumpi\n        /* \"#utility.yul\":2968:2986   */\n      tag_166\n      tag_123\n      jump\t// in\n    tag_166:\n        /* \"#utility.yul\":2952:2988   */\n    tag_165:\n        /* \"#utility.yul\":2804:2995   */\n      swap3\n      swap2\n      pop\n      pop\n      jump\t// out\n        /* \"#utility.yul\":3001:3181   */\n    tag_124:\n        /* \"#utility.yul\":3049:3126   */\n      0x4e487b7100000000000000000000000000000000000000000000000000000000\n        /* \"#utility.yul\":3046:3047   */\n      0x00\n        /* \"#utility.yul\":3039:3127   */\n      mstore\n        /* \"#utility.yul\":3146:3150   */\n      0x12\n        /* \"#utility.yul\":3143:3144   */\n      0x04\n        /* \"#utility.yul\":3136:3151   */\n      mstore\n        /* \"#utility.yul\":3170:3174   */\n      0x24\n        /* \"#utility.yul\":3167:3168   */\n      0x00\n        /* \"#utility.yul\":3160:3175   */\n      revert\n        /* \"#utility.yul\":3187:3372   */\n    tag_58:\n        /* \"#utility.yul\":3227:3228   */\n      0x00\n        /* \"#utility.yul\":3244:3264   */\n      tag_169\n        /* \"#utility.yul\":3262:3263   */\n      dup3\n        /* \"#utility.yul\":3244:3264   */\n      tag_119\n      jump\t// in\n    tag_169:\n        /* \"#utility.yul\":3239:3264   */\n      swap2\n      pop\n        /* \"#utility.yul\":3278:3298   */\n      tag_170\n        /* \"#utility.yul\":3296:3297   */\n      dup4\n        /* \"#utility.yul\":3278:3298   */\n      tag_119\n      jump\t// in\n    tag_170:\n        /* \"#utility.yul\":3273:3298   */\n      swap3\n      pop\n        /* \"#utility.yul\":3317:3318   */\n      dup3\n        /* \"#utility.yul\":3307:3342   */\n      tag_171\n      jumpi\n        /* \"#utility.yul\":3322:3340   */\n      tag_172\n      tag_124\n      jump\t// in\n    tag_172:\n        /* \"#utility.yul\":3307:3342   */\n    tag_171:\n        /* \"#utility.yul\":3364:3365   */\n      dup3\n        /* \"#utility.yul\":3361:3362   */\n      dup3\n        /* \"#utility.yul\":3357:3366   */\n      div\n        /* \"#utility.yul\":3352:3366   */\n      swap1\n      pop\n        /* \"#utility.yul\":3187:3372   */\n      swap3\n      swap2\n      pop\n      pop\n      jump\t// out\n        /* \"#utility.yul\":3378:3558   */\n    tag_81:\n        /* \"#utility.yul\":3426:3503   */\n      0x4e487b7100000000000000000000000000000000000000000000000000000000\n        /* \"#utility.yul\":3423:3424   */\n      0x00\n        /* \"#utility.yul\":3416:3504   */\n      mstore\n        /* \"#utility.yul\":3523:3527   */\n      0x32\n        /* \"#utility.yul\":3520:3521   */\n      0x04\n        /* \"#utility.yul\":3513:3528   */\n      mstore\n        /* \"#utility.yul\":3547:3551   */\n      0x24\n        /* \"#utility.yul\":3544:3545   */\n      0x00\n        /* \"#utility.yul\":3537:3552   */\n      revert\n        /* \"#utility.yul\":3564:3711   */\n    tag_125:\n        /* \"#utility.yul\":3665:3676   */\n      0x00\n        /* \"#utility.yul\":3702:3705   */\n      dup2\n        /* \"#utility.yul\":3687:3705   */\n      swap1\n      pop\n        /* \"#utility.yul\":3564:3711   */\n      swap3\n      swap2\n      pop\n      pop\n      jump\t// out\n        /* \"#utility.yul\":3717:3831   */\n    tag_126:\n      pop\n      jump\t// out\n        /* \"#utility.yul\":3837:4235   */\n    tag_127:\n        /* \"#utility.yul\":3996:3999   */\n      0x00\n        /* \"#utility.yul\":4017:4100   */\n      tag_177\n        /* \"#utility.yul\":4098:4099   */\n      0x00\n        /* \"#utility.yul\":4093:4096   */\n      dup4\n        /* \"#utility.yul\":4017:4100   */\n      tag_125\n      jump\t// in\n    tag_177:\n        /* \"#utility.yul\":4010:4100   */\n      swap2\n      pop\n        /* \"#utility.yul\":4109:4202   */\n      tag_178\n        /* \"#utility.yul\":4198:4201   */\n      dup3\n        /* \"#utility.yul\":4109:4202   */\n      tag_126\n      jump\t// in\n    tag_178:\n        /* \"#utility.yul\":4227:4228   */\n      0x00\n        /* \"#utility.yul\":4222:4225   */\n      dup3\n        /* \"#utility.yul\":4218:4229   */\n      add\n        /* \"#utility.yul\":4211:4229   */\n      swap1\n      pop\n        /* \"#utility.yul\":3837:4235   */\n      swap2\n      swap1\n      pop\n      jump\t// out\n        /* \"#utility.yul\":4241:4620   */\n    tag_83:\n        /* \"#utility.yul\":4425:4428   */\n      0x00\n        /* \"#utility.yul\":4447:4594   */\n      tag_180\n        /* \"#utility.yul\":4590:4593   */\n      dup3\n        /* \"#utility.yul\":4447:4594   */\n      tag_127\n      jump\t// in\n    tag_180:\n        /* \"#utility.yul\":4440:4594   */\n      swap2\n      pop\n        /* \"#utility.yul\":4611:4614   */\n      dup2\n        /* \"#utility.yul\":4604:4614   */\n      swap1\n      pop\n        /* \"#utility.yul\":4241:4620   */\n      swap2\n      swap1\n      pop\n      jump\t// out\n        /* \"#utility.yul\":4626:4795   */\n    tag_128:\n        /* \"#utility.yul\":4710:4721   */\n      0x00\n        /* \"#utility.yul\":4744:4750   */\n      dup3\n        /* \"#utility.yul\":4739:4742   */\n      dup3\n        /* \"#utility.yul\":4732:4751   */\n      mstore\n        /* \"#utility.yul\":4784:4788   */\n      0x20\n        /* \"#utility.yul\":4779:4782   */\n      dup3\n        /* \"#utility.yul\":4775:4789   */\n      add\n        /* \"#utility.yul\":4760:4789   */\n      swap1\n      pop\n        /* \"#utility.yul\":4626:4795   */\n      swap3\n      swap2\n      pop\n      pop\n      jump\t// out\n        /* \"#utility.yul\":4801:4971   */\n    tag_129:\n        /* \"#utility.yul\":4941:4963   */\n      0x4661696c656420746f2073656e64204574686572000000000000000000000000\n        /* \"#utility.yul\":4937:4938   */\n      0x00\n        /* \"#utility.yul\":4929:4935   */\n      dup3\n        /* \"#utility.yul\":4925:4939   */\n      add\n        /* \"#utility.yul\":4918:4964   */\n      mstore\n        /* \"#utility.yul\":4801:4971   */\n      pop\n      jump\t// out\n        /* \"#utility.yul\":4977:5343   */\n    tag_130:\n        /* \"#utility.yul\":5119:5122   */\n      0x00\n        /* \"#utility.yul\":5140:5207   */\n      tag_184\n        /* \"#utility.yul\":5204:5206   */\n      0x14\n        /* \"#utility.yul\":5199:5202   */\n      dup4\n        /* \"#utility.yul\":5140:5207   */\n      tag_128\n      jump\t// in\n    tag_184:\n        /* \"#utility.yul\":5133:5207   */\n      swap2\n      pop\n        /* \"#utility.yul\":5216:5309   */\n      tag_185\n        /* \"#utility.yul\":5305:5308   */\n      dup3\n        /* \"#utility.yul\":5216:5309   */\n      tag_129\n      jump\t// in\n    tag_185:\n        /* \"#utility.yul\":5334:5336   */\n      0x20\n        /* \"#utility.yul\":5329:5332   */\n      dup3\n        /* \"#utility.yul\":5325:5337   */\n      add\n        /* \"#utility.yul\":5318:5337   */\n      swap1\n      pop\n        /* \"#utility.yul\":4977:5343   */\n      swap2\n      swap1\n      pop\n      jump\t// out\n        /* \"#utility.yul\":5349:5768   */\n    tag_89:\n        /* \"#utility.yul\":5515:5519   */\n      0x00\n        /* \"#utility.yul\":5553:5555   */\n      0x20\n        /* \"#utility.yul\":5542:5551   */\n      dup3\n        /* \"#utility.yul\":5538:5556   */\n      add\n        /* \"#utility.yul\":5530:5556   */\n      swap1\n      pop\n        /* \"#utility.yul\":5602:5611   */\n      dup2\n        /* \"#utility.yul\":5596:5600   */\n      dup2\n        /* \"#utility.yul\":5592:5612   */\n      sub\n        /* \"#utility.yul\":5588:5589   */\n      0x00\n        /* \"#utility.yul\":5577:5586   */\n      dup4\n        /* \"#utility.yul\":5573:5590   */\n      add\n        /* \"#utility.yul\":5566:5613   */\n      mstore\n        /* \"#utility.yul\":5630:5761   */\n      tag_187\n        /* \"#utility.yul\":5756:5760   */\n      dup2\n        /* \"#utility.yul\":5630:5761   */\n      tag_130\n      jump\t// in\n    tag_187:\n        /* \"#utility.yul\":5622:5761   */\n      swap1\n      pop\n        /* \"#utility.yul\":5349:5768   */\n      swap2\n      swap1\n      pop\n      jump\t// out\n        /* \"#utility.yul\":5774:6007   */\n    tag_91:\n        /* \"#utility.yul\":5813:5816   */\n      0x00\n        /* \"#utility.yul\":5836:5860   */\n      tag_189\n        /* \"#utility.yul\":5854:5859   */\n      dup3\n        /* \"#utility.yul\":5836:5860   */\n      tag_119\n      jump\t// in\n    tag_189:\n        /* \"#utility.yul\":5827:5860   */\n      swap2\n      pop\n        /* \"#utility.yul\":5882:5948   */\n      0xffffffffffffffffffffffffffffffffffffffffffffffffffffffffffffffff\n        /* \"#utility.yul\":5875:5880   */\n      dup3\n        /* \"#utility.yul\":5872:5949   */\n      sub\n        /* \"#utility.yul\":5869:5972   */\n      tag_190\n      jumpi\n        /* \"#utility.yul\":5952:5970   */\n      tag_191\n      tag_123\n      jump\t// in\n    tag_191:\n        /* \"#utility.yul\":5869:5972   */\n    tag_190:\n        /* \"#utility.yul\":5999:6000   */\n      0x01\n        /* \"#utility.yul\":5992:5997   */\n      dup3\n        /* \"#utility.yul\":5988:6001   */\n      add\n        /* \"#utility.yul\":5981:6001   */\n      swap1\n      pop\n        /* \"#utility.yul\":5774:6007   */\n      swap2\n      swap1\n      pop\n      jump\t// out\n\n    auxdata: 0xa26469706673582212200a0ac37bad29b75baabacc735cda3426f385be57acc800913f52e5b909350e0a64736f6c63430008110033\n}\n",
				"bytecode": {
					"linkReferences": {},
					"object": "608060405234801561001057600080fd5b50604051610c19380380610c19833981810160405281019061003291906100ba565b80600181905550336000806101000a81548173ffffffffffffffffffffffffffffffffffffffff021916908373ffffffffffffffffffffffffffffffffffffffff160217905550506100e7565b600080fd5b6000819050919050565b61009781610084565b81146100a257600080fd5b50565b6000815190506100b48161008e565b92915050565b6000602082840312156100d0576100cf61007f565b5b60006100de848285016100a5565b91505092915050565b610b23806100f66000396000f3fe60806040526004361061007b5760003560e01c806399892e471161004e57806399892e471461011b5780639d9a7fe914610146578063d13abf6214610171578063f32750ce1461019c5761007b565b8063481c6a75146100805780636af7a16e146100ab578063707f00d3146100d45780638bbab51a146100ff575b600080fd5b34801561008c57600080fd5b506100956101c7565b6040516100a291906107e5565b60405180910390f35b3480156100b757600080fd5b506100d260048036038101906100cd919061082a565b6101eb565b005b3480156100e057600080fd5b506100e961059e565b6040516100f69190610870565b60405180910390f35b6101196004803603810190610114919061082a565b6105a4565b005b34801561012757600080fd5b5061013061077f565b60405161013d9190610870565b60405180910390f35b34801561015257600080fd5b5061015b610785565b60405161016891906108a6565b60405180910390f35b34801561017d57600080fd5b50610186610798565b6040516101939190610870565b60405180910390f35b3480156101a857600080fd5b506101b161079e565b6040516101be9190610870565b60405180910390f35b60008054906101000a900473ffffffffffffffffffffffffffffffffffffffff1681565b60008054906101000a900473ffffffffffffffffffffffffffffffffffffffff1673ffffffffffffffffffffffffffffffffffffffff163373ffffffffffffffffffffffffffffffffffffffff161461024357600080fd5b600060606000600281111561025b5761025a6108c1565b5b83600281111561026e5761026d6108c1565b5b0361032357600580549050600454600354610289919061091f565b6102939190610982565b9150600580548060200260200160405190810160405280929190818152602001828054801561031757602002820191906000526020600020905b8160009054906101000a900473ffffffffffffffffffffffffffffffffffffffff1673ffffffffffffffffffffffffffffffffffffffff16815260200190600101908083116102cd575b505050505090506104ac565b60016002811115610337576103366108c1565b5b83600281111561034a576103496108c1565b5b036103ff57600680549050600454600254610365919061091f565b61036f9190610982565b915060068054806020026020016040519081016040528092919081815260200182805480156103f357602002820191906000526020600020905b8160009054906101000a900473ffffffffffffffffffffffffffffffffffffffff1673ffffffffffffffffffffffffffffffffffffffff16815260200190600101908083116103a9575b505050505090506104ab565b600780549050600354600254610415919061091f565b61041f9190610982565b915060078054806020026020016040519081016040528092919081815260200182805480156104a357602002820191906000526020600020905b8160009054906101000a900473ffffffffffffffffffffffffffffffffffffffff1673ffffffffffffffffffffffffffffffffffffffff1681526020019060010190808311610459575b505050505090505b5b60005b81518110156105985760008282815181106104cd576104cc6109b3565b5b6020026020010151905060008173ffffffffffffffffffffffffffffffffffffffff16856040516104fd90610a13565b60006040518083038185875af1925050503d806000811461053a576040519150601f19603f3d011682016040523d82523d6000602084013e61053f565b606091505b5050905080610583576040517f08c379a000000000000000000000000000000000000000000000000000000000815260040161057a90610a85565b60405180910390fd5b5050808061059090610aa5565b9150506104af565b50505050565b60035481565b600060028111156105b8576105b76108c1565b5b8160028111156105cb576105ca6108c1565b5b036106515734600260008282546105e2919061091f565b925050819055506005339080600181540180825580915050600190039060005260206000200160009091909190916101000a81548173ffffffffffffffffffffffffffffffffffffffff021916908373ffffffffffffffffffffffffffffffffffffffff16021790555061077c565b60016002811115610665576106646108c1565b5b816002811115610678576106776108c1565b5b036106fe57346003600082825461068f919061091f565b925050819055506005339080600181540180825580915050600190039060005260206000200160009091909190916101000a81548173ffffffffffffffffffffffffffffffffffffffff021916908373ffffffffffffffffffffffffffffffffffffffff16021790555061077b565b3460046000828254610710919061091f565b925050819055506007339080600181540180825580915050600190039060005260206000200160009091909190916101000a81548173ffffffffffffffffffffffffffffffffffffffff021916908373ffffffffffffffffffffffffffffffffffffffff1602179055505b5b50565b60015481565b600860009054906101000a900460ff1681565b60025481565b60045481565b600073ffffffffffffffffffffffffffffffffffffffff82169050919050565b60006107cf826107a4565b9050919050565b6107df816107c4565b82525050565b60006020820190506107fa60008301846107d6565b92915050565b600080fd5b6003811061081257600080fd5b50565b60008135905061082481610805565b92915050565b6000602082840312156108405761083f610800565b5b600061084e84828501610815565b91505092915050565b6000819050919050565b61086a81610857565b82525050565b60006020820190506108856000830184610861565b92915050565b60008115159050919050565b6108a08161088b565b82525050565b60006020820190506108bb6000830184610897565b92915050565b7f4e487b7100000000000000000000000000000000000000000000000000000000600052602160045260246000fd5b7f4e487b7100000000000000000000000000000000000000000000000000000000600052601160045260246000fd5b600061092a82610857565b915061093583610857565b925082820190508082111561094d5761094c6108f0565b5b92915050565b7f4e487b7100000000000000000000000000000000000000000000000000000000600052601260045260246000fd5b600061098d82610857565b915061099883610857565b9250826109a8576109a7610953565b5b828204905092915050565b7f4e487b7100000000000000000000000000000000000000000000000000000000600052603260045260246000fd5b600081905092915050565b50565b60006109fd6000836109e2565b9150610a08826109ed565b600082019050919050565b6000610a1e826109f0565b9150819050919050565b600082825260208201905092915050565b7f4661696c656420746f2073656e64204574686572000000000000000000000000600082015250565b6000610a6f601483610a28565b9150610a7a82610a39565b602082019050919050565b60006020820190508181036000830152610a9e81610a62565b9050919050565b6000610ab082610857565b91507fffffffffffffffffffffffffffffffffffffffffffffffffffffffffffffffff8203610ae257610ae16108f0565b5b60018201905091905056fea26469706673582212200a0ac37bad29b75baabacc735cda3426f385be57acc800913f52e5b909350e0a64736f6c63430008110033",
					"opcodes": "PUSH1 0x80 PUSH1 0x40 MSTORE CALLVALUE DUP1 ISZERO PUSH2 0x10 JUMPI PUSH1 0x0 DUP1 REVERT JUMPDEST POP PUSH1 0x40 MLOAD PUSH2 0xC19 CODESIZE SUB DUP1 PUSH2 0xC19 DUP4 CODECOPY DUP2 DUP2 ADD PUSH1 0x40 MSTORE DUP2 ADD SWAP1 PUSH2 0x32 SWAP2 SWAP1 PUSH2 0xBA JUMP JUMPDEST DUP1 PUSH1 0x1 DUP2 SWAP1 SSTORE POP CALLER PUSH1 0x0 DUP1 PUSH2 0x100 EXP DUP2 SLOAD DUP2 PUSH20 0xFFFFFFFFFFFFFFFFFFFFFFFFFFFFFFFFFFFFFFFF MUL NOT AND SWAP1 DUP4 PUSH20 0xFFFFFFFFFFFFFFFFFFFFFFFFFFFFFFFFFFFFFFFF AND MUL OR SWAP1 SSTORE POP POP PUSH2 0xE7 JUMP JUMPDEST PUSH1 0x0 DUP1 REVERT JUMPDEST PUSH1 0x0 DUP2 SWAP1 POP SWAP2 SWAP1 POP JUMP JUMPDEST PUSH2 0x97 DUP2 PUSH2 0x84 JUMP JUMPDEST DUP2 EQ PUSH2 0xA2 JUMPI PUSH1 0x0 DUP1 REVERT JUMPDEST POP JUMP JUMPDEST PUSH1 0x0 DUP2 MLOAD SWAP1 POP PUSH2 0xB4 DUP2 PUSH2 0x8E JUMP JUMPDEST SWAP3 SWAP2 POP POP JUMP JUMPDEST PUSH1 0x0 PUSH1 0x20 DUP3 DUP5 SUB SLT ISZERO PUSH2 0xD0 JUMPI PUSH2 0xCF PUSH2 0x7F JUMP JUMPDEST JUMPDEST PUSH1 0x0 PUSH2 0xDE DUP5 DUP3 DUP6 ADD PUSH2 0xA5 JUMP JUMPDEST SWAP2 POP POP SWAP3 SWAP2 POP POP JUMP JUMPDEST PUSH2 0xB23 DUP1 PUSH2 0xF6 PUSH1 0x0 CODECOPY PUSH1 0x0 RETURN INVALID PUSH1 0x80 PUSH1 0x40 MSTORE PUSH1 0x4 CALLDATASIZE LT PUSH2 0x7B JUMPI PUSH1 0x0 CALLDATALOAD PUSH1 0xE0 SHR DUP1 PUSH4 0x99892E47 GT PUSH2 0x4E JUMPI DUP1 PUSH4 0x99892E47 EQ PUSH2 0x11B JUMPI DUP1 PUSH4 0x9D9A7FE9 EQ PUSH2 0x146 JUMPI DUP1 PUSH4 0xD13ABF62 EQ PUSH2 0x171 JUMPI DUP1 PUSH4 0xF32750CE EQ PUSH2 0x19C JUMPI PUSH2 0x7B JUMP JUMPDEST DUP1 PUSH4 0x481C6A75 EQ PUSH2 0x80 JUMPI DUP1 PUSH4 0x6AF7A16E EQ PUSH2 0xAB JUMPI DUP1 PUSH4 0x707F00D3 EQ PUSH2 0xD4 JUMPI DUP1 PUSH4 0x8BBAB51A EQ PUSH2 0xFF JUMPI JUMPDEST PUSH1 0x0 DUP1 REVERT JUMPDEST CALLVALUE DUP1 ISZERO PUSH2 0x8C JUMPI PUSH1 0x0 DUP1 REVERT JUMPDEST POP PUSH2 0x95 PUSH2 0x1C7 JUMP JUMPDEST PUSH1 0x40 MLOAD PUSH2 0xA2 SWAP2 SWAP1 PUSH2 0x7E5 JUMP JUMPDEST PUSH1 0x40 MLOAD DUP1 SWAP2 SUB SWAP1 RETURN JUMPDEST CALLVALUE DUP1 ISZERO PUSH2 0xB7 JUMPI PUSH1 0x0 DUP1 REVERT JUMPDEST POP PUSH2 0xD2 PUSH1 0x4 DUP1 CALLDATASIZE SUB DUP2 ADD SWAP1 PUSH2 0xCD SWAP2 SWAP1 PUSH2 0x82A JUMP JUMPDEST PUSH2 0x1EB JUMP JUMPDEST STOP JUMPDEST CALLVALUE DUP1 ISZERO PUSH2 0xE0 JUMPI PUSH1 0x0 DUP1 REVERT JUMPDEST POP PUSH2 0xE9 PUSH2 0x59E JUMP JUMPDEST PUSH1 0x40 MLOAD PUSH2 0xF6 SWAP2 SWAP1 PUSH2 0x870 JUMP JUMPDEST PUSH1 0x40 MLOAD DUP1 SWAP2 SUB SWAP1 RETURN JUMPDEST PUSH2 0x119 PUSH1 0x4 DUP1 CALLDATASIZE SUB DUP2 ADD SWAP1 PUSH2 0x114 SWAP2 SWAP1 PUSH2 0x82A JUMP JUMPDEST PUSH2 0x5A4 JUMP JUMPDEST STOP JUMPDEST CALLVALUE DUP1 ISZERO PUSH2 0x127 JUMPI PUSH1 0x0 DUP1 REVERT JUMPDEST POP PUSH2 0x130 PUSH2 0x77F JUMP JUMPDEST PUSH1 0x40 MLOAD PUSH2 0x13D SWAP2 SWAP1 PUSH2 0x870 JUMP JUMPDEST PUSH1 0x40 MLOAD DUP1 SWAP2 SUB SWAP1 RETURN JUMPDEST CALLVALUE DUP1 ISZERO PUSH2 0x152 JUMPI PUSH1 0x0 DUP1 REVERT JUMPDEST POP PUSH2 0x15B PUSH2 0x785 JUMP JUMPDEST PUSH1 0x40 MLOAD PUSH2 0x168 SWAP2 SWAP1 PUSH2 0x8A6 JUMP JUMPDEST PUSH1 0x40 MLOAD DUP1 SWAP2 SUB SWAP1 RETURN JUMPDEST CALLVALUE DUP1 ISZERO PUSH2 0x17D JUMPI PUSH1 0x0 DUP1 REVERT JUMPDEST POP PUSH2 0x186 PUSH2 0x798 JUMP JUMPDEST PUSH1 0x40 MLOAD PUSH2 0x193 SWAP2 SWAP1 PUSH2 0x870 JUMP JUMPDEST PUSH1 0x40 MLOAD DUP1 SWAP2 SUB SWAP1 RETURN JUMPDEST CALLVALUE DUP1 ISZERO PUSH2 0x1A8 JUMPI PUSH1 0x0 DUP1 REVERT JUMPDEST POP PUSH2 0x1B1 PUSH2 0x79E JUMP JUMPDEST PUSH1 0x40 MLOAD PUSH2 0x1BE SWAP2 SWAP1 PUSH2 0x870 JUMP JUMPDEST PUSH1 0x40 MLOAD DUP1 SWAP2 SUB SWAP1 RETURN JUMPDEST PUSH1 0x0 DUP1 SLOAD SWAP1 PUSH2 0x100 EXP SWAP1 DIV PUSH20 0xFFFFFFFFFFFFFFFFFFFFFFFFFFFFFFFFFFFFFFFF AND DUP2 JUMP JUMPDEST PUSH1 0x0 DUP1 SLOAD SWAP1 PUSH2 0x100 EXP SWAP1 DIV PUSH20 0xFFFFFFFFFFFFFFFFFFFFFFFFFFFFFFFFFFFFFFFF AND PUSH20 0xFFFFFFFFFFFFFFFFFFFFFFFFFFFFFFFFFFFFFFFF AND CALLER PUSH20 0xFFFFFFFFFFFFFFFFFFFFFFFFFFFFFFFFFFFFFFFF AND EQ PUSH2 0x243 JUMPI PUSH1 0x0 DUP1 REVERT JUMPDEST PUSH1 0x0 PUSH1 0x60 PUSH1 0x0 PUSH1 0x2 DUP2 GT ISZERO PUSH2 0x25B JUMPI PUSH2 0x25A PUSH2 0x8C1 JUMP JUMPDEST JUMPDEST DUP4 PUSH1 0x2 DUP2 GT ISZERO PUSH2 0x26E JUMPI PUSH2 0x26D PUSH2 0x8C1 JUMP JUMPDEST JUMPDEST SUB PUSH2 0x323 JUMPI PUSH1 0x5 DUP1 SLOAD SWAP1 POP PUSH1 0x4 SLOAD PUSH1 0x3 SLOAD PUSH2 0x289 SWAP2 SWAP1 PUSH2 0x91F JUMP JUMPDEST PUSH2 0x293 SWAP2 SWAP1 PUSH2 0x982 JUMP JUMPDEST SWAP2 POP PUSH1 0x5 DUP1 SLOAD DUP1 PUSH1 0x20 MUL PUSH1 0x20 ADD PUSH1 0x40 MLOAD SWAP1 DUP2 ADD PUSH1 0x40 MSTORE DUP1 SWAP3 SWAP2 SWAP1 DUP2 DUP2 MSTORE PUSH1 0x20 ADD DUP3 DUP1 SLOAD DUP1 ISZERO PUSH2 0x317 JUMPI PUSH1 0x20 MUL DUP3 ADD SWAP2 SWAP1 PUSH1 0x0 MSTORE PUSH1 0x20 PUSH1 0x0 KECCAK256 SWAP1 JUMPDEST DUP2 PUSH1 0x0 SWAP1 SLOAD SWAP1 PUSH2 0x100 EXP SWAP1 DIV PUSH20 0xFFFFFFFFFFFFFFFFFFFFFFFFFFFFFFFFFFFFFFFF AND PUSH20 0xFFFFFFFFFFFFFFFFFFFFFFFFFFFFFFFFFFFFFFFF AND DUP2 MSTORE PUSH1 0x20 ADD SWAP1 PUSH1 0x1 ADD SWAP1 DUP1 DUP4 GT PUSH2 0x2CD JUMPI JUMPDEST POP POP POP POP POP SWAP1 POP PUSH2 0x4AC JUMP JUMPDEST PUSH1 0x1 PUSH1 0x2 DUP2 GT ISZERO PUSH2 0x337 JUMPI PUSH2 0x336 PUSH2 0x8C1 JUMP JUMPDEST JUMPDEST DUP4 PUSH1 0x2 DUP2 GT ISZERO PUSH2 0x34A JUMPI PUSH2 0x349 PUSH2 0x8C1 JUMP JUMPDEST JUMPDEST SUB PUSH2 0x3FF JUMPI PUSH1 0x6 DUP1 SLOAD SWAP1 POP PUSH1 0x4 SLOAD PUSH1 0x2 SLOAD PUSH2 0x365 SWAP2 SWAP1 PUSH2 0x91F JUMP JUMPDEST PUSH2 0x36F SWAP2 SWAP1 PUSH2 0x982 JUMP JUMPDEST SWAP2 POP PUSH1 0x6 DUP1 SLOAD DUP1 PUSH1 0x20 MUL PUSH1 0x20 ADD PUSH1 0x40 MLOAD SWAP1 DUP2 ADD PUSH1 0x40 MSTORE DUP1 SWAP3 SWAP2 SWAP1 DUP2 DUP2 MSTORE PUSH1 0x20 ADD DUP3 DUP1 SLOAD DUP1 ISZERO PUSH2 0x3F3 JUMPI PUSH1 0x20 MUL DUP3 ADD SWAP2 SWAP1 PUSH1 0x0 MSTORE PUSH1 0x20 PUSH1 0x0 KECCAK256 SWAP1 JUMPDEST DUP2 PUSH1 0x0 SWAP1 SLOAD SWAP1 PUSH2 0x100 EXP SWAP1 DIV PUSH20 0xFFFFFFFFFFFFFFFFFFFFFFFFFFFFFFFFFFFFFFFF AND PUSH20 0xFFFFFFFFFFFFFFFFFFFFFFFFFFFFFFFFFFFFFFFF AND DUP2 MSTORE PUSH1 0x20 ADD SWAP1 PUSH1 0x1 ADD SWAP1 DUP1 DUP4 GT PUSH2 0x3A9 JUMPI JUMPDEST POP POP POP POP POP SWAP1 POP PUSH2 0x4AB JUMP JUMPDEST PUSH1 0x7 DUP1 SLOAD SWAP1 POP PUSH1 0x3 SLOAD PUSH1 0x2 SLOAD PUSH2 0x415 SWAP2 SWAP1 PUSH2 0x91F JUMP JUMPDEST PUSH2 0x41F SWAP2 SWAP1 PUSH2 0x982 JUMP JUMPDEST SWAP2 POP PUSH1 0x7 DUP1 SLOAD DUP1 PUSH1 0x20 MUL PUSH1 0x20 ADD PUSH1 0x40 MLOAD SWAP1 DUP2 ADD PUSH1 0x40 MSTORE DUP1 SWAP3 SWAP2 SWAP1 DUP2 DUP2 MSTORE PUSH1 0x20 ADD DUP3 DUP1 SLOAD DUP1 ISZERO PUSH2 0x4A3 JUMPI PUSH1 0x20 MUL DUP3 ADD SWAP2 SWAP1 PUSH1 0x0 MSTORE PUSH1 0x20 PUSH1 0x0 KECCAK256 SWAP1 JUMPDEST DUP2 PUSH1 0x0 SWAP1 SLOAD SWAP1 PUSH2 0x100 EXP SWAP1 DIV PUSH20 0xFFFFFFFFFFFFFFFFFFFFFFFFFFFFFFFFFFFFFFFF AND PUSH20 0xFFFFFFFFFFFFFFFFFFFFFFFFFFFFFFFFFFFFFFFF AND DUP2 MSTORE PUSH1 0x20 ADD SWAP1 PUSH1 0x1 ADD SWAP1 DUP1 DUP4 GT PUSH2 0x459 JUMPI JUMPDEST POP POP POP POP POP SWAP1 POP JUMPDEST JUMPDEST PUSH1 0x0 JUMPDEST DUP2 MLOAD DUP2 LT ISZERO PUSH2 0x598 JUMPI PUSH1 0x0 DUP3 DUP3 DUP2 MLOAD DUP2 LT PUSH2 0x4CD JUMPI PUSH2 0x4CC PUSH2 0x9B3 JUMP JUMPDEST JUMPDEST PUSH1 0x20 MUL PUSH1 0x20 ADD ADD MLOAD SWAP1 POP PUSH1 0x0 DUP2 PUSH20 0xFFFFFFFFFFFFFFFFFFFFFFFFFFFFFFFFFFFFFFFF AND DUP6 PUSH1 0x40 MLOAD PUSH2 0x4FD SWAP1 PUSH2 0xA13 JUMP JUMPDEST PUSH1 0x0 PUSH1 0x40 MLOAD DUP1 DUP4 SUB DUP2 DUP6 DUP8 GAS CALL SWAP3 POP POP POP RETURNDATASIZE DUP1 PUSH1 0x0 DUP2 EQ PUSH2 0x53A JUMPI PUSH1 0x40 MLOAD SWAP2 POP PUSH1 0x1F NOT PUSH1 0x3F RETURNDATASIZE ADD AND DUP3 ADD PUSH1 0x40 MSTORE RETURNDATASIZE DUP3 MSTORE RETURNDATASIZE PUSH1 0x0 PUSH1 0x20 DUP5 ADD RETURNDATACOPY PUSH2 0x53F JUMP JUMPDEST PUSH1 0x60 SWAP2 POP JUMPDEST POP POP SWAP1 POP DUP1 PUSH2 0x583 JUMPI PUSH1 0x40 MLOAD PUSH32 0x8C379A000000000000000000000000000000000000000000000000000000000 DUP2 MSTORE PUSH1 0x4 ADD PUSH2 0x57A SWAP1 PUSH2 0xA85 JUMP JUMPDEST PUSH1 0x40 MLOAD DUP1 SWAP2 SUB SWAP1 REVERT JUMPDEST POP POP DUP1 DUP1 PUSH2 0x590 SWAP1 PUSH2 0xAA5 JUMP JUMPDEST SWAP2 POP POP PUSH2 0x4AF JUMP JUMPDEST POP POP POP POP JUMP JUMPDEST PUSH1 0x3 SLOAD DUP2 JUMP JUMPDEST PUSH1 0x0 PUSH1 0x2 DUP2 GT ISZERO PUSH2 0x5B8 JUMPI PUSH2 0x5B7 PUSH2 0x8C1 JUMP JUMPDEST JUMPDEST DUP2 PUSH1 0x2 DUP2 GT ISZERO PUSH2 0x5CB JUMPI PUSH2 0x5CA PUSH2 0x8C1 JUMP JUMPDEST JUMPDEST SUB PUSH2 0x651 JUMPI CALLVALUE PUSH1 0x2 PUSH1 0x0 DUP3 DUP3 SLOAD PUSH2 0x5E2 SWAP2 SWAP1 PUSH2 0x91F JUMP JUMPDEST SWAP3 POP POP DUP2 SWAP1 SSTORE POP PUSH1 0x5 CALLER SWAP1 DUP1 PUSH1 0x1 DUP2 SLOAD ADD DUP1 DUP3 SSTORE DUP1 SWAP2 POP POP PUSH1 0x1 SWAP1 SUB SWAP1 PUSH1 0x0 MSTORE PUSH1 0x20 PUSH1 0x0 KECCAK256 ADD PUSH1 0x0 SWAP1 SWAP2 SWAP1 SWAP2 SWAP1 SWAP2 PUSH2 0x100 EXP DUP2 SLOAD DUP2 PUSH20 0xFFFFFFFFFFFFFFFFFFFFFFFFFFFFFFFFFFFFFFFF MUL NOT AND SWAP1 DUP4 PUSH20 0xFFFFFFFFFFFFFFFFFFFFFFFFFFFFFFFFFFFFFFFF AND MUL OR SWAP1 SSTORE POP PUSH2 0x77C JUMP JUMPDEST PUSH1 0x1 PUSH1 0x2 DUP2 GT ISZERO PUSH2 0x665 JUMPI PUSH2 0x664 PUSH2 0x8C1 JUMP JUMPDEST JUMPDEST DUP2 PUSH1 0x2 DUP2 GT ISZERO PUSH2 0x678 JUMPI PUSH2 0x677 PUSH2 0x8C1 JUMP JUMPDEST JUMPDEST SUB PUSH2 0x6FE JUMPI CALLVALUE PUSH1 0x3 PUSH1 0x0 DUP3 DUP3 SLOAD PUSH2 0x68F SWAP2 SWAP1 PUSH2 0x91F JUMP JUMPDEST SWAP3 POP POP DUP2 SWAP1 SSTORE POP PUSH1 0x5 CALLER SWAP1 DUP1 PUSH1 0x1 DUP2 SLOAD ADD DUP1 DUP3 SSTORE DUP1 SWAP2 POP POP PUSH1 0x1 SWAP1 SUB SWAP1 PUSH1 0x0 MSTORE PUSH1 0x20 PUSH1 0x0 KECCAK256 ADD PUSH1 0x0 SWAP1 SWAP2 SWAP1 SWAP2 SWAP1 SWAP2 PUSH2 0x100 EXP DUP2 SLOAD DUP2 PUSH20 0xFFFFFFFFFFFFFFFFFFFFFFFFFFFFFFFFFFFFFFFF MUL NOT AND SWAP1 DUP4 PUSH20 0xFFFFFFFFFFFFFFFFFFFFFFFFFFFFFFFFFFFFFFFF AND MUL OR SWAP1 SSTORE POP PUSH2 0x77B JUMP JUMPDEST CALLVALUE PUSH1 0x4 PUSH1 0x0 DUP3 DUP3 SLOAD PUSH2 0x710 SWAP2 SWAP1 PUSH2 0x91F JUMP JUMPDEST SWAP3 POP POP DUP2 SWAP1 SSTORE POP PUSH1 0x7 CALLER SWAP1 DUP1 PUSH1 0x1 DUP2 SLOAD ADD DUP1 DUP3 SSTORE DUP1 SWAP2 POP POP PUSH1 0x1 SWAP1 SUB SWAP1 PUSH1 0x0 MSTORE PUSH1 0x20 PUSH1 0x0 KECCAK256 ADD PUSH1 0x0 SWAP1 SWAP2 SWAP1 SWAP2 SWAP1 SWAP2 PUSH2 0x100 EXP DUP2 SLOAD DUP2 PUSH20 0xFFFFFFFFFFFFFFFFFFFFFFFFFFFFFFFFFFFFFFFF MUL NOT AND SWAP1 DUP4 PUSH20 0xFFFFFFFFFFFFFFFFFFFFFFFFFFFFFFFFFFFFFFFF AND MUL OR SWAP1 SSTORE POP JUMPDEST JUMPDEST POP JUMP JUMPDEST PUSH1 0x1 SLOAD DUP2 JUMP JUMPDEST PUSH1 0x8 PUSH1 0x0 SWAP1 SLOAD SWAP1 PUSH2 0x100 EXP SWAP1 DIV PUSH1 0xFF AND DUP2 JUMP JUMPDEST PUSH1 0x2 SLOAD DUP2 JUMP JUMPDEST PUSH1 0x4 SLOAD DUP2 JUMP JUMPDEST PUSH1 0x0 PUSH20 0xFFFFFFFFFFFFFFFFFFFFFFFFFFFFFFFFFFFFFFFF DUP3 AND SWAP1 POP SWAP2 SWAP1 POP JUMP JUMPDEST PUSH1 0x0 PUSH2 0x7CF DUP3 PUSH2 0x7A4 JUMP JUMPDEST SWAP1 POP SWAP2 SWAP1 POP JUMP JUMPDEST PUSH2 0x7DF DUP2 PUSH2 0x7C4 JUMP JUMPDEST DUP3 MSTORE POP POP JUMP JUMPDEST PUSH1 0x0 PUSH1 0x20 DUP3 ADD SWAP1 POP PUSH2 0x7FA PUSH1 0x0 DUP4 ADD DUP5 PUSH2 0x7D6 JUMP JUMPDEST SWAP3 SWAP2 POP POP JUMP JUMPDEST PUSH1 0x0 DUP1 REVERT JUMPDEST PUSH1 0x3 DUP2 LT PUSH2 0x812 JUMPI PUSH1 0x0 DUP1 REVERT JUMPDEST POP JUMP JUMPDEST PUSH1 0x0 DUP2 CALLDATALOAD SWAP1 POP PUSH2 0x824 DUP2 PUSH2 0x805 JUMP JUMPDEST SWAP3 SWAP2 POP POP JUMP JUMPDEST PUSH1 0x0 PUSH1 0x20 DUP3 DUP5 SUB SLT ISZERO PUSH2 0x840 JUMPI PUSH2 0x83F PUSH2 0x800 JUMP JUMPDEST JUMPDEST PUSH1 0x0 PUSH2 0x84E DUP5 DUP3 DUP6 ADD PUSH2 0x815 JUMP JUMPDEST SWAP2 POP POP SWAP3 SWAP2 POP POP JUMP JUMPDEST PUSH1 0x0 DUP2 SWAP1 POP SWAP2 SWAP1 POP JUMP JUMPDEST PUSH2 0x86A DUP2 PUSH2 0x857 JUMP JUMPDEST DUP3 MSTORE POP POP JUMP JUMPDEST PUSH1 0x0 PUSH1 0x20 DUP3 ADD SWAP1 POP PUSH2 0x885 PUSH1 0x0 DUP4 ADD DUP5 PUSH2 0x861 JUMP JUMPDEST SWAP3 SWAP2 POP POP JUMP JUMPDEST PUSH1 0x0 DUP2 ISZERO ISZERO SWAP1 POP SWAP2 SWAP1 POP JUMP JUMPDEST PUSH2 0x8A0 DUP2 PUSH2 0x88B JUMP JUMPDEST DUP3 MSTORE POP POP JUMP JUMPDEST PUSH1 0x0 PUSH1 0x20 DUP3 ADD SWAP1 POP PUSH2 0x8BB PUSH1 0x0 DUP4 ADD DUP5 PUSH2 0x897 JUMP JUMPDEST SWAP3 SWAP2 POP POP JUMP JUMPDEST PUSH32 0x4E487B7100000000000000000000000000000000000000000000000000000000 PUSH1 0x0 MSTORE PUSH1 0x21 PUSH1 0x4 MSTORE PUSH1 0x24 PUSH1 0x0 REVERT JUMPDEST PUSH32 0x4E487B7100000000000000000000000000000000000000000000000000000000 PUSH1 0x0 MSTORE PUSH1 0x11 PUSH1 0x4 MSTORE PUSH1 0x24 PUSH1 0x0 REVERT JUMPDEST PUSH1 0x0 PUSH2 0x92A DUP3 PUSH2 0x857 JUMP JUMPDEST SWAP2 POP PUSH2 0x935 DUP4 PUSH2 0x857 JUMP JUMPDEST SWAP3 POP DUP3 DUP3 ADD SWAP1 POP DUP1 DUP3 GT ISZERO PUSH2 0x94D JUMPI PUSH2 0x94C PUSH2 0x8F0 JUMP JUMPDEST JUMPDEST SWAP3 SWAP2 POP POP JUMP JUMPDEST PUSH32 0x4E487B7100000000000000000000000000000000000000000000000000000000 PUSH1 0x0 MSTORE PUSH1 0x12 PUSH1 0x4 MSTORE PUSH1 0x24 PUSH1 0x0 REVERT JUMPDEST PUSH1 0x0 PUSH2 0x98D DUP3 PUSH2 0x857 JUMP JUMPDEST SWAP2 POP PUSH2 0x998 DUP4 PUSH2 0x857 JUMP JUMPDEST SWAP3 POP DUP3 PUSH2 0x9A8 JUMPI PUSH2 0x9A7 PUSH2 0x953 JUMP JUMPDEST JUMPDEST DUP3 DUP3 DIV SWAP1 POP SWAP3 SWAP2 POP POP JUMP JUMPDEST PUSH32 0x4E487B7100000000000000000000000000000000000000000000000000000000 PUSH1 0x0 MSTORE PUSH1 0x32 PUSH1 0x4 MSTORE PUSH1 0x24 PUSH1 0x0 REVERT JUMPDEST PUSH1 0x0 DUP2 SWAP1 POP SWAP3 SWAP2 POP POP JUMP JUMPDEST POP JUMP JUMPDEST PUSH1 0x0 PUSH2 0x9FD PUSH1 0x0 DUP4 PUSH2 0x9E2 JUMP JUMPDEST SWAP2 POP PUSH2 0xA08 DUP3 PUSH2 0x9ED JUMP JUMPDEST PUSH1 0x0 DUP3 ADD SWAP1 POP SWAP2 SWAP1 POP JUMP JUMPDEST PUSH1 0x0 PUSH2 0xA1E DUP3 PUSH2 0x9F0 JUMP JUMPDEST SWAP2 POP DUP2 SWAP1 POP SWAP2 SWAP1 POP JUMP JUMPDEST PUSH1 0x0 DUP3 DUP3 MSTORE PUSH1 0x20 DUP3 ADD SWAP1 POP SWAP3 SWAP2 POP POP JUMP JUMPDEST PUSH32 0x4661696C656420746F2073656E64204574686572000000000000000000000000 PUSH1 0x0 DUP3 ADD MSTORE POP JUMP JUMPDEST PUSH1 0x0 PUSH2 0xA6F PUSH1 0x14 DUP4 PUSH2 0xA28 JUMP JUMPDEST SWAP2 POP PUSH2 0xA7A DUP3 PUSH2 0xA39 JUMP JUMPDEST PUSH1 0x20 DUP3 ADD SWAP1 POP SWAP2 SWAP1 POP JUMP JUMPDEST PUSH1 0x0 PUSH1 0x20 DUP3 ADD SWAP1 POP DUP2 DUP2 SUB PUSH1 0x0 DUP4 ADD MSTORE PUSH2 0xA9E DUP2 PUSH2 0xA62 JUMP JUMPDEST SWAP1 POP SWAP2 SWAP1 POP JUMP JUMPDEST PUSH1 0x0 PUSH2 0xAB0 DUP3 PUSH2 0x857 JUMP JUMPDEST SWAP2 POP PUSH32 0xFFFFFFFFFFFFFFFFFFFFFFFFFFFFFFFFFFFFFFFFFFFFFFFFFFFFFFFFFFFFFFFF DUP3 SUB PUSH2 0xAE2 JUMPI PUSH2 0xAE1 PUSH2 0x8F0 JUMP JUMPDEST JUMPDEST PUSH1 0x1 DUP3 ADD SWAP1 POP SWAP2 SWAP1 POP JUMP INVALID LOG2 PUSH5 0x6970667358 0x22 SLT KECCAK256 EXP EXP 0xC3 PUSH28 0xAD29B75BAABACC735CDA3426F385BE57ACC800913F52E5B909350E0A PUSH5 0x736F6C6343 STOP ADDMOD GT STOP CALLER "
				},
				"gasEstimates": {
					"creation": {
						"codeDepositCost": "570200",
						"executionCost": "infinite",
						"totalCost": "infinite"
					},
					"external": {
						"awayTeamBetAmount()": "2474",
						"betForTeam(uint8)": "infinite",
						"completed()": "2493",
						"drawBetAmount()": "2495",
						"finalizeTheBet(uint8)": "infinite",
						"homeTeamBetAmount()": "2473",
						"manager()": "2512",
						"matchId()": "2429"
					}
				},
				"methodIdentifiers": {
					"awayTeamBetAmount()": "707f00d3",
					"betForTeam(uint8)": "8bbab51a",
					"completed()": "9d9a7fe9",
					"drawBetAmount()": "f32750ce",
					"finalizeTheBet(uint8)": "6af7a16e",
					"homeTeamBetAmount()": "d13abf62",
					"manager()": "481c6a75",
					"matchId()": "99892e47"
				}
			},
			"storageLayout": {
				"storage": [
					{
						"astId": 7,
						"contract": "src/contracts/bet_contract.sol:FootballBet",
						"label": "manager",
						"offset": 0,
						"slot": "0",
						"type": "t_address"
					},
					{
						"astId": 9,
						"contract": "src/contracts/bet_contract.sol:FootballBet",
						"label": "matchId",
						"offset": 0,
						"slot": "1",
						"type": "t_uint256"
					},
					{
						"astId": 11,
						"contract": "src/contracts/bet_contract.sol:FootballBet",
						"label": "homeTeamBetAmount",
						"offset": 0,
						"slot": "2",
						"type": "t_uint256"
					},
					{
						"astId": 13,
						"contract": "src/contracts/bet_contract.sol:FootballBet",
						"label": "awayTeamBetAmount",
						"offset": 0,
						"slot": "3",
						"type": "t_uint256"
					},
					{
						"astId": 15,
						"contract": "src/contracts/bet_contract.sol:FootballBet",
						"label": "drawBetAmount",
						"offset": 0,
						"slot": "4",
						"type": "t_uint256"
					},
					{
						"astId": 18,
						"contract": "src/contracts/bet_contract.sol:FootballBet",
						"label": "homeTeamWinBettors",
						"offset": 0,
						"slot": "5",
						"type": "t_array(t_address)dyn_storage"
					},
					{
						"astId": 21,
						"contract": "src/contracts/bet_contract.sol:FootballBet",
						"label": "awayTeamWinBettors",
						"offset": 0,
						"slot": "6",
						"type": "t_array(t_address)dyn_storage"
					},
					{
						"astId": 24,
						"contract": "src/contracts/bet_contract.sol:FootballBet",
						"label": "drawBettors",
						"offset": 0,
						"slot": "7",
						"type": "t_array(t_address)dyn_storage"
					},
					{
						"astId": 26,
						"contract": "src/contracts/bet_contract.sol:FootballBet",
						"label": "completed",
						"offset": 0,
						"slot": "8",
						"type": "t_bool"
					}
				],
				"types": {
					"t_address": {
						"encoding": "inplace",
						"label": "address",
						"numberOfBytes": "20"
					},
					"t_array(t_address)dyn_storage": {
						"base": "t_address",
						"encoding": "dynamic_array",
						"label": "address[]",
						"numberOfBytes": "32"
					},
					"t_bool": {
						"encoding": "inplace",
						"label": "bool",
						"numberOfBytes": "1"
					},
					"t_uint256": {
						"encoding": "inplace",
						"label": "uint256",
						"numberOfBytes": "32"
					}
				}
			},
			"userdoc": {
				"kind": "user",
				"methods": {},
				"version": 1
			}
		}
	}
}